:0400000018EF00F005
:100008000C829EA60AEF00F00CEF00F016EF00F04D
:100018009DA611EF00F013EF00F016EF00F0C9CF26
:100028000BF09E960C92110081EF07F0C30E931609
:10003800F10E95169494828483848382818A000EBB
:1000480023EC06F0350EE82EFED700F0819A0A0E52
:10005800E82EFED700D0818A2A0E086E8E0EE82E72
:10006800FED7082EFCD7FFEC06F0096EC40E09185F
:10007800D8B441EF00F043EF00F04EEF00F0840EEB
:100088000918D8B44AEF00F04CEF00F04EEF00F03A
:1000980026EF00F076EC07F01D0EE3EC06F076ECA8
:1000A80007F0000E066E000E95EC06F076EC07F0F1
:1000B800FFEC06F0096EC00E0918D8B466EF00F020
:1000C80068EF00F073EF00F0800E0918D8B46FEFF6
:1000D80000F071EF00F073EF00F026EF00F0010E72
:1000E80023EC06F0350EE82EFED700F0819A0A0EB2
:1000F800E82EFED700D0818A2A0E086E8E0EE82ED2
:10010800FED7082EFCD7FFEC06F0096EC40E0918BE
:10011800D8B491EF00F093EF00F09EEF00F0840E5A
:100128000918D8B49AEF00F09CEF00F09EEF00F0A9
:1001380076EF00F076EC07F01D0EE3EC06F076ECB7
:1001480007F0000E066E000E95EC06F076EC07F050
:10015800FFEC06F0096EC00E0918D8B4B6EF00F02F
:10016800B8EF00F0C3EF00F0800E0918D8B4BFEF65
:1001780000F0C1EF00F0C3EF00F076EF00F0030EDF
:1001880023EC06F0350EE82EFED700F0819A0A0E11
:10019800E82EFED700D0818A2A0E086E8E0EE82E31
:1001A800FED7082EFCD7FFEC06F0096EC40E09181E
:1001B800D8B4E1EF00F0E3EF00F0EEEF00F0840ECA
:1001C8000918D8B4EAEF00F0ECEF00F0EEEF00F019
:1001D800C6EF00F076EC07F01D0EE3EC06F076ECC7
:1001E80007F0000E066E000E95EC06F076EC07F0B0
:1001F800FFEC06F0096EC00E0918D8B406EF01F03E
:1002080008EF01F013EF01F0800E0918D8B40FEFD2
:1002180001F011EF01F013EF01F0C6EF00F0000E4E
:1002280023EC06F067EC06F0010E23EC06F067EC11
:1002380006F0020E23EC06F067EC06F0030E23EC42
:1002480006F067EC06F01200046E0450D8A42FEFF5
:1002580001F031EF01F0AAEF01F001C002F0010E48
:100268000216023A0246024682500218BF0B0218D2
:10027800826E01C002F0D8900232010E02160232DC
:100288000232825002187F0B0218826E01C002F0FF
:10029800D8900232D8900232010E0216023A8350E8
:1002A8000218EF0B0218836E01C002F0D8900232D8
:1002B800D8900232D8900232010E0216023A024653
:1002C80083500218DF0B0218836E01C002F0023A55
:1002D8000F0E0216010E0216023A0246024683501B
:1002E8000218BF0B0218836E01C002F0050E036EE0
:1002F800D8900232032E7CEF01F0010E0216023272
:100308000232835002187F0B0218836E01C002F07C
:10031800060E036ED8900232032E8EEF01F0010E06
:10032800021681500218FE0B0218816E026A01AE95
:1003380001D0022A010E0216024681500218FD0B56
:100348000218816E000E056E1FEF02F00428D8A473
:10035800B0EF01F0B2EF01F01FEF02F0000E81B232
:10036800010E056E81B0BBEF01F0BFEF01F0026A2C
:10037800022AC0EF01F0026A0550020DF350022470
:10038800056E83BECAEF01F0CEEF01F0026A022AC1
:10039800CFEF01F0026A0550020DF3500224056EFA
:1003A80083BCD9EF01F0DDEF01F0026A022ADEEF2B
:1003B80001F0026A0550020DF3500224056E83BA5B
:1003C800E8EF01F0ECEF01F0026A022AEDEF01F02C
:1003D800026A0550020DF3500224056E83B8F7EF48
:1003E80001F0FBEF01F0026A022AFCEF01F0026A59
:1003F8000550020DF3500224056E82BE06EF02F08E
:100408000AEF02F0026A022A0BEF02F0026A0550B4
:10041800020DF3500224056E82BC15EF02F019EFAD
:1004280002F0026A022A1AEF02F0026A0550020D6F
:10043800F3500224056E05501200000E23EC06F05E
:1004480076EC07F052EC07F01F0EE3EC06F076ECC2
:1004580007F0280E066E080E95EC06F076EC07F00D
:10046800000E066E000E95EC06F076EC07F0480ECE
:10047800066E000E95EC06F076EC07F0010E066E9F
:10048800000E95EC06F076EC07F0D00E066EFA0E2C
:1004980095EC06F076EC07F0010E23EC06F076EC0E
:1004A80007F052EC07F01F0EE3EC06F076EC07F0CD
:1004B800280E066E080E95EC06F076EC07F0000E96
:1004C800066E000E95EC06F076EC07F0480E066E08
:1004D800000E95EC06F076EC07F0010E066E000EA5
:1004E80095EC06F076EC07F0D00E066EFA0E95EC59
:1004F80006F076EC07F0020E23EC06F076EC07F037
:1005080052EC07F01F0EE3EC06F076EC07F0280E2D
:10051800066E080E95EC06F076EC07F0000E066EF7
:10052800000E95EC06F076EC07F0480E066E000E0D
:1005380095EC06F076EC07F0010E066E000E95ECD1
:1005480006F076EC07F0D00E066EFA0E95EC06F083
:1005580076EC07F0030E23EC06F076EC07F052EC8D
:1005680007F01F0EE3EC06F076EC07F0280E066E97
:10057800080E95EC06F076EC07F0000E066E000EFD
:1005880095EC06F076EC07F0480E066E000E95EC3A
:1005980006F076EC07F0010E066E000E95EC06F0FC
:1005A80076EC07F0D00E066EFA0E95EC06F076ECB7
:1005B80007F0000E23EC06F0010EE3EC06F076ECF3
:1005C80007F0020E23EC06F0010EE3EC06F076ECE1
:1005D80007F0010E23EC06F0010EE3EC06F076ECD2
:1005E80007F0030E23EC06F0010EE3EC06F076ECC0
:1005F80007F01200010E23EC06F076EC07F052EC3F
:1006080007F01F0EE3EC06F076EC07F0280E066EF6
:10061800180E95EC06F076EC07F0000E066E000E4C
:1006280095EC06F076EC07F0480E066E000E95EC99
:1006380006F076EC07F0010E066E000E95EC06F05B
:1006480076EC07F0D00E066EFA0E95EC06F076EC16
:1006580007F0000E23EC06F076EC07F052EC07F0FA
:100668001F0EE3EC06F076EC07F0280E066E080E77
:1006780095EC06F076EC07F0000E066E000E95EC91
:1006880006F076EC07F0480E066E000E95EC06F0C4
:1006980076EC07F0010E066E000E95EC06F076EC8F
:1006A80007F0D00E066EFA0E95EC06F076EC07F021
:1006B800030E23EC06F076EC07F052EC07F01F0E61
:1006C800E3EC06F076EC07F0280E066E080E95ECC3
:1006D80006F076EC07F0000E066E000E95EC06F0BC
:1006E80076EC07F0480E066E000E95EC06F076ECF8
:1006F80007F0010E066E000E95EC06F076EC07F09A
:10070800D00E066EFA0E95EC06F076EC07F0020EA7
:1007180023EC06F076EC07F052EC07F01F0EE3EC42
:1007280006F076EC07F0280E066E180E95EC06F02B
:1007380076EC07F0000E066E000E95EC06F076ECEF
:1007480007F0480E066E000E95EC06F076EC07F002
:10075800010E066E000E95EC06F076EC07F0D00E52
:10076800066EFA0E95EC06F076EC07F0000E23EC18
:1007780006F0010EE3EC06F076EC07F0020E23EC2F
:1007880006F0010EE3EC06F076EC07F0010E23EC20
:1007980006F0010EE3EC06F076EC07F0030E23EC0E
:1007A80006F0010EE3EC06F076EC07F01200000EFE
:1007B80023EC06F076EC07F052EC07F01F0EE3ECA2
:1007C80006F076EC07F0280E066E180E95EC06F08B
:1007D80076EC07F0000E066E000E95EC06F076EC4F
:1007E80007F0480E066E000E95EC06F076EC07F062
:1007F800010E066E000E95EC06F076EC07F0D00EB2
:10080800066EFA0E95EC06F076EC07F0010E23EC76
:1008180006F076EC07F052EC07F01F0EE3EC06F05A
:1008280076EC07F0280E066E180E95EC06F076ECBE
:1008380007F0000E066E000E95EC06F076EC07F059
:10084800480E066E000E95EC06F076EC07F0010EE9
:10085800066E000E95EC06F076EC07F0D00E066EEC
:10086800FA0E95EC06F076EC07F0020E23EC06F093
:1008780076EC07F052EC07F01F0EE3EC06F076EC8E
:1008880007F0280E066E180E95EC06F076EC07F0C9
:10089800000E066E000E95EC06F076EC07F0480E9A
:1008A800066E000E95EC06F076EC07F0010E066E6B
:1008B800000E95EC06F076EC07F0D00E066EFA0EF8
:1008C80095EC06F076EC07F0030E23EC06F076ECD8
:1008D80007F052EC07F01F0EE3EC06F076EC07F099
:1008E800280E066E180E95EC06F076EC07F0000E52
:1008F800066E000E95EC06F076EC07F0480E066ED4
:10090800000E95EC06F076EC07F0010E066E000E70
:1009180095EC06F076EC07F0D00E066EFA0E95EC24
:1009280006F076EC07F0000E23EC06F0010EE3EC7F
:1009380006F076EC07F0020E23EC06F0010EE3EC6D
:1009480006F076EC07F0010E23EC06F0010EE3EC5E
:1009580006F076EC07F0030E23EC06F0010EE3EC4C
:1009680006F076EC07F01200000E23EC06F076ECA9
:1009780007F052EC07F01F0EE3EC06F076EC07F0F8
:10098800280E066E180E95EC06F076EC07F0000EB1
:10099800066E000E95EC06F076EC07F0480E066E33
:1009A800000E95EC06F076EC07F0010E066E000ED0
:1009B80095EC06F076EC07F0D00E066EFA0E95EC84
:1009C80006F076EC07F0010E23EC06F076EC07F063
:1009D80052EC07F01F0EE3EC06F076EC07F0280E59
:1009E800066E080E95EC06F076EC07F0000E066E23
:1009F800000E95EC06F076EC07F0480E066E000E39
:100A080095EC06F076EC07F0010E066E000E95ECFC
:100A180006F076EC07F0D00E066EFA0E95EC06F0AE
:100A280076EC07F0020E23EC06F076EC07F052ECB9
:100A380007F01F0EE3EC06F076EC07F0280E066EC2
:100A4800080E95EC06F076EC07F0000E066E000E28
:100A580095EC06F076EC07F0480E066E000E95EC65
:100A680006F076EC07F0010E066E000E95EC06F027
:100A780076EC07F0D00E066EFA0E95EC06F076ECE2
:100A880007F0030E23EC06F076EC07F052EC07F0C3
:100A98001F0EE3EC06F076EC07F0280E066E180E33
:100AA80095EC06F076EC07F0000E066E000E95EC5D
:100AB80006F076EC07F0480E066E000E95EC06F090
:100AC80076EC07F0010E066E000E95EC06F076EC5B
:100AD80007F0D00E066EFA0E95EC06F076EC07F0ED
:100AE800000E23EC06F0010EE3EC06F076EC07F0BE
:100AF800020E23EC06F0010EE3EC06F076EC07F0AC
:100B0800010E23EC06F0010EE3EC06F076EC07F09C
:100B1800030E23EC06F0010EE3EC06F076EC07F08A
:100B28001200D09E000EF26E000E0F01386F000EFC
:100B3800396F000E3A6F000E3B6F000E3C6F000ECF
:100B4800C66E000E6C6E000E796E000E786E000E8A
:100B5800816E000E926E000E956E000E936E000E62
:100B6800946E000E456F000E476F000E426F000E28
:100B7800416F000E9C6E1AEC00F040EC07F0C95073
:100B8800540E87EC07F00BC00AF0770E0A18D8A4A9
:100B9800D0EF05F0D2EF05F0D8EF05F016EC07F02E
:100BA800B8EC04F0C3EF05F0730E0A18D8A4DFEF11
:100BB80005F0E1EF05F0E7EF05F016EC07F0FEECC5
:100BC80002F0C3EF05F0610E0A18D8A4EEEF05F0A5
:100BD800F0EF05F0F6EF05F016EC07F0DBEC03F0AC
:100BE800C3EF05F0640E0A18D8A4FDEF05F0FFEF77
:100BF80005F005EF06F016EC07F021EC02F0C3EF64
:100C080005F06F0E0A18D8A40CEF06F00EEF06F0E8
:100C180012EF06F016EC07F0C3EF05F0620E0A18A3
:100C2800D8A419EF06F01BEF06F01FEF06F02BEC27
:100C380007F0C3EF05F0C3EF05F018EF00F0016E01
:100C48000150D8A42AEF06F02CEF06F032EF06F098
:100C5800839681848080818862EF06F00104D8A49D
:100C680038EF06F03AEF06F040EF06F083868194FD
:100C78008080818862EF06F0020E0118D8A447EF41
:100C880006F049EF06F04FEF06F0838681848090E6
:100C9800818862EF06F0030E0118D8A456EF06F01B
:100CA80058EF06F05EEF06F0838681848080819895
:100CB80062EF06F08386818480808188350EE82E75
:100CC800FED700F012001E0EE3EC06F076EC07F0FB
:100CD8000F0E066E000E95EC06F076EC07F00F0E80
:100CE800066E010E95EC06F076EC07F0040E066E23
:100CF800000E95EC06F076EC07F0FF0E066E7F0E00
:100D080095EC06F076EC07F0FF0E066E000E95ECFB
:100D180006F076EC07F0040EE3EC06F076EC07F04C
:100D28001200076E050EE82EFED700F0000EC3EC89
:100D380006F0828400D000F0839200D000D000D06A
:100D480000D007C001F0000E28EC01F000D000D060
:100D580000F08382030EE82EFED700F0839200D0C5
:100D680000D000F006C001F0000E28EC01F000D021
:100D780000D000F0838200D000F082841200016E5F
:100D88000150D8A4CAEF06F0CCEF06F0D4EF06F075
:100D98003F0E94160F0E9516FC0E9316E2EF06F012
:100DA8000128D8A4DAEF06F0DCEF06F0E2EF06F04F
:100DB800C00E9412F00E9512030E93121200066ED6
:100DC800000EC3EC06F0829400D000F0839200D0AD
:100DD80000D000F006C001F0000E28EC01F000D0B1
:100DE80000D000F0838200D000F08284030EE82E49
:100DF800FED700D01200FF0EC3EC06F0829400D09C
:100E080000F08394040EE82EFED7000E016EFF0E4C
:100E180028EC01F0066E838400D000D000F08284B4
:100E280006501200000E23EC06F052EC07F0010EFB
:100E380023EC06F052EC07F0020E23EC06F052EC1D
:100E480007F0030E23EC06F052EC07F01200000E38
:100E580023EC06F064EC07F0010E23EC06F064ECDA
:100E680007F0020E23EC06F064EC07F0030E23EC07
:100E780006F064EC07F012009D86F28CF28E000EEC
:100E8800C76E240EC66E100ECB6E000EC26E000E1C
:100E9800C16E928A9486949A948812001F0EE3EC8D
:100EA80006F076EC07F0000E066E010E95EC06F0E3
:100EB80076EC07F0010EE3EC06F076EC07F0120092
:100EC8001F0EE3EC06F076EC07F0000E066E020E3D
:100ED80095EC06F076EC07F0010EE3EC06F076EC04
:100EE80007F01200FFEC06F0076E07B07EEF07F080
:100EF80080EF07F076EF07F012000B6A0C900C9267
:0E0F0800000195EF05F0016E01C0C9FF120057
:020000040020DA
:08000000FFFFFFFFFFFFFFFF00
:020000040030CA
:0E000000FF32193CFF9181FF0FC00FE00F404F
:00000001FF
