:040000000EEF00F00F
:100008000C829EA605D09E96C9CF0BF0550EC96EE0
:100018000C92110035EF0AF0000E67EC09F03BEC8A
:100028000AF011EC0AF01F0E8DEC09F03BEC0AF017
:10003800280E066E080E39EC09F03BEC0AF0000EAB
:10004800066E000E39EC09F03BEC0AF0480E066E1D
:10005800000E39EC09F03BEC0AF0010E066E000EBA
:1000680039EC09F03BEC0AF0D00E066EFA0E39ECCA
:1000780009F03BEC0AF0010E67EC09F03BEC0AF0E2
:1000880011EC0AF01F0E8DEC09F03BEC0AF0280E7B
:10009800066E080E39EC09F03BEC0AF0000E066E0D
:1000A800000E39EC09F03BEC0AF0480E066E000E23
:1000B80039EC09F03BEC0AF0010E066E000E39EC43
:1000C80009F03BEC0AF0D00E066EFA0E39EC09F096
:1000D8003BEC0AF0020E67EC09F03BEC0AF011EC7D
:1000E8000AF01F0E8DEC09F03BEC0AF0280E066EA4
:1000F800080E39EC09F03BEC0AF0000E066E000E13
:1001080039EC09F03BEC0AF0480E066E000E39ECAB
:1001180009F03BEC0AF0010E066E000E39EC09F00E
:100128003BEC0AF0D00E066EFA0E39EC09F03BEC07
:100138000AF0030E67EC09F03BEC0AF011EC0AF048
:100148001F0E8DEC09F03BEC0AF0280E066E080E27
:1001580039EC09F03BEC0AF0000E066E000E39ECA3
:1001680009F03BEC0AF0480E066E000E39EC09F077
:100178003BEC0AF0010E066E000E39EC09F03BEC80
:100188000AF0D00E066EFA0E39EC09F03BEC0AF0D4
:10019800000E67EC09F0010E8DEC09F03BEC0AF05B
:1001A800020E67EC09F0010E8DEC09F03BEC0AF049
:1001B800010E67EC09F0010E8DEC09F03BEC0AF03A
:1001C800030E67EC09F0010E8DEC09F03BEC0AF028
:1001D8001200010E67EC09F03BEC0AF011EC0AF092
:1001E8001F0E8DEC09F03BEC0AF0280E066E180E77
:1001F80039EC09F03BEC0AF0000E066E000E39EC03
:1002080009F03BEC0AF0480E066E000E39EC09F0D6
:100218003BEC0AF0000E066E000E39EC09F03BECE0
:100228000AF0680E066EFD0E39EC09F03BEC0AF098
:10023800000E67EC09F03BEC0AF011EC0AF01F0E17
:100248008DEC09F03BEC0AF0280E066E080E39EC2E
:1002580009F03BEC0AF0000E066E000E39EC09F0CE
:100268003BEC0AF0480E066E000E39EC09F03BEC48
:100278000AF0010E066E000E39EC09F03BEC0AF0AC
:10028800D00E066EFA0E39EC09F03BEC0AF0030EBC
:1002980067EC09F03BEC0AF011EC0AF01F0E8DEC4C
:1002A80009F03BEC0AF0280E066E080E39EC09F04E
:1002B8003BEC0AF0000E066E000E39EC09F03BEC40
:1002C8000AF0480E066E000E39EC09F03BEC0AF015
:1002D800010E066E000E39EC09F03BEC0AF0D00E68
:1002E800066EFA0E39EC09F03BEC0AF0020E67ECE8
:1002F80009F03BEC0AF011EC0AF01F0E8DEC09F046
:100308003BEC0AF0280E066E180E39EC09F03BECAF
:100318000AF0000E066E000E39EC09F03BEC0AF00C
:10032800480E066E000E39EC09F03BEC0AF0000EA0
:10033800066E000E39EC09F03BEC0AF0680E066E0A
:10034800FD0E39EC09F03BEC0AF0000E67EC09F001
:10035800010E8DEC09F03BEC0AF0020E67EC09F097
:10036800010E8DEC09F03BEC0AF0010E67EC09F088
:10037800010E8DEC09F03BEC0AF0030E67EC09F076
:10038800010E8DEC09F03BEC0AF01200010E67EC4F
:1003980009F03BEC0AF011EC0AF01F0E8DEC09F0A5
:1003A8003BEC0AF0280E066E180E39EC09F03BEC0F
:1003B8000AF0000E066E000E39EC09F03BEC0AF06C
:1003C800480E066E000E39EC09F03BEC0AF0010EFF
:1003D800066E000E39EC09F03BEC0AF0D00E066E02
:1003E800FA0E39EC09F03BEC0AF0000E67EC09F064
:1003F8003BEC0AF011EC0AF01F0E8DEC09F03BEC17
:100408000AF0280E066E080E39EC09F03BEC0AF0EB
:10041800000E066E000E39EC09F03BEC0AF0480EAF
:10042800066E000E39EC09F03BEC0AF0000E066E81
:10043800000E39EC09F03BEC0AF0680E066EFD0E72
:1004480039EC09F03BEC0AF0030E67EC09F03BECE1
:100458000AF011EC0AF01F0E8DEC09F03BEC0AF0E3
:10046800280E066E080E39EC09F03BEC0AF0000E77
:10047800066E000E39EC09F03BEC0AF0480E066EE9
:10048800000E39EC09F03BEC0AF0000E066E000E87
:1004980039EC09F03BEC0AF0680E066EFD0E39ECFB
:1004A80009F03BEC0AF0020E67EC09F03BEC0AF0AD
:1004B80011EC0AF01F0E8DEC09F03BEC0AF0280E47
:1004C800066E180E39EC09F03BEC0AF0000E066EC9
:1004D800000E39EC09F03BEC0AF0480E066E000EEF
:1004E80039EC09F03BEC0AF0010E066E000E39EC0F
:1004F80009F03BEC0AF0D00E066EFA0E39EC09F062
:100508003BEC0AF0000E67EC09F0010E8DEC09F0E7
:100518003BEC0AF0020E67EC09F0010E8DEC09F0D5
:100528003BEC0AF0010E67EC09F0010E8DEC09F0C6
:100538003BEC0AF0030E67EC09F0010E8DEC09F0B4
:100548003BEC0AF01200010E67EC09F03BEC0AF0F4
:1005580011EC0AF01F0E8DEC09F03BEC0AF0280EA6
:10056800066E180E39EC09F03BEC0AF0000E066E28
:10057800000E39EC09F03BEC0AF0480E066E000E4E
:1005880039EC09F03BEC0AF0010E066E000E39EC6E
:1005980009F03BEC0AF0D00E066EFA0E39EC09F0C1
:1005A8003BEC0AF0000E67EC09F03BEC0AF011ECAA
:1005B8000AF01F0E8DEC09F03BEC0AF0280E066ECF
:1005C800080E39EC09F03BEC0AF0000E066E000E3E
:1005D80039EC09F03BEC0AF0480E066E000E39ECD7
:1005E80009F03BEC0AF0010E066E000E39EC09F03A
:1005F8003BEC0AF0D00E066EFA0E39EC09F03BEC33
:100608000AF0030E67EC09F03BEC0AF011EC0AF073
:100618001F0E8DEC09F03BEC0AF0280E066E080E52
:1006280039EC09F03BEC0AF0000E066E000E39ECCE
:1006380009F03BEC0AF0480E066E000E39EC09F0A2
:100648003BEC0AF0010E066E000E39EC09F03BECAB
:100658000AF0D00E066EFA0E39EC09F03BEC0AF0FF
:10066800020E67EC09F03BEC0AF011EC0AF01F0EE1
:100678008DEC09F03BEC0AF0280E066E180E39ECEA
:1006880009F03BEC0AF0000E066E000E39EC09F09A
:100698003BEC0AF0480E066E000E39EC09F03BEC14
:1006A8000AF0010E066E000E39EC09F03BEC0AF078
:1006B800D00E066EFA0E39EC09F03BEC0AF0000E8B
:1006C80067EC09F0010E8DEC09F03BEC0AF0020E24
:1006D80067EC09F0010E8DEC09F03BEC0AF0010E15
:1006E80067EC09F0010E8DEC09F03BEC0AF0030E03
:1006F80067EC09F0010E8DEC09F03BEC0AF01200F2
:10070800000E67EC09F03BEC0AF011EC0AF01F0E42
:100718008DEC09F03BEC0AF0280E066E180E39EC49
:1007280009F03BEC0AF0000E066E000E39EC09F0F9
:100738003BEC0AF0480E066E000E39EC09F03BEC73
:100748000AF0010E066E000E39EC09F03BEC0AF0D7
:10075800D00E066EFA0E39EC09F03BEC0AF0010EE9
:1007680067EC09F03BEC0AF011EC0AF01F0E8DEC77
:1007780009F03BEC0AF0280E066E180E39EC09F069
:100788003BEC0AF0000E066E000E39EC09F03BEC6B
:100798000AF0480E066E000E39EC09F03BEC0AF040
:1007A800010E066E000E39EC09F03BEC0AF0D00E93
:1007B800066EFA0E39EC09F03BEC0AF0020E67EC13
:1007C80009F03BEC0AF011EC0AF01F0E8DEC09F071
:1007D8003BEC0AF0280E066E180E39EC09F03BECDB
:1007E8000AF0000E066E000E39EC09F03BEC0AF038
:1007F800480E066E000E39EC09F03BEC0AF0010ECB
:10080800066E000E39EC09F03BEC0AF0D00E066ECD
:10081800FA0E39EC09F03BEC0AF0030E67EC09F02C
:100828003BEC0AF011EC0AF01F0E8DEC09F03BECE2
:100838000AF0280E066E180E39EC09F03BEC0AF0A7
:10084800000E066E000E39EC09F03BEC0AF0480E7B
:10085800066E000E39EC09F03BEC0AF0010E066E4C
:10086800000E39EC09F03BEC0AF0D00E066EFA0ED9
:1008780039EC09F03BEC0AF0000E67EC09F0010EC8
:100888008DEC09F03BEC0AF0020E67EC09F0010E62
:100898008DEC09F03BEC0AF0010E67EC09F0010E53
:1008A8008DEC09F03BEC0AF0030E67EC09F0010E41
:1008B8008DEC09F03BEC0AF01200000E67EC09F031
:1008C8003BEC0AF011EC0AF01F0E8DEC09F03BEC42
:1008D8000AF0280E066E180E39EC09F03BEC0AF007
:1008E800000E066E000E39EC09F03BEC0AF0480EDB
:1008F800066E000E39EC09F03BEC0AF0000E066EAD
:10090800000E39EC09F03BEC0AF0680E066EFD0E9D
:1009180039EC09F03BEC0AF0010E67EC09F03BEC0E
:100928000AF011EC0AF01F0E8DEC09F03BEC0AF00E
:10093800280E066E080E39EC09F03BEC0AF0000EA2
:10094800066E000E39EC09F03BEC0AF0480E066E14
:10095800000E39EC09F03BEC0AF0010E066E000EB1
:1009680039EC09F03BEC0AF0D00E066EFA0E39ECC1
:1009780009F03BEC0AF0020E67EC09F03BEC0AF0D8
:1009880011EC0AF01F0E8DEC09F03BEC0AF0280E72
:10099800066E080E39EC09F03BEC0AF0000E066E04
:1009A800000E39EC09F03BEC0AF0480E066E000E1A
:1009B80039EC09F03BEC0AF0010E066E000E39EC3A
:1009C80009F03BEC0AF0D00E066EFA0E39EC09F08D
:1009D8003BEC0AF0030E67EC09F03BEC0AF011EC73
:1009E8000AF01F0E8DEC09F03BEC0AF0280E066E9B
:1009F800180E39EC09F03BEC0AF0000E066E000EFA
:100A080039EC09F03BEC0AF0480E066E000E39ECA2
:100A180009F03BEC0AF0000E066E000E39EC09F006
:100A28003BEC0AF0680E066EFD0E39EC09F03BEC63
:100A38000AF0000E67EC09F0010E8DEC09F03BECB2
:100A48000AF0020E67EC09F0010E8DEC09F03BECA0
:100A58000AF0010E67EC09F0010E8DEC09F03BEC91
:100A68000AF0030E67EC09F0010E8DEC09F03BEC7F
:100A78000AF01200000E67EC09F03BEC0AF011ECEA
:100A88000AF01F0E8DEC09F03BEC0AF0280E066EFA
:100A9800180E39EC09F03BEC0AF0000E066E000E59
:100AA80039EC09F03BEC0AF0480E066E000E39EC02
:100AB80009F03BEC0AF0010E066E000E39EC09F065
:100AC8003BEC0AF0D00E066EFA0E39EC09F03BEC5E
:100AD8000AF0010E67EC09F03BEC0AF011EC0AF0A1
:100AE8001F0E8DEC09F03BEC0AF0280E066E080E7E
:100AF80039EC09F03BEC0AF0000E066E000E39ECFA
:100B080009F03BEC0AF0480E066E000E39EC09F0CD
:100B18003BEC0AF0000E066E000E39EC09F03BECD7
:100B28000AF0680E066EFD0E39EC09F03BEC0AF08F
:100B3800020E67EC09F03BEC0AF011EC0AF01F0E0C
:100B48008DEC09F03BEC0AF0280E066E080E39EC25
:100B580009F03BEC0AF0000E066E000E39EC09F0C5
:100B68003BEC0AF0480E066E000E39EC09F03BEC3F
:100B78000AF0000E066E000E39EC09F03BEC0AF0A4
:100B8800680E066EFD0E39EC09F03BEC0AF0030E18
:100B980067EC09F03BEC0AF011EC0AF01F0E8DEC43
:100BA80009F03BEC0AF0280E066E180E39EC09F035
:100BB8003BEC0AF0000E066E000E39EC09F03BEC37
:100BC8000AF0480E066E000E39EC09F03BEC0AF00C
:100BD800010E066E000E39EC09F03BEC0AF0D00E5F
:100BE800066EFA0E39EC09F03BEC0AF0000E67ECE1
:100BF80009F0010E8DEC09F03BEC0AF0020E67ECEF
:100C080009F0010E8DEC09F03BEC0AF0010E67ECDF
:100C180009F0010E8DEC09F03BEC0AF0030E67ECCD
:100C280009F0010E8DEC09F03BEC0AF01200000E01
:100C380067EC09F03BEC0AF011EC0AF01F0E8DECA2
:100C480009F03BEC0AF0280E066E180E39EC09F094
:100C58003BEC0AF0000E066E000E39EC09F03BEC96
:100C68000AF0480E066E000E39EC09F03BEC0AF06B
:100C7800010E066E000E39EC09F03BEC0AF0D00EBE
:100C8800066EFA0E39EC09F03BEC0AF0010E67EC3F
:100C980009F03BEC0AF011EC0AF01F0E8DEC09F09C
:100CA8003BEC0AF0280E066E080E39EC09F03BEC16
:100CB8000AF0000E066E000E39EC09F03BEC0AF063
:100CC800480E066E000E39EC09F03BEC0AF0010EF6
:100CD800066E000E39EC09F03BEC0AF0D00E066EF9
:100CE800FA0E39EC09F03BEC0AF0020E67EC09F059
:100CF8003BEC0AF011EC0AF01F0E8DEC09F03BEC0E
:100D08000AF0280E066E080E39EC09F03BEC0AF0E2
:100D1800000E066E000E39EC09F03BEC0AF0480EA6
:100D2800066E000E39EC09F03BEC0AF0010E066E77
:100D3800000E39EC09F03BEC0AF0D00E066EFA0E04
:100D480039EC09F03BEC0AF0030E67EC09F03BECD8
:100D58000AF011EC0AF01F0E8DEC09F03BEC0AF0DA
:100D6800280E066E180E39EC09F03BEC0AF0000E5E
:100D7800066E000E39EC09F03BEC0AF0480E066EE0
:100D8800000E39EC09F03BEC0AF0010E066E000E7D
:100D980039EC09F03BEC0AF0D00E066EFA0E39EC8D
:100DA80009F03BEC0AF0000E67EC09F0010E8DEC3F
:100DB80009F03BEC0AF0020E67EC09F0010E8DEC2D
:100DC80009F03BEC0AF0010E67EC09F0010E8DEC1E
:100DD80009F03BEC0AF0030E67EC09F0010E8DEC0C
:100DE80009F03BEC0AF01200046E0450D8A476D047
:100DF80001C002F0010E0216023A02460246825073
:100E08000218BF0B0218826E01C002F0D89002329D
:100E1800010E021602320232825002187F0B0218AB
:100E2800826E01C002F0D8900232D8900232010ED0
:100E38000216023A83500218EF0B0218836E01C0A3
:100E480002F0D8900232D8900232D8900232010EC5
:100E58000216023A024683500218DF0B0218836E0C
:100E680001C002F0023A0F0E0216010E0216023AF3
:100E78000246024683500218BF0B0218836E01C057
:100E880002F0050E036ED8900232032EFCD7010E35
:100E9800021602320232835002187F0B0218836E48
:100EA80001C002F0060E036ED8900232032EFCD762
:100EB800010E021681500218FE0B0218816E026A9A
:100EC80001AE01D0022A010E021602468150021814
:100ED800FD0B0218816E000E056E4BD00428D8A4B5
:100EE80048D081A203D0800E026E01D0026A02505F
:100EF800051281A003D0400E026E01D0026A025092
:100F0800051283AE03D0200E026E01D0026A025091
:100F1800051283AC03D0026A022A01D0026A0238A1
:100F2800F00B051283AA03D0026A022A01D0026AD2
:100F3800D8900236D8900236D8900234051283A889
:100F480003D0026A022A01D0026AD8900236D890E9
:100F58000234051282AE03D0026A022A01D0026A64
:100F6800D8900234051282AC02D0010E01D0000ED6
:100F7800051205501200C30E9316F10E951694949F
:100F8800828483848382818A000E67EC09F0350E9F
:100F9800E82EFED700F0819A0A0EE82EFED700D080
:100FA800818A2A0E086E8E0EE82EFED7082EFCD7F0
:100FB800A9EC09F0096EC40E0918D8B404D0840E3F
:100FC8000918D8A4E4D73BEC0AF01D0E8DEC09F003
:100FD8003BEC0AF0000E066E000E39EC09F03BEC13
:100FE8000AF0A9EC09F0096EC00E0918D8B404D0AB
:100FF800800E0918D8A4CBD7010E67EC09F0350E7E
:10100800E82EFED700F0819A0A0EE82EFED700D00F
:10101800818A2A0E086E8E0EE82EFED7082EFCD77F
:10102800A9EC09F0096EC40E0918D8B404D0840ECE
:101038000918D8A4E4D73BEC0AF01D0E8DEC09F092
:101048003BEC0AF0000E066E000E39EC09F03BECA2
:101058000AF0A9EC09F0096EC00E0918D8B404D03A
:10106800800E0918D8A4CBD7030E67EC09F0350E0B
:10107800E82EFED700F0819A0A0EE82EFED700D09F
:10108800818A2A0E086E8E0EE82EFED7082EFCD70F
:10109800A9EC09F0096EC40E0918D8B404D0840E5E
:1010A8000918D8A4E4D73BEC0AF01D0E8DEC09F022
:1010B8003BEC0AF0000E066E000E39EC09F03BEC32
:1010C8000AF0A9EC09F0096EC00E0918D8B404D0CA
:1010D800800E0918D8A4CBD7000E67EC09F00BECEA
:1010E80009F0010E67EC09F00BEC09F0020E67EC51
:1010F80009F00BEC09F0030E67EC09F00BEC09F0B2
:101108001200D09E000EF26E000E0F01386F000E16
:10111800396F000E3A6F000E3B6F000E3C6F000EE9
:10112800C66E000E6C6E000E796E000E786E9268B8
:10113800956893689468000E456F000E476F000E1F
:10114800426F000E416F000E9C6EBFEC07F0FFEC83
:1011580009F0550E41EC0AF00BC00AF0770E0A1898
:10116800D8A405D0C0EC09F01BEC06F0F5D7730E37
:101178000A18D8A405D0C0EC09F0A7EC02F0ECD707
:10118800610E0A18D8A405D0C0EC09F084EC03F06D
:10119800E3D7640E0A18D8A405D0C0EC09F010EC07
:1011A80000F0DAD76F0E0A18D8A403D0C0EC09F003
:1011B800D3D7620E0A18D8A403D0D5EC09F0CCD73F
:1011C8000A50D8B4F3D7340E0A18D8A405D0C0EC06
:1011D80009F061EC04F0C0D7310E0A18D8A405D084
:1011E800C0EC09F03EEC05F0B7D7320E0A18D8A4C7
:1011F80005D0C0EC09F0CAEC01F0AED7330E0A18DE
:10120800D8A4AAD7C0EC09F0EDEC00F0A5D71E0EC3
:101218008DEC09F03BEC0AF00F0E066E000E39EC6F
:1012280009F03BEC0AF00F0E066E010E39EC09F0DE
:101238003BEC0AF0040E066E000E39EC09F03BECAC
:101248000AF0FF0E066E7F0E39EC09F03BEC0AF04F
:10125800FF0E066E000E39EC09F03BEC0AF0040EA6
:101268008DEC09F03BEC0AF01200076E050EE82E33
:10127800FED700F0000EEAEC09F0828400D000F0FE
:10128800839200D000D000D000D007C001F0000E3B
:10129800F8EC06F000D000D000F08382030EE82EB0
:1012A800FED700F0839200D000D000F006C001F015
:1012B800000EF8EC06F000D000D000F0838200D0D9
:1012C80000F082841200016E0150D8A402D08396E7
:1012D80018D00104D8A403D08386819413D0020EB9
:1012E8000118D8A404D08386818480900CD0030E82
:1012F8000118D8A405D0838681848080819804D081
:101308008386818480808188350EE82EFED700F0A0
:101318001200066E000EEAEC09F0829400D000F08C
:10132800839200D000D000F006C001F0000EF8EC67
:1013380006F000D000D000F0838200D000F0828454
:10134800030EE82EFED700D01200FF0EEAEC09F0DB
:10135800829400D000F08394040EE82EFED7000E8D
:10136800016EFF0EF8EC06F0066E838400D000D004
:1013780000F0828406501200000E67EC09F011ECB0
:101388000AF0010E67EC09F011EC0AF0020E67ECA6
:1013980009F011EC0AF0030E67EC09F011EC0AF001
:1013A8001200000E67EC09F023EC0AF0010E67EC5E
:1013B80009F023EC0AF0020E67EC09F023EC0AF0BE
:1013C800030E67EC09F023EC0AF01200016E0150DD
:1013D800D8A407D03F0E94160F0E9516FC0E931640
:1013E80012000128D8A41200C00E9412F00E951213
:1013F800030E93121200000EC76E240EC66E100E56
:10140800CB6E000EC26E000EC16E928A9486949ABC
:1014180094889D86F28CF28E12001F0E8DEC09F0D6
:101428003BEC0AF0000E066E010E39EC09F03BECBD
:101438000AF0010E8DEC09F03BEC0AF012001F0EC9
:101448008DEC09F03BEC0AF0000E066E020E39EC4A
:1014580009F03BEC0AF0010E8DEC09F03BEC0AF0C8
:1014680012000B6A0C900C92000185EF08F0A9ECB1
:1014780009F0076E07A01200FAD7016E01C0C9FF74
:02148800120050
:020000040020DA
:08000000FFFFFFFFFFFFFFFF00
:020000040030CA
:0E000000FF32193CFF9181FF0FC00FE00F404F
:00000001FF
