:040000000EEF00F00F
:100008000C829EA605D09E96C9CF0BF0550EC96EE0
:100018000C9211003BEF0AF0000E6DEC09F041EC78
:100028000AF017EC0AF01F0E93EC09F041EC0AF005
:10003800280E066E080E3FEC09F041EC0AF0000E9F
:10004800066E000E3FEC09F041EC0AF0480E066E11
:10005800000E3FEC09F041EC0AF0010E066E000EAE
:100068003FEC09F041EC0AF0D00E066EFA0E3FECB8
:1000780009F041EC0AF0010E6DEC09F041EC0AF0D0
:1000880017EC0AF01F0E93EC09F041EC0AF0280E69
:10009800066E080E3FEC09F041EC0AF0000E066E01
:1000A800000E3FEC09F041EC0AF0480E066E000E17
:1000B8003FEC09F041EC0AF0010E066E000E3FEC31
:1000C80009F041EC0AF0D00E066EFA0E3FEC09F08A
:1000D80041EC0AF0020E6DEC09F041EC0AF017EC65
:1000E8000AF01F0E93EC09F041EC0AF0280E066E98
:1000F800080E3FEC09F041EC0AF0000E066E000E07
:100108003FEC09F041EC0AF0480E066E000E3FEC99
:1001180009F041EC0AF0010E066E000E3FEC09F002
:1001280041EC0AF0D00E066EFA0E3FEC09F041ECF5
:100138000AF0030E6DEC09F041EC0AF017EC0AF036
:100148001F0E93EC09F041EC0AF0280E066E080E1B
:100158003FEC09F041EC0AF0000E066E000E3FEC91
:1001680009F041EC0AF0480E066E000E3FEC09F06B
:1001780041EC0AF0010E066E000E3FEC09F041EC6E
:100188000AF0D00E066EFA0E3FEC09F041EC0AF0C8
:10019800000E6DEC09F0010E93EC09F041EC0AF049
:1001A800020E6DEC09F0010E93EC09F041EC0AF037
:1001B800010E6DEC09F0010E93EC09F041EC0AF028
:1001C800030E6DEC09F0010E93EC09F041EC0AF016
:1001D8001200010E6DEC09F041EC0AF017EC0AF080
:1001E8001F0E93EC09F041EC0AF0280E066E180E6B
:1001F8003FEC09F041EC0AF0000E066E000E3FECF1
:1002080009F041EC0AF0480E066E000E3FEC09F0CA
:1002180041EC0AF0000E066E000E3FEC09F041ECCE
:100228000AF0680E066EFD0E3FEC09F041EC0AF08C
:10023800000E6DEC09F041EC0AF017EC0AF01F0E05
:1002480093EC09F041EC0AF0280E066E080E3FEC1C
:1002580009F041EC0AF0000E066E000E3FEC09F0C2
:1002680041EC0AF0480E066E000E3FEC09F041EC36
:100278000AF0010E066E000E3FEC09F041EC0AF0A0
:10028800D00E066EFA0E3FEC09F041EC0AF0030EB0
:100298006DEC09F041EC0AF017EC0AF01F0E93EC34
:1002A80009F041EC0AF0280E066E080E3FEC09F042
:1002B80041EC0AF0000E066E000E3FEC09F041EC2E
:1002C8000AF0480E066E000E3FEC09F041EC0AF009
:1002D800010E066E000E3FEC09F041EC0AF0D00E5C
:1002E800066EFA0E3FEC09F041EC0AF0020E6DECD6
:1002F80009F041EC0AF017EC0AF01F0E93EC09F034
:1003080041EC0AF0280E066E180E3FEC09F041EC9D
:100318000AF0000E066E000E3FEC09F041EC0AF000
:10032800480E066E000E3FEC09F041EC0AF0000E94
:10033800066E000E3FEC09F041EC0AF0680E066EFE
:10034800FD0E3FEC09F041EC0AF0000E6DEC09F0EF
:10035800010E93EC09F041EC0AF0020E6DEC09F085
:10036800010E93EC09F041EC0AF0010E6DEC09F076
:10037800010E93EC09F041EC0AF0030E6DEC09F064
:10038800010E93EC09F041EC0AF01200010E6DEC3D
:1003980009F041EC0AF017EC0AF01F0E93EC09F093
:1003A80041EC0AF0280E066E180E3FEC09F041ECFD
:1003B8000AF0000E066E000E3FEC09F041EC0AF060
:1003C800480E066E000E3FEC09F041EC0AF0010EF3
:1003D800066E000E3FEC09F041EC0AF0D00E066EF6
:1003E800FA0E3FEC09F041EC0AF0000E6DEC09F052
:1003F80041EC0AF017EC0AF01F0E93EC09F041ECFF
:100408000AF0280E066E080E3FEC09F041EC0AF0DF
:10041800000E066E000E3FEC09F041EC0AF0480EA3
:10042800066E000E3FEC09F041EC0AF0000E066E75
:10043800000E3FEC09F041EC0AF0680E066EFD0E66
:100448003FEC09F041EC0AF0030E6DEC09F041ECC9
:100458000AF017EC0AF01F0E93EC09F041EC0AF0D1
:10046800280E066E080E3FEC09F041EC0AF0000E6B
:10047800066E000E3FEC09F041EC0AF0480E066EDD
:10048800000E3FEC09F041EC0AF0000E066E000E7B
:100498003FEC09F041EC0AF0680E066EFD0E3FECE9
:1004A80009F041EC0AF0020E6DEC09F041EC0AF09B
:1004B80017EC0AF01F0E93EC09F041EC0AF0280E35
:1004C800066E180E3FEC09F041EC0AF0000E066EBD
:1004D800000E3FEC09F041EC0AF0480E066E000EE3
:1004E8003FEC09F041EC0AF0010E066E000E3FECFD
:1004F80009F041EC0AF0D00E066EFA0E3FEC09F056
:1005080041EC0AF0000E6DEC09F0010E93EC09F0D5
:1005180041EC0AF0020E6DEC09F0010E93EC09F0C3
:1005280041EC0AF0010E6DEC09F0010E93EC09F0B4
:1005380041EC0AF0030E6DEC09F0010E93EC09F0A2
:1005480041EC0AF01200010E6DEC09F041EC0AF0E2
:1005580017EC0AF01F0E93EC09F041EC0AF0280E94
:10056800066E180E3FEC09F041EC0AF0000E066E1C
:10057800000E3FEC09F041EC0AF0480E066E000E42
:100588003FEC09F041EC0AF0010E066E000E3FEC5C
:1005980009F041EC0AF0D00E066EFA0E3FEC09F0B5
:1005A80041EC0AF0000E6DEC09F041EC0AF017EC92
:1005B8000AF01F0E93EC09F041EC0AF0280E066EC3
:1005C800080E3FEC09F041EC0AF0000E066E000E32
:1005D8003FEC09F041EC0AF0480E066E000E3FECC5
:1005E80009F041EC0AF0010E066E000E3FEC09F02E
:1005F80041EC0AF0D00E066EFA0E3FEC09F041EC21
:100608000AF0030E6DEC09F041EC0AF017EC0AF061
:100618001F0E93EC09F041EC0AF0280E066E080E46
:100628003FEC09F041EC0AF0000E066E000E3FECBC
:1006380009F041EC0AF0480E066E000E3FEC09F096
:1006480041EC0AF0010E066E000E3FEC09F041EC99
:100658000AF0D00E066EFA0E3FEC09F041EC0AF0F3
:10066800020E6DEC09F041EC0AF017EC0AF01F0ECF
:1006780093EC09F041EC0AF0280E066E180E3FECD8
:1006880009F041EC0AF0000E066E000E3FEC09F08E
:1006980041EC0AF0480E066E000E3FEC09F041EC02
:1006A8000AF0010E066E000E3FEC09F041EC0AF06C
:1006B800D00E066EFA0E3FEC09F041EC0AF0000E7F
:1006C8006DEC09F0010E93EC09F041EC0AF0020E12
:1006D8006DEC09F0010E93EC09F041EC0AF0010E03
:1006E8006DEC09F0010E93EC09F041EC0AF0030EF1
:1006F8006DEC09F0010E93EC09F041EC0AF01200E0
:10070800000E6DEC09F041EC0AF017EC0AF01F0E30
:1007180093EC09F041EC0AF0280E066E180E3FEC37
:1007280009F041EC0AF0000E066E000E3FEC09F0ED
:1007380041EC0AF0480E066E000E3FEC09F041EC61
:100748000AF0010E066E000E3FEC09F041EC0AF0CB
:10075800D00E066EFA0E3FEC09F041EC0AF0010EDD
:100768006DEC09F041EC0AF017EC0AF01F0E93EC5F
:1007780009F041EC0AF0280E066E180E3FEC09F05D
:1007880041EC0AF0000E066E000E3FEC09F041EC59
:100798000AF0480E066E000E3FEC09F041EC0AF034
:1007A800010E066E000E3FEC09F041EC0AF0D00E87
:1007B800066EFA0E3FEC09F041EC0AF0020E6DEC01
:1007C80009F041EC0AF017EC0AF01F0E93EC09F05F
:1007D80041EC0AF0280E066E180E3FEC09F041ECC9
:1007E8000AF0000E066E000E3FEC09F041EC0AF02C
:1007F800480E066E000E3FEC09F041EC0AF0010EBF
:10080800066E000E3FEC09F041EC0AF0D00E066EC1
:10081800FA0E3FEC09F041EC0AF0030E6DEC09F01A
:1008280041EC0AF017EC0AF01F0E93EC09F041ECCA
:100838000AF0280E066E180E3FEC09F041EC0AF09B
:10084800000E066E000E3FEC09F041EC0AF0480E6F
:10085800066E000E3FEC09F041EC0AF0010E066E40
:10086800000E3FEC09F041EC0AF0D00E066EFA0ECD
:100878003FEC09F041EC0AF0000E6DEC09F0010EB6
:1008880093EC09F041EC0AF0020E6DEC09F0010E50
:1008980093EC09F041EC0AF0010E6DEC09F0010E41
:1008A80093EC09F041EC0AF0030E6DEC09F0010E2F
:1008B80093EC09F041EC0AF01200000E6DEC09F01F
:1008C80041EC0AF017EC0AF01F0E93EC09F041EC2A
:1008D8000AF0280E066E180E3FEC09F041EC0AF0FB
:1008E800000E066E000E3FEC09F041EC0AF0480ECF
:1008F800066E000E3FEC09F041EC0AF0000E066EA1
:10090800000E3FEC09F041EC0AF0680E066EFD0E91
:100918003FEC09F041EC0AF0010E6DEC09F041ECF6
:100928000AF017EC0AF01F0E93EC09F041EC0AF0FC
:10093800280E066E080E3FEC09F041EC0AF0000E96
:10094800066E000E3FEC09F041EC0AF0480E066E08
:10095800000E3FEC09F041EC0AF0010E066E000EA5
:100968003FEC09F041EC0AF0D00E066EFA0E3FECAF
:1009780009F041EC0AF0020E6DEC09F041EC0AF0C6
:1009880017EC0AF01F0E93EC09F041EC0AF0280E60
:10099800066E080E3FEC09F041EC0AF0000E066EF8
:1009A800000E3FEC09F041EC0AF0480E066E000E0E
:1009B8003FEC09F041EC0AF0010E066E000E3FEC28
:1009C80009F041EC0AF0D00E066EFA0E3FEC09F081
:1009D80041EC0AF0030E6DEC09F041EC0AF017EC5B
:1009E8000AF01F0E93EC09F041EC0AF0280E066E8F
:1009F800180E3FEC09F041EC0AF0000E066E000EEE
:100A08003FEC09F041EC0AF0480E066E000E3FEC90
:100A180009F041EC0AF0000E066E000E3FEC09F0FA
:100A280041EC0AF0680E066EFD0E3FEC09F041EC51
:100A38000AF0000E6DEC09F0010E93EC09F041ECA0
:100A48000AF0020E6DEC09F0010E93EC09F041EC8E
:100A58000AF0010E6DEC09F0010E93EC09F041EC7F
:100A68000AF0030E6DEC09F0010E93EC09F041EC6D
:100A78000AF01200000E6DEC09F041EC0AF017ECD8
:100A88000AF01F0E93EC09F041EC0AF0280E066EEE
:100A9800180E3FEC09F041EC0AF0000E066E000E4D
:100AA8003FEC09F041EC0AF0480E066E000E3FECF0
:100AB80009F041EC0AF0010E066E000E3FEC09F059
:100AC80041EC0AF0D00E066EFA0E3FEC09F041EC4C
:100AD8000AF0010E6DEC09F041EC0AF017EC0AF08F
:100AE8001F0E93EC09F041EC0AF0280E066E080E72
:100AF8003FEC09F041EC0AF0000E066E000E3FECE8
:100B080009F041EC0AF0480E066E000E3FEC09F0C1
:100B180041EC0AF0000E066E000E3FEC09F041ECC5
:100B28000AF0680E066EFD0E3FEC09F041EC0AF083
:100B3800020E6DEC09F041EC0AF017EC0AF01F0EFA
:100B480093EC09F041EC0AF0280E066E080E3FEC13
:100B580009F041EC0AF0000E066E000E3FEC09F0B9
:100B680041EC0AF0480E066E000E3FEC09F041EC2D
:100B78000AF0000E066E000E3FEC09F041EC0AF098
:100B8800680E066EFD0E3FEC09F041EC0AF0030E0C
:100B98006DEC09F041EC0AF017EC0AF01F0E93EC2B
:100BA80009F041EC0AF0280E066E180E3FEC09F029
:100BB80041EC0AF0000E066E000E3FEC09F041EC25
:100BC8000AF0480E066E000E3FEC09F041EC0AF000
:100BD800010E066E000E3FEC09F041EC0AF0D00E53
:100BE800066EFA0E3FEC09F041EC0AF0000E6DECCF
:100BF80009F0010E93EC09F041EC0AF0020E6DECDD
:100C080009F0010E93EC09F041EC0AF0010E6DECCD
:100C180009F0010E93EC09F041EC0AF0030E6DECBB
:100C280009F0010E93EC09F041EC0AF01200000EF5
:100C38006DEC09F041EC0AF017EC0AF01F0E93EC8A
:100C480009F041EC0AF0280E066E180E3FEC09F088
:100C580041EC0AF0000E066E000E3FEC09F041EC84
:100C68000AF0480E066E000E3FEC09F041EC0AF05F
:100C7800010E066E000E3FEC09F041EC0AF0D00EB2
:100C8800066EFA0E3FEC09F041EC0AF0010E6DEC2D
:100C980009F041EC0AF017EC0AF01F0E93EC09F08A
:100CA80041EC0AF0280E066E080E3FEC09F041EC04
:100CB8000AF0000E066E000E3FEC09F041EC0AF057
:100CC800480E066E000E3FEC09F041EC0AF0010EEA
:100CD800066E000E3FEC09F041EC0AF0D00E066EED
:100CE800FA0E3FEC09F041EC0AF0020E6DEC09F047
:100CF80041EC0AF017EC0AF01F0E93EC09F041ECF6
:100D08000AF0280E066E080E3FEC09F041EC0AF0D6
:100D1800000E066E000E3FEC09F041EC0AF0480E9A
:100D2800066E000E3FEC09F041EC0AF0010E066E6B
:100D3800000E3FEC09F041EC0AF0D00E066EFA0EF8
:100D48003FEC09F041EC0AF0030E6DEC09F041ECC0
:100D58000AF017EC0AF01F0E93EC09F041EC0AF0C8
:100D6800280E066E180E3FEC09F041EC0AF0000E52
:100D7800066E000E3FEC09F041EC0AF0480E066ED4
:100D8800000E3FEC09F041EC0AF0010E066E000E71
:100D98003FEC09F041EC0AF0D00E066EFA0E3FEC7B
:100DA80009F041EC0AF0000E6DEC09F0010E93EC2D
:100DB80009F041EC0AF0020E6DEC09F0010E93EC1B
:100DC80009F041EC0AF0010E6DEC09F0010E93EC0C
:100DD80009F041EC0AF0030E6DEC09F0010E93ECFA
:100DE80009F041EC0AF01200046E0450D8A476D041
:100DF80001C002F0010E0216023A02460246825073
:100E08000218BF0B0218826E01C002F0D89002329D
:100E1800010E021602320232825002187F0B0218AB
:100E2800826E01C002F0D8900232D8900232010ED0
:100E38000216023A83500218EF0B0218836E01C0A3
:100E480002F0D8900232D8900232D8900232010EC5
:100E58000216023A024683500218DF0B0218836E0C
:100E680001C002F0023A0F0E0216010E0216023AF3
:100E78000246024683500218BF0B0218836E01C057
:100E880002F0050E036ED8900232032EFCD7010E35
:100E9800021602320232835002187F0B0218836E48
:100EA80001C002F0060E036ED8900232032EFCD762
:100EB800010E021681500218FE0B0218816E026A9A
:100EC80001AE01D0022A010E021602468150021814
:100ED800FD0B0218816E000E056E4BD00428D8A4B5
:100EE80048D081A203D0800E026E01D0026A02505F
:100EF800051281A003D0400E026E01D0026A025092
:100F0800051283AE03D0200E026E01D0026A025091
:100F1800051283AC03D0026A022A01D0026A0238A1
:100F2800F00B051283AA03D0026A022A01D0026AD2
:100F3800D8900236D8900236D8900234051283A889
:100F480003D0026A022A01D0026AD8900236D890E9
:100F58000234051282AE03D0026A022A01D0026A64
:100F6800D8900234051282AC02D0010E01D0000ED6
:100F7800051205501200C30E9316F10E951694949F
:100F8800828483848382818A000E6DEC09F0350E99
:100F9800E82EFED700F0819A0A0EE82EFED700D080
:100FA800818A2A0E086E8E0EE82EFED7082EFCD7F0
:100FB800AFEC09F0096EC40E0918D8B404D0840E39
:100FC8000918D8A4E4D741EC0AF01D0E93EC09F0F7
:100FD80041EC0AF0000E066E000E3FEC09F041EC01
:100FE8000AF0AFEC09F0096EC00E0918D8B404D0A5
:100FF800800E0918D8A4CBD7010E6DEC09F0350E78
:10100800E82EFED700F0819A0A0EE82EFED700D00F
:10101800818A2A0E086E8E0EE82EFED7082EFCD77F
:10102800AFEC09F0096EC40E0918D8B404D0840EC8
:101038000918D8A4E4D741EC0AF01D0E93EC09F086
:1010480041EC0AF0000E066E000E3FEC09F041EC90
:101058000AF0AFEC09F0096EC00E0918D8B404D034
:10106800800E0918D8A4CBD7030E6DEC09F0350E05
:10107800E82EFED700F0819A0A0EE82EFED700D09F
:10108800818A2A0E086E8E0EE82EFED7082EFCD70F
:10109800AFEC09F0096EC40E0918D8B404D0840E58
:1010A8000918D8A4E4D741EC0AF01D0E93EC09F016
:1010B80041EC0AF0000E066E000E3FEC09F041EC20
:1010C8000AF0AFEC09F0096EC00E0918D8B404D0C4
:1010D800800E0918D8A4CBD7000E6DEC09F011ECDE
:1010E80009F0010E6DEC09F011EC09F0020E6DEC3F
:1010F80009F011EC09F0030E6DEC09F011EC09F0A0
:101108001200D09E000EF26E000E0F01386F000E16
:10111800396F000E3A6F000E3B6F000E3C6F000EE9
:10112800C66E000E6C6E000E796E000E786E000EA4
:10113800816E000E926E000E956E000E936E000E7C
:10114800946E000E456F000E476F000E426F000E42
:10115800416F000E9C6EBFEC07F005EC0AF0550ECF
:1011680047EC0AF00BC00AF0770E0A18D8A405D08D
:10117800C6EC09F01BEC06F0F5D7730E0A18D8A4D4
:1011880005D0C6EC09F0A7EC02F0ECD7610E0A18FE
:10119800D8A405D0C6EC09F084EC03F0E3D7640EBC
:1011A8000A18D8A405D0C6EC09F010EC00F0DAD77C
:1011B8006F0E0A18D8A403D0C6EC09F0D3D7620E74
:1011C8000A18D8A403D0DBEC09F0CCD70A50D8B45D
:1011D800F3D7340E0A18D8A405D0C6EC09F061EC90
:1011E80004F0C0D7310E0A18D8A405D0C6EC09F00F
:1011F8003EEC05F0B7D7320E0A18D8A405D0C6ECD5
:1012080009F0CAEC01F0AED7330E0A18D8A4AAD751
:10121800C6EC09F0EDEC00F0A5D71E0E93EC09F032
:1012280041EC0AF00F0E066E000E3FEC09F041EC9F
:101238000AF00F0E066E010E3FEC09F041EC0AF0C1
:10124800040E066E000E3FEC09F041EC0AF0FF0EAA
:10125800066E7F0E3FEC09F041EC0AF0FF0E066EB9
:10126800000E3FEC09F041EC0AF0040E93EC09F093
:1012780041EC0AF01200076E050EE82EFED700F0CA
:10128800000EF0EC09F0828400D000F0839200D0C8
:1012980000D000D000D007C001F0000EF8EC06F036
:1012A80000D000D000F08382030EE82EFED700F0B5
:1012B800839200D000D000F006C001F0000EF8ECD8
:1012C80006F000D000D000F0838200D000F08284C5
:1012D8001200016E0150D8A402D0839618D00104E0
:1012E800D8A403D08386819413D0020E0118D8A401
:1012F80004D08386818480900CD0030E0118D8A472
:1013080005D0838681848080819804D083868184F7
:1013180080808188350EE82EFED700F01200066E18
:10132800000EF0EC09F0829400D000F0839200D017
:1013380000D000F006C001F0000EF8EC06F000D076
:1013480000D000F0838200D000F08284030EE82EE3
:10135800FED700D01200FF0EF0EC09F0829400D006
:1013680000F08394040EE82EFED7000E016EFF0EE7
:10137800F8EC06F0066E838400D000D000F082847A
:1013880006501200000E6DEC09F017EC0AF0010E81
:101398006DEC09F017EC0AF0020E6DEC09F017EC91
:1013A8000AF0030E6DEC09F017EC0AF01200000EBB
:1013B8006DEC09F029EC0AF0010E6DEC09F029EC4E
:1013C8000AF0020E6DEC09F029EC0AF0030E6DEC40
:1013D80009F029EC0AF01200016E0150D8A407D0D8
:1013E8003F0E94160F0E9516FC0E93161200012848
:1013F800D8A41200C00E9412F00E9512030E931288
:101408001200000EC76E240EC66E100ECB6E000EB4
:10141800C26E000EC16E928A9486949A94889D86B4
:10142800F28CF28E12001F0E93EC09F041EC0AF0D8
:10143800000E066E010E3FEC09F041EC0AF0010EB9
:1014480093EC09F041EC0AF012001F0E93EC09F03E
:1014580041EC0AF0000E066E020E3FEC09F041EC7A
:101468000AF0010E93EC09F041EC0AF012000B6A45
:101478000C900C92000185EF08F0AFEC09F0076EB4
:0E14880007A01200FAD7016E01C0C9FF1200C2
:020000040020DA
:08000000FFFFFFFFFFFFFFFF00
:020000040030CA
:0E000000FF32193CFF9181FF0FC00FE00F404F
:00000001FF
