:0400000070EF00F0AD
:100008002182E1CF03F0E2CF04F0D9CF05F0DACFB7
:1000180006F09EA612EF00F014EF00F066EF00F075
:10002800C9CF17F07A0E1718D8A41DEF00F01FEFEC
:1000380000F023EF00F0010E166E4EEF00F0790E7F
:100048001718D8A42AEF00F02CEF00F030EF00F0DA
:10005800000E166E4EEF00F04EEF00F0180E146E04
:10006800000E156E63EF00F014C0D9FF15C0DAFF5B
:1000780017C0DFFF144A152A63EF00F014C0D9FF38
:1000880015C0DAFF14C0E1FF15C0E2FFDFCFE7FFBC
:1000980063EF00F01650016E026A0250000AD8B4ED
:1000A80058EF00F042EF00F00150000AD8B432EFE8
:1000B80000F0010AD8B438EF00F042EF00F09E9645
:1000C800550EC96E06C0DAFF05C0D9FF04C0E2FFAD
:1000D80003C0E1FF21921100DBEF0BF0959494949B
:1000E8009592939A95969394929093988284838408
:1000F8008382818A000E80EC0AF0350EE82EFED746
:1001080000F0819A400EE82EFED7818A2A0E0E6EE4
:100118008E0EE82EFED70E2EFCD75CEC0BF00F6E81
:10012800C40E0F18D8B49BEF00F09DEF00F0A8EFB5
:1001380000F0840E0F18D8B4A4EF00F0A6EF00F07A
:10014800A8EF00F081EF00F0E8EC0BF01D0E40EC9A
:100158000BF0E8EC0BF0000E0C6E000EF2EC0AF05F
:10016800E8EC0BF05CEC0BF00F6EC00E0F18D8B477
:10017800C0EF00F0C2EF00F0CDEF00F0800E0F18D6
:10018800D8B4C9EF00F0CBEF00F0CDEF00F081EF6D
:1001980000F0010E80EC0AF0350EE82EFED700F0D4
:1001A800819A400EE82EFED7818A2A0E0E6E8E0E98
:1001B800E82EFED70E2EFCD75CEC0BF00F6EC40EAB
:1001C8000F18D8B4EAEF00F0ECEF00F0F7EF00F00A
:1001D800840E0F18D8B4F3EF00F0F5EF00F0F7EF46
:1001E80000F0D0EF00F0E8EC0BF01D0E40EC0BF047
:1001F800E8EC0BF0000E0C6E000EF2EC0AF0E8ECE6
:100208000BF05CEC0BF00F6EC00E0F18D8B40FEFAC
:1002180001F011EF01F01CEF01F0800E0F18D8B4B7
:1002280018EF01F01AEF01F01CEF01F0D0EF00F029
:10023800020E80EC0AF0350EE82EFED700F0819A07
:10024800400EE82EFED7818A2A0E0E6E8E0EE82EFC
:10025800FED70E2EFCD75CEC0BF00F6EC40E0F18F9
:10026800D8B439EF01F03BEF01F046EF01F0840E0E
:100278000F18D8B442EF01F044EF01F046EF01F057
:100288001FEF01F0E8EC0BF01D0E40EC0BF0E8EC72
:100298000BF0000E0C6E000EF2EC0AF0E8EC0BF01E
:1002A8005CEC0BF00F6EC00E0F18D8B45EEF01F0C7
:1002B80060EF01F06BEF01F0800E0F18D8B467EF14
:1002C80001F069EF01F06BEF01F01FEF01F0030E91
:1002D80080EC0AF0350EE82EFED700F0819A400E29
:1002E800E82EFED7818A2A0E0E6E8E0EE82EFED7D5
:1002F8000E2EFCD75CEC0BF00F6EC40E0F18D8B4A2
:1003080088EF01F08AEF01F095EF01F0840E0F18E5
:10031800D8B491EF01F093EF01F095EF01F06EEF93
:1003280001F0E8EC0BF01D0E40EC0BF0E8EC0BF0E4
:10033800000E0C6E000EF2EC0AF0E8EC0BF05CEC30
:100348000BF00F6EC00E0F18D8B4ADEF01F0AFEF81
:1003580001F0BAEF01F0800E0F18D8B4B6EF01F033
:10036800B8EF01F0BAEF01F06EEF01F0000E80EC8B
:100378000AF0C4EC0AF0010E80EC0AF0C4EC0AF0B2
:10038800020E80EC0AF0C4EC0AF0030E80EC0AF0CE
:10039800C4EC0AF012000A6E0A50D8A4D6EF01F095
:1003A800D8EF01F051EF02F007C008F0010E08166F
:1003B800083A0846084682500818BF0B0818826E8B
:1003C80007C008F0D8900832010E08160832083223
:1003D800825008187F0B0818826E07C008F0D89062
:1003E8000832D8900832010E0816083A83500818C7
:1003F800EF0B0818836E07C008F0D8900832D89021
:100408000832D8900832010E0816083A0846835078
:100418000818DF0B0818836E07C008F0083A0F0E9B
:100428000816010E0816083A0846084683500818A8
:10043800BF0B0818836E07C008F0050E096ED89028
:100448000832092E23EF02F0010E0816083208328E
:10045800835008187F0B0818836E07C008F0060E33
:10046800096ED8900832092E35EF02F0010E0816F1
:1004780081500818FE0B0818816E086A07AE01D073
:10048800082A010E0816084681500818FD0B08189E
:10049800816E000E0B6EC5EF02F00A28D8A457EF44
:1004A80002F059EF02F0C5EF02F081B25EEF02F000
:1004B80061EF02F0010E62EF02F0000E0B1281B044
:1004C80068EF02F06CEF02F0086A082A6DEF02F09C
:1004D800086A0B500B2408100B6E83BE76EF02F0EF
:1004E8007AEF02F0086A082A7BEF02F0086A0B50DC
:1004F8000B2408100B6E83BC84EF02F088EF02F027
:10050800086A082A89EF02F0086A0B500B240810C1
:100518000B6E83BA92EF02F096EF02F0086A082A8F
:1005280097EF02F0086A0B500B2408100B6E83B883
:10053800A0EF02F0A4EF02F0086A082AA5EF02F083
:10054800086A0B500B2408100B6E82BEAEEF02F047
:10055800B2EF02F0086A082AB3EF02F0086A0B50FB
:100568000B2408100B6E82BCBCEF02F0C0EF02F047
:10057800086A082AC1EF02F0086A0B500B24081019
:100588000B6E0B501200000E80EC0AF0E8EC0BF03A
:10059800B7EC0BF01F0E40EC0BF0E8EC0BF0280E5C
:1005A8000C6E080EF2EC0AF0E8EC0BF0000E0C6E84
:1005B800000EF2EC0AF0E8EC0BF0480E0C6E000EA0
:1005C800F2EC0AF0E8EC0BF0010E0C6E000EF2EC07
:1005D8000AF0E8EC0BF0D00E0C6EFA0EF2EC0AF012
:1005E800E8EC0BF0010E80EC0AF0E8EC0BF0B7EC4D
:1005F8000BF01F0E40EC0BF0E8EC0BF0280E0C6E25
:10060800080EF2EC0AF0E8EC0BF0000E0C6E000E8F
:10061800F2EC0AF0E8EC0BF0480E0C6E000EF2EC6F
:100628000AF0E8EC0BF0010E0C6E000EF2EC0AF08A
:10063800E8EC0BF0D00E0C6EFA0EF2EC0AF0E8ECD7
:100648000BF0020E80EC0AF0E8EC0BF0B7EC0BF0C4
:100658001F0E40EC0BF0E8EC0BF0280E0C6E080EA9
:10066800F2EC0AF0E8EC0BF0000E0C6E000EF2EC67
:100678000AF0E8EC0BF0480E0C6E000EF2EC0AF0F3
:10068800E8EC0BF0010E0C6E000EF2EC0AF0E8EC50
:100698000BF0D00E0C6EFA0EF2EC0AF0E8EC0BF050
:1006A800030E80EC0AF0E8EC0BF0B7EC0BF01F0E31
:1006B80040EC0BF0E8EC0BF0280E0C6E080EF2EC98
:1006C8000AF0E8EC0BF0000E0C6E000EF2EC0AF0EB
:1006D800E8EC0BF0480E0C6E000EF2EC0AF0E8ECB9
:1006E8000BF0010E0C6E000EF2EC0AF0E8EC0BF0C9
:1006F800D00E0C6EFA0EF2EC0AF0E8EC0BF0000EDD
:1007080080EC0AF0010E40EC0BF0E8EC0BF0020E66
:1007180080EC0AF0010E40EC0BF0E8EC0BF0010E57
:1007280080EC0AF0010E40EC0BF0E8EC0BF0030E45
:1007380080EC0AF0010E40EC0BF0E8EC0BF0120034
:10074800010E80EC0AF0E8EC0BF0B7EC0BF01F0E92
:1007580040EC0BF0E8EC0BF0280E0C6E180EF2ECE7
:100768000AF0E8EC0BF0000E0C6E000EF2EC0AF04A
:10077800E8EC0BF0480E0C6E000EF2EC0AF0E8EC18
:100788000BF0000E0C6E000EF2EC0AF0E8EC0BF029
:10079800680E0C6EFD0EF2EC0AF0E8EC0BF0000EA1
:1007A80080EC0AF0E8EC0BF0B7EC0BF01F0E40EC15
:1007B8000BF0E8EC0BF0280E0C6E080EF2EC0AF0C9
:1007C800E8EC0BF0000E0C6E000EF2EC0AF0E8EC10
:1007D8000BF0480E0C6E000EF2EC0AF0E8EC0BF091
:1007E800010E0C6E000EF2EC0AF0E8EC0BF0D00EE5
:1007F8000C6EFA0EF2EC0AF0E8EC0BF0030E80EC4B
:100808000AF0E8EC0BF0B7EC0BF01F0E40EC0BF025
:10081800E8EC0BF0280E0C6E080EF2EC0AF0E8EC8F
:100828000BF0000E0C6E000EF2EC0AF0E8EC0BF088
:10083800480E0C6E000EF2EC0AF0E8EC0BF0010E1C
:100848000C6E000EF2EC0AF0E8EC0BF0D00E0C6E19
:10085800FA0EF2EC0AF0E8EC0BF0020E80EC0AF06B
:10086800E8EC0BF0B7EC0BF01F0E40EC0BF0E8ECEB
:100878000BF0280E0C6E180EF2EC0AF0E8EC0BF0F8
:10088800000E0C6E000EF2EC0AF0E8EC0BF0480ECD
:100898000C6E000EF2EC0AF0E8EC0BF0000E0C6E99
:1008A800000EF2EC0AF0E8EC0BF0680E0C6EFD0E90
:1008B800F2EC0AF0E8EC0BF0000E80EC0AF0010E06
:1008C80040EC0BF0E8EC0BF0020E80EC0AF0010EA5
:1008D80040EC0BF0E8EC0BF0010E80EC0AF0010E96
:1008E80040EC0BF0E8EC0BF0030E80EC0AF0010E84
:1008F80040EC0BF0E8EC0BF01200010E80EC0AF073
:10090800E8EC0BF0B7EC0BF01F0E40EC0BF0E8EC4A
:100918000BF0280E0C6E180EF2EC0AF0E8EC0BF057
:10092800000E0C6E000EF2EC0AF0E8EC0BF0480E2C
:100938000C6E000EF2EC0AF0E8EC0BF0010E0C6EF7
:10094800000EF2EC0AF0E8EC0BF0D00E0C6EFA0E8A
:10095800F2EC0AF0E8EC0BF0000E80EC0AF0E8ECA0
:100968000BF0B7EC0BF01F0E40EC0BF0E8EC0BF0C3
:10097800280E0C6E080EF2EC0AF0E8EC0BF0000EF4
:100988000C6E000EF2EC0AF0E8EC0BF0480E0C6E60
:10099800000EF2EC0AF0E8EC0BF0000E0C6E000E04
:1009A800F2EC0AF0E8EC0BF0680E0C6EFD0EF2ECBF
:1009B8000AF0E8EC0BF0030E80EC0AF0E8EC0BF020
:1009C800B7EC0BF01F0E40EC0BF0E8EC0BF0280E28
:1009D8000C6E080EF2EC0AF0E8EC0BF0000E0C6E50
:1009E800000EF2EC0AF0E8EC0BF0480E0C6E000E6C
:1009F800F2EC0AF0E8EC0BF0000E0C6E000EF2ECD4
:100A08000AF0E8EC0BF0680E0C6EFD0EF2EC0AF042
:100A1800E8EC0BF0020E80EC0AF0E8EC0BF0B7EC17
:100A28000BF01F0E40EC0BF0E8EC0BF0280E0C6EF0
:100A3800180EF2EC0AF0E8EC0BF0000E0C6E000E4B
:100A4800F2EC0AF0E8EC0BF0480E0C6E000EF2EC3B
:100A58000AF0E8EC0BF0010E0C6E000EF2EC0AF056
:100A6800E8EC0BF0D00E0C6EFA0EF2EC0AF0E8ECA3
:100A78000BF0000E80EC0AF0010E40EC0BF0E8ECF5
:100A88000BF0020E80EC0AF0010E40EC0BF0E8ECE3
:100A98000BF0010E80EC0AF0010E40EC0BF0E8ECD4
:100AA8000BF0030E80EC0AF0010E40EC0BF0E8ECC2
:100AB8000BF01200010E80EC0AF0E8EC0BF0B7EC3A
:100AC8000BF01F0E40EC0BF0E8EC0BF0280E0C6E50
:100AD800180EF2EC0AF0E8EC0BF0000E0C6E000EAB
:100AE800F2EC0AF0E8EC0BF0480E0C6E000EF2EC9B
:100AF8000AF0E8EC0BF0010E0C6E000EF2EC0AF0B6
:100B0800E8EC0BF0D00E0C6EFA0EF2EC0AF0E8EC02
:100B18000BF0000E80EC0AF0E8EC0BF0B7EC0BF0F1
:100B28001F0E40EC0BF0E8EC0BF0280E0C6E080ED4
:100B3800F2EC0AF0E8EC0BF0000E0C6E000EF2EC92
:100B48000AF0E8EC0BF0480E0C6E000EF2EC0AF01E
:100B5800E8EC0BF0010E0C6E000EF2EC0AF0E8EC7B
:100B68000BF0D00E0C6EFA0EF2EC0AF0E8EC0BF07B
:100B7800030E80EC0AF0E8EC0BF0B7EC0BF01F0E5C
:100B880040EC0BF0E8EC0BF0280E0C6E080EF2ECC3
:100B98000AF0E8EC0BF0000E0C6E000EF2EC0AF016
:100BA800E8EC0BF0480E0C6E000EF2EC0AF0E8ECE4
:100BB8000BF0010E0C6E000EF2EC0AF0E8EC0BF0F4
:100BC800D00E0C6EFA0EF2EC0AF0E8EC0BF0020E06
:100BD80080EC0AF0E8EC0BF0B7EC0BF01F0E40ECE1
:100BE8000BF0E8EC0BF0280E0C6E180EF2EC0AF085
:100BF800E8EC0BF0000E0C6E000EF2EC0AF0E8ECDC
:100C08000BF0480E0C6E000EF2EC0AF0E8EC0BF05C
:100C1800010E0C6E000EF2EC0AF0E8EC0BF0D00EB0
:100C28000C6EFA0EF2EC0AF0E8EC0BF0000E80EC19
:100C38000AF0010E40EC0BF0E8EC0BF0020E80EC31
:100C48000AF0010E40EC0BF0E8EC0BF0010E80EC22
:100C58000AF0010E40EC0BF0E8EC0BF0030E80EC10
:100C68000AF0010E40EC0BF0E8EC0BF01200000E5D
:100C780080EC0AF0E8EC0BF0B7EC0BF01F0E40EC40
:100C88000BF0E8EC0BF0280E0C6E180EF2EC0AF0E4
:100C9800E8EC0BF0000E0C6E000EF2EC0AF0E8EC3B
:100CA8000BF0480E0C6E000EF2EC0AF0E8EC0BF0BC
:100CB800010E0C6E000EF2EC0AF0E8EC0BF0D00E10
:100CC8000C6EFA0EF2EC0AF0E8EC0BF0010E80EC78
:100CD8000AF0E8EC0BF0B7EC0BF01F0E40EC0BF051
:100CE800E8EC0BF0280E0C6E180EF2EC0AF0E8ECAB
:100CF8000BF0000E0C6E000EF2EC0AF0E8EC0BF0B4
:100D0800480E0C6E000EF2EC0AF0E8EC0BF0010E47
:100D18000C6E000EF2EC0AF0E8EC0BF0D00E0C6E44
:100D2800FA0EF2EC0AF0E8EC0BF0020E80EC0AF096
:100D3800E8EC0BF0B7EC0BF01F0E40EC0BF0E8EC16
:100D48000BF0280E0C6E180EF2EC0AF0E8EC0BF023
:100D5800000E0C6E000EF2EC0AF0E8EC0BF0480EF8
:100D68000C6E000EF2EC0AF0E8EC0BF0010E0C6EC3
:100D7800000EF2EC0AF0E8EC0BF0D00E0C6EFA0E56
:100D8800F2EC0AF0E8EC0BF0030E80EC0AF0E8EC69
:100D98000BF0B7EC0BF01F0E40EC0BF0E8EC0BF08F
:100DA800280E0C6E180EF2EC0AF0E8EC0BF0000EB0
:100DB8000C6E000EF2EC0AF0E8EC0BF0480E0C6E2C
:100DC800000EF2EC0AF0E8EC0BF0010E0C6E000ECF
:100DD800F2EC0AF0E8EC0BF0D00E0C6EFA0EF2EC26
:100DE8000AF0E8EC0BF0000E80EC0AF0010E40EC83
:100DF8000BF0E8EC0BF0020E80EC0AF0010E40EC70
:100E08000BF0E8EC0BF0010E80EC0AF0010E40EC60
:100E18000BF0E8EC0BF0030E80EC0AF0010E40EC4E
:100E28000BF0E8EC0BF01200000E80EC0AF0E8EC96
:100E38000BF0B7EC0BF01F0E40EC0BF0E8EC0BF0EE
:100E4800280E0C6E180EF2EC0AF0E8EC0BF0000E0F
:100E58000C6E000EF2EC0AF0E8EC0BF0480E0C6E8B
:100E6800000EF2EC0AF0E8EC0BF0000E0C6E000E2F
:100E7800F2EC0AF0E8EC0BF0680E0C6EFD0EF2ECEA
:100E88000AF0E8EC0BF0010E80EC0AF0E8EC0BF04D
:100E9800B7EC0BF01F0E40EC0BF0E8EC0BF0280E53
:100EA8000C6E080EF2EC0AF0E8EC0BF0000E0C6E7B
:100EB800000EF2EC0AF0E8EC0BF0480E0C6E000E97
:100EC800F2EC0AF0E8EC0BF0010E0C6E000EF2ECFE
:100ED8000AF0E8EC0BF0D00E0C6EFA0EF2EC0AF009
:100EE800E8EC0BF0020E80EC0AF0E8EC0BF0B7EC43
:100EF8000BF01F0E40EC0BF0E8EC0BF0280E0C6E1C
:100F0800080EF2EC0AF0E8EC0BF0000E0C6E000E86
:100F1800F2EC0AF0E8EC0BF0480E0C6E000EF2EC66
:100F28000AF0E8EC0BF0010E0C6E000EF2EC0AF081
:100F3800E8EC0BF0D00E0C6EFA0EF2EC0AF0E8ECCE
:100F48000BF0030E80EC0AF0E8EC0BF0B7EC0BF0BA
:100F58001F0E40EC0BF0E8EC0BF0280E0C6E180E90
:100F6800F2EC0AF0E8EC0BF0000E0C6E000EF2EC5E
:100F78000AF0E8EC0BF0480E0C6E000EF2EC0AF0EA
:100F8800E8EC0BF0000E0C6E000EF2EC0AF0E8EC48
:100F98000BF0680E0C6EFD0EF2EC0AF0E8EC0BF0AC
:100FA800000E80EC0AF0010E40EC0BF0E8EC0BF0C0
:100FB800020E80EC0AF0010E40EC0BF0E8EC0BF0AE
:100FC800010E80EC0AF0010E40EC0BF0E8EC0BF09F
:100FD800030E80EC0AF0010E40EC0BF0E8EC0BF08D
:100FE8001200000E80EC0AF0E8EC0BF0B7EC0BF006
:100FF8001F0E40EC0BF0E8EC0BF0280E0C6E180EF0
:10100800F2EC0AF0E8EC0BF0000E0C6E000EF2ECBD
:101018000AF0E8EC0BF0480E0C6E000EF2EC0AF049
:10102800E8EC0BF0010E0C6E000EF2EC0AF0E8ECA6
:101038000BF0D00E0C6EFA0EF2EC0AF0E8EC0BF0A6
:10104800010E80EC0AF0E8EC0BF0B7EC0BF01F0E89
:1010580040EC0BF0E8EC0BF0280E0C6E080EF2ECEE
:101068000AF0E8EC0BF0000E0C6E000EF2EC0AF041
:10107800E8EC0BF0480E0C6E000EF2EC0AF0E8EC0F
:101088000BF0000E0C6E000EF2EC0AF0E8EC0BF020
:10109800680E0C6EFD0EF2EC0AF0E8EC0BF0020E96
:1010A80080EC0AF0E8EC0BF0B7EC0BF01F0E40EC0C
:1010B8000BF0E8EC0BF0280E0C6E080EF2EC0AF0C0
:1010C800E8EC0BF0000E0C6E000EF2EC0AF0E8EC07
:1010D8000BF0480E0C6E000EF2EC0AF0E8EC0BF088
:1010E800000E0C6E000EF2EC0AF0E8EC0BF0680E45
:1010F8000C6EFD0EF2EC0AF0E8EC0BF0030E80EC3F
:101108000AF0E8EC0BF0B7EC0BF01F0E40EC0BF01C
:10111800E8EC0BF0280E0C6E180EF2EC0AF0E8EC76
:101128000BF0000E0C6E000EF2EC0AF0E8EC0BF07F
:10113800480E0C6E000EF2EC0AF0E8EC0BF0010E13
:101148000C6E000EF2EC0AF0E8EC0BF0D00E0C6E10
:10115800FA0EF2EC0AF0E8EC0BF0000E80EC0AF064
:10116800010E40EC0BF0E8EC0BF0020E80EC0AF0FC
:10117800010E40EC0BF0E8EC0BF0010E80EC0AF0ED
:10118800010E40EC0BF0E8EC0BF0030E80EC0AF0DB
:10119800010E40EC0BF0E8EC0BF01200000E80ECB6
:1011A8000AF0E8EC0BF0B7EC0BF01F0E40EC0BF07C
:1011B800E8EC0BF0280E0C6E180EF2EC0AF0E8ECD6
:1011C8000BF0000E0C6E000EF2EC0AF0E8EC0BF0DF
:1011D800480E0C6E000EF2EC0AF0E8EC0BF0010E73
:1011E8000C6E000EF2EC0AF0E8EC0BF0D00E0C6E70
:1011F800FA0EF2EC0AF0E8EC0BF0010E80EC0AF0C3
:10120800E8EC0BF0B7EC0BF01F0E40EC0BF0E8EC41
:101218000BF0280E0C6E080EF2EC0AF0E8EC0BF05E
:10122800000E0C6E000EF2EC0AF0E8EC0BF0480E23
:101238000C6E000EF2EC0AF0E8EC0BF0010E0C6EEE
:10124800000EF2EC0AF0E8EC0BF0D00E0C6EFA0E81
:10125800F2EC0AF0E8EC0BF0020E80EC0AF0E8EC95
:101268000BF0B7EC0BF01F0E40EC0BF0E8EC0BF0BA
:10127800280E0C6E080EF2EC0AF0E8EC0BF0000EEB
:101288000C6E000EF2EC0AF0E8EC0BF0480E0C6E57
:10129800000EF2EC0AF0E8EC0BF0010E0C6E000EFA
:1012A800F2EC0AF0E8EC0BF0D00E0C6EFA0EF2EC51
:1012B8000AF0E8EC0BF0030E80EC0AF0E8EC0BF017
:1012C800B7EC0BF01F0E40EC0BF0E8EC0BF0280E1F
:1012D8000C6E180EF2EC0AF0E8EC0BF0000E0C6E37
:1012E800000EF2EC0AF0E8EC0BF0480E0C6E000E63
:1012F800F2EC0AF0E8EC0BF0010E0C6E000EF2ECCA
:101308000AF0E8EC0BF0D00E0C6EFA0EF2EC0AF0D4
:10131800E8EC0BF0000E80EC0AF0010E40EC0BF04C
:10132800E8EC0BF0020E80EC0AF0010E40EC0BF03A
:10133800E8EC0BF0010E80EC0AF0010E40EC0BF02B
:10134800E8EC0BF0030E80EC0AF0010E40EC0BF019
:10135800E8EC0BF01200550E126ED09E000EF26EE5
:10136800000E0F01386F000E396F000E3A6F000E35
:101378003B6F000E3C6F000EC66E000E6C6E000ECA
:10138800796E000E786E9268956893689468000E7E
:10139800456F000E476F000E426F000E416F000E42
:1013A8009C6E520E116E2B0E106E000EE82EFED79C
:1013B800102EFCD7112EFAD700D072EC00F077EC83
:1013C8000BF0550EF3EC0BF017C013F0770E131853
:1013D800D8A4F1EF09F0F3EF09F0F9EF09F08DEC7B
:1013E8000BF0D2EC08F0E8EF09F0730E1318D8A44C
:1013F80000EF0AF002EF0AF008EF0AF08DEC0BF0AC
:101408005EEC05F0E8EF09F0610E1318D8A40FEFB1
:101418000AF011EF0AF017EF0AF08DEC0BF03BEC35
:1014280006F0E8EF09F0640E1318D8A41EEF0AF0CE
:1014380020EF0AF026EF0AF08DEC0BF0C7EC02F073
:10144800E8EF09F0620E1318D8A42DEF0AF02FEF79
:101458000AF033EF0AF0A2EC0BF0E8EF09F0300ED7
:101468001318D8A43AEF0AF03CEF0AF040EF0AF05C
:101478008DEC0BF0E8EF09F0340E1318D8A447EF01
:101488000AF049EF0AF04FEF0AF08DEC0BF018EC78
:1014980007F0E8EF09F0310E1318D8A456EF0AF058
:1014A80058EF0AF05EEF0AF08DEC0BF0F5EC07F060
:1014B800E8EF09F0320E1318D8A465EF0AF067EFC9
:1014C8000AF06DEF0AF08DEC0BF081EC04F0E8EF18
:1014D80009F0330E1318D8A474EF0AF076EF0AF067
:1014E8007CEF0AF08DEC0BF0A4EC03F0E8EF09F0C8
:1014F800E8EF09F070EF00F0076E0750D8A487EF07
:101508000AF089EF0AF08FEF0AF0839681848080D1
:101518008188BFEF0AF00704D8A495EF0AF097EF87
:101528000AF09DEF0AF08386819480808188BFEF5E
:101538000AF0020E0718D8A4A4EF0AF0A6EF0AF0E2
:10154800ACEF0AF08386818480908188BFEF0AF02F
:10155800030E0718D8A4B3EF0AF0B5EF0AF0BBEFF3
:101568000AF08386818480808198BFEF0AF08386A1
:10157800818480808188350EE82EFED700F0120025
:101588001E0E40EC0BF0E8EC0BF00F0E0C6E000E8C
:10159800F2EC0AF0E8EC0BF00F0E0C6E010EF2EC18
:1015A8000AF0E8EC0BF0040E0C6E000EF2EC0AF0F8
:1015B800E8EC0BF0FF0E0C6E7F0EF2EC0AF0E8EC94
:1015C8000BF0FF0E0C6E000EF2EC0AF0E8EC0BF0DC
:1015D800040E40EC0BF0E8EC0BF012000D6E050E5B
:1015E800E82EFED700F0000E20EC0BF0828400D02D
:1015F80000F0839200D000D000D000D00DC007F0DA
:10160800000ECFEC01F000D000D000F08382030E72
:10161800E82EFED700F0839200D000D000F00CC076
:1016280007F0000ECFEC01F000D000D000F083826C
:1016380000D000F082841200076E0750D8A427EF6C
:101648000BF029EF0BF031EF0BF03F0E94160F0E55
:101658009516FC0E93163FEF0BF00728D8A437EF2A
:101668000BF039EF0BF03FEF0BF0C00E9412F00EB9
:101678009512030E931212000C6E000E20EC0BF064
:10168800829400D000F0839200D000D000F00CC00B
:1016980007F0000ECFEC01F000D000D000F08382FC
:1016A80000D000F08284030EE82EFED700D012008E
:1016B800FF0E20EC0BF08294050EE82EFED700F00A
:1016C8008394050EE82EFED700F0000E076EFF0E7D
:1016D800CFEC01F00C6E83841A0EE82EFED700D0F2
:1016E80082840C501200C79EC78CC698C650F00B57
:1016F8000409C66E100ECB6E000EC26E000EC16ECF
:10170800928A9486949A94889D86F28CF28EC68AE0
:101718001200000E80EC0AF0B7EC0BF0010E80EC22
:101728000AF0B7EC0BF0020E80EC0AF0B7EC0BF005
:10173800030E80EC0AF0B7EC0BF01200000E80EC00
:101748000AF0C9EC0BF0010E80EC0AF0C9EC0BF0C2
:10175800020E80EC0AF0C9EC0BF0030E80EC0AF0E4
:10176800C9EC0BF012001F0E40EC0BF0E8EC0BF08C
:10177800000E0C6E010EF2EC0AF0E8EC0BF0010E14
:1017880040EC0BF0E8EC0BF012001F0E40EC0BF0F5
:10179800E8EC0BF0000E0C6E020EF2EC0AF0E8EC2E
:1017A8000BF0010E40EC0BF0E8EC0BF0120000EE31
:1017B80014F00D0EEE6AE806FDE121902192000E6C
:1017C800F86E0001AFEF09F05CEC0BF00D6E0DB098
:1017D800F0EF0BF0F2EF0BF0E8EF0BF01200076EF2
:0617E80007C0C9FF12005A
:020000040020DA
:08000000FFFFFFFFFFFFFFFF00
:020000040030CA
:0E000000FF32193CFF9181FF0FC00FE00F404F
:00000001FF
