:0400000070EF00F0AD
:100008002E82E1CF03F0E2CF04F0D9CF05F0DACFAA
:1000180006F09EA612EF00F014EF00F066EF00F075
:10002800C9CF27F07A0E2718D8A41DEF00F01FEFCC
:1000380000F023EF00F0010E266E4EEF00F0790E6F
:100048002718D8A42AEF00F02CEF00F030EF00F0CA
:10005800000E266E4EEF00F04EEF00F0280E246ED4
:10006800000E256E63EF00F024C0D9FF25C0DAFF2B
:1000780027C0DFFF244A252A63EF00F024C0D9FFF8
:1000880025C0DAFF24C0E1FF25C0E2FFDFCFE7FF8C
:1000980063EF00F02650016E026A0250000AD8B4DD
:1000A80058EF00F042EF00F00150000AD8B432EFE8
:1000B80000F0010AD8B438EF00F042EF00F09E9645
:1000C800550EC96E06C0DAFF05C0D9FF04C0E2FFAD
:0C00D80003C0E1FF2E921100B4EF0CF009
:1010000000E3530000A54E0000664900002844009C
:1010100000EA3E0000AC3900006E340000302F00C2
:1010200000F1290000B3240000751F0000371A00EA
:1010300000F9140000BB0F00007C0A00003E050010
:101040000000000000980500002F0B0000C71000F2
:10105000005F160000F61B00008E2100002627000E
:1010600000BD2C000055320000ED370000843D002B
:10107000001C430000B44800004B4E0000E3530046
:101080000000959494949592939A95969394929047
:101090009398828483848382818A000E6BEC0BF0A8
:1010A000350EE82EFED700F0819A400EE82EFED7CE
:1010B000818A2A0E1A6E8E0EE82EFED71A2EFCD7C3
:1010C00086EC0CF01B6EC40E1B18D8B46AEF08F047
:1010D0006CEF08F077EF08F0840E1B18D8B473EFAC
:1010E00008F075EF08F077EF08F050EF08F0C1EC6A
:1010F0000CF01D0E07EC0CF0C1EC0CF0000E0E6EA7
:10110000000EAFEC0BF0C1EC0CF086EC0CF01B6E9B
:10111000C00E1B18D8B48FEF08F091EF08F09CEFC9
:1011200008F0800E1B18D8B498EF08F09AEF08F07A
:101130009CEF08F050EF08F0010E6BEC0BF0350E51
:10114000E82EFED700F0819A400EE82EFED7818A65
:101150002A0E1A6E8E0EE82EFED71A2EFCD786ECBB
:101160000CF01B6EC40E1B18D8B4B9EF08F0BBEF1F
:1011700008F0C6EF08F0840E1B18D8B4C2EF08F0D0
:10118000C4EF08F0C6EF08F09FEF08F0C1EC0CF0D8
:101190001D0E07EC0CF0C1EC0CF0000E0E6E000EF4
:1011A000AFEC0BF0C1EC0CF086EC0CF01B6EC00E3B
:1011B0001B18D8B4DEEF08F0E0EF08F0EBEF08F012
:1011C000800E1B18D8B4E7EF08F0E9EF08F0EBEF5A
:1011D00008F09FEF08F0020E6BEC0BF0350EE82ED6
:1011E000FED700F0819A400EE82EFED7818A2A0EA3
:1011F0001A6E8E0EE82EFED71A2EFCD786EC0CF057
:101200001B6EC40E1B18D8B408EF09F00AEF09F0E2
:1012100015EF09F0840E1B18D8B411EF09F013EF85
:1012200009F015EF09F0EEEF08F0C1EC0CF01D0E1F
:1012300007EC0CF0C1EC0CF0000E0E6E000EAFECE3
:101240000BF0C1EC0CF086EC0CF01B6EC00E1B1802
:10125000D8B42DEF09F02FEF09F03AEF09F0800E26
:101260001B18D8B436EF09F038EF09F03AEF09F05F
:10127000EEEF08F0030E6BEC0BF0350EE82EFED708
:1012800000F0819A400EE82EFED7818A2A0E1A6E4F
:101290008E0EE82EFED71A2EFCD786EC0CF01B6EB5
:1012A000C40E1B18D8B457EF09F059EF09F064EFDA
:1012B00009F0840E1B18D8B460EF09F062EF09F052
:1012C00064EF09F03DEF09F0C1EC0CF01D0E07ECE6
:1012D0000CF0C1EC0CF0000E0E6E000EAFEC0BF03B
:1012E000C1EC0CF086EC0CF01B6EC00E1B18D8B4D1
:1012F0007CEF09F07EEF09F089EF09F0800E1B18F2
:10130000D8B485EF09F087EF09F089EF09F03DEFD8
:1013100009F0000E6BEC0BF028EC0CF0010E6BECFE
:101320000BF028EC0CF0020E6BEC0BF028EC0CF040
:10133000030E6BEC0BF028EC0CF0500E106E020E4E
:10134000116E000E126E000E136E010EE0EC0BF02B
:10135000500E106E020E116E000E126E000E136E05
:10136000030EE0EC0BF012000A6E0A50D8A4BBEF9B
:1013700009F0BDEF09F036EF0AF007C008F0010EE2
:101380000816083A0846084682500818BF0B081885
:10139000826E07C008F0D8900832010E0816083295
:1013A0000832825008187F0B0818826E07C008F0B8
:1013B000D8900832D8900832010E0816083A8350A7
:1013C0000818EF0B0818836E07C008F0D890083291
:1013D000D8900832D8900832010E0816083A08460C
:1013E00083500818DF0B0818836E07C008F0083A0E
:1013F0000F0E0816010E0816083A084608468350D4
:101400000818BF0B0818836E07C008F0050E096E98
:10141000D8900832092E08EF0AF0010E081608329B
:101420000832835008187F0B0818836E07C008F035
:10143000060E096ED8900832092E1AEF0AF0010E36
:10144000081681500818FE0B0818816E086A07AE4E
:1014500001D0082A010E0816084681500818FD0B15
:101460000818816E000E0B6EAAEF0AF00A28D8A4A5
:101470003CEF0AF03EEF0AF0AAEF0AF081B243EF28
:101480000AF046EF0AF0010E47EF0AF0000E0B12C9
:1014900081B04DEF0AF051EF0AF0086A082A52EFC6
:1014A0000AF0086A0B500B2408100B6E83BE5BEF2A
:1014B0000AF05FEF0AF0086A082A60EF0AF0086A8B
:1014C0000B500B2408100B6E83BC69EF0AF06DEF14
:1014D0000AF0086A082A6EEF0AF0086A0B500B241B
:1014E00008100B6E83BA77EF0AF07BEF0AF0086AF8
:1014F000082A7CEF0AF0086A0B500B2408100B6EC8
:1015000083B885EF0AF089EF0AF0086A082A8AEFA3
:101510000AF0086A0B500B2408100B6E82BE93EF82
:101520000AF097EF0AF0086A082A98EF0AF0086AAA
:101530000B500B2408100B6E82BCA1EF0AF0A5EF34
:101540000AF0086A082AA6EF0AF0086A0B500B2472
:1015500008100B6E0B501200176E180E186ECAEFA3
:101560000AF0100E1060B7EF0AF0B9EF0AF0BDEF05
:101570000AF00F0E1816DFEF0AF01888DFEF0AF0F6
:101580000F0E1064C6EF0AF0C8EF0AF0BDEF0AF0C4
:10159000B9EF0AF01750116E126A1250000AD8B44F
:1015A000D4EF0AF0DFEF0AF01150010AD8B4C0EF0F
:1015B0000AF0020AD8B4B1EF0AF0DFEF0AF01050D7
:1015C00068EC0CF007C019F008C01AF009C01BF055
:1015D0000AC01CF01CC013F01BC014F01AC015F098
:1015E00019C016F017506BEC0BF01F0E07EC0CF047
:1015F000080E0E6E1850AFEC0BF014C00EF0135026
:10160000AFEC0BF016C00EF01550AFEC0BF0010E66
:1016100007EC0CF0050E6BEC0BF01200550E1F6E74
:10162000D09E000EF26E000E0F01386F000E396F63
:10163000000E3A6F000E3B6F000E3C6F000EC66E40
:10164000000E6C6E000E796E000E786E92689568D2
:1016500093689468000E456F000E476F000E426F4E
:10166000000E416F000E9C6E090E1E6E1E0E1D6E4A
:10167000E40EE82EFED71D2EFCD71E2EFAD700D082
:1016800041EC08F0090E1E6E1E0E1D6EE40EE82ED3
:10169000FED71D2EFCD71E2EFAD700D09EEC0CF0E4
:1016A000550ECCEC0CF029C020F02AC021F02BC044
:1016B00022F02CC023F00A0E2D6E21C010F0010E76
:1016C000ACEC0AF023C010F0030EACEC0AF053EFC0
:1016D0000BF070EF00F0076E0750D8A472EF0BF01C
:1016E00074EF0BF07AEF0BF0839681848080818811
:1016F000AAEF0BF00704D8A480EF0BF082EF0BF0F9
:1017000088EF0BF08386819480808188AAEF0BF0AC
:10171000020E0718D8A48FEF0BF091EF0BF097EFA4
:101720000BF08386818480908188AAEF0BF0030EF2
:101730000718D8A49EEF0BF0A0EF0BF0A6EF0BF06C
:101740008386818480808198AAEF0BF083868184D0
:1017500080808188050EE82EFED700F012000F6E03
:10176000C1EC0CF0000E48EC0CF0828400D000D0EC
:1017700000F0839200D000D000F00FC007F0000E00
:10178000B4EC09F000D000D000F0838200D000D08B
:1017900000F0839200D000D000F00EC007F0000EE1
:1017A000B4EC09F000D000D000F0838200D000D06B
:1017B00000F0828400D000D000F0C1EC0CF01200E8
:1017C000146E200E156E13C016F012C017F011C063
:1017D00018F010C019F014506BEC0BF01F0E07EC52
:1017E0000CF0200E0E6E000EAFEC0BF017C00EF0DA
:1017F0001650AFEC0BF019C00EF01850AFEC0BF018
:10180000010E07EC0CF0050E6BEC0BF012000E6EE7
:10181000C1EC0CF0000E48EC0CF0829400D000D02B
:1018200000F0839200D000D000F00EC007F0000E50
:10183000B4EC09F000D000D000F0838200D000D0DA
:1018400000F0828400D000D000F0C1EC0CF0120057
:101850001E0E07EC0CF00F0E0E6E000EAFEC0BF030
:101860000F0E0E6E010EAFEC0BF0040E0E6E000E9E
:10187000AFEC0BF0FF0E0E6E7F0EAFEC0BF0FF0E19
:101880000E6E000EAFEC0BF0040E07EC0CF0120025
:10189000076E0750D8A44FEF0CF051EF0CF059EF42
:1018A0000CF03F0E94160F0E9516FC0E931667EF74
:1018B0000CF00728D8A45FEF0CF061EF0CF067EF95
:1018C0000CF0C00E9412F00E9512030E931212003B
:1018D0000F6E0F50040D010EF324F66E100EF4205F
:1018E000F76E0900F5CF0BF00900F5CF0CF00900F9
:1018F000F5CF0DF00A00F5CF0EF00BC007F00CC0CD
:1019000008F00DC009F00EC00AF01200FF0E48ECFE
:101910000CF0829400D000F0839400D000D000F04E
:10192000000E076EFF0EB4EC09F00C6E838400D03D
:1019300000F0828400D000F00C501200C79EC78CCB
:10194000C698C650F00B0409C66E100ECB6E000E82
:10195000C26E000EC16E928A9486949A94889D8677
:10196000F28CF28EC68A120000EE20F00E0EEE6AA5
:10197000E806FDE12E902E92000EF86E00010EEFAB
:101980000BF086EC0CF00D6E0DB0C9EF0CF0CBEF48
:101990000CF0C1EF0CF01200076E07C0C9FF120077
:020000040020DA
:08000000FFFFFFFFFFFFFFFF00
:020000040030CA
:0E000000FF32193CFF9181FF0FC00FE00F404F
:00000001FF
