:0400000013EF00F00A
:100008000F829EA60AEF00F00CEF00F011EF00F04F
:10001800C9CF0EF09E96550EC96E0F92110089EF4A
:100028000BF0959494949592939A959693949290B4
:100038009398828483848382818A000E23EC0AF059
:10004800350EE82EFED700F0819A400EE82EFED736
:10005800818A2A0E086E8E0EE82EFED7082EFCD74F
:10006800FFEC0AF0096EC40E0918D8B43EEF00F090
:1000780040EF00F04BEF00F0840E0918D8B447EFBA
:1000880000F049EF00F04BEF00F024EF00F07EECB9
:100098000BF01D0EE3EC0AF07EEC0BF0000E066E82
:1000A800000E95EC0AF07EEC0BF0FFEC0AF0096EFE
:1000B800C00E0918D8B463EF00F065EF00F070EFD8
:1000C80000F0800E0918D8B46CEF00F06EEF00F065
:1000D80070EF00F024EF00F0010E23EC0AF0350E6B
:1000E800E82EFED700F0819A400EE82EFED7818ACE
:1000F8002A0E086E8E0EE82EFED7082EFCD7FFECCF
:100108000AF0096EC40E0918D8B48DEF00F08FEF0D
:1001180000F09AEF00F0840E0918D8B496EF00F0BA
:1001280098EF00F09AEF00F073EF00F07EEC0BF020
:100138001D0EE3EC0AF07EEC0BF0000E066E000ECE
:1001480095EC0AF07EEC0BF0FFEC0AF0096EC00E9D
:100158000918D8B4B2EF00F0B4EF00F0BFEF00F028
:10016800800E0918D8B4BBEF00F0BDEF00F0BFEF68
:1001780000F073EF00F0020E23EC0AF0350EE82EC3
:10018800FED700F0819A400EE82EFED7818A2A0E0B
:10019800086E8E0EE82EFED7082EFCD7FFEC0AF06C
:1001A800096EC40E0918D8B4DCEF00F0DEEF00F0D9
:1001B800E9EF00F0840E0918D8B4E5EF00F0E7EF96
:1001C80000F0E9EF00F0C2EF00F07EEC0BF01D0E3E
:1001D800E3EC0AF07EEC0BF0000E066E000E95ECD8
:1001E8000AF07EEC0BF0FFEC0AF0096EC00E09185D
:1001F800D8B401EF01F003EF01F00EEF01F0800E2B
:100208000918D8B40AEF01F00CEF01F00EEF01F075
:10021800C2EF00F0030E23EC0AF0350EE82EFED7ED
:1002280000F0819A400EE82EFED7818A2A0E086EC9
:100238008E0EE82EFED7082EFCD7FFEC0AF0096ECA
:10024800C40E0918D8B42BEF01F02DEF01F038EFE8
:1002580001F0840E0918D8B434EF01F036EF01F03C
:1002680038EF01F011EF01F07EEC0BF01D0EE3EC1E
:100278000AF07EEC0BF0000E066E000E95EC0AF00C
:100288007EEC0BF0FFEC0AF0096EC00E0918D8B42A
:1002980050EF01F052EF01F05DEF01F0800E091808
:1002A800D8B459EF01F05BEF01F05DEF01F011EF09
:1002B80001F0000E23EC0AF067EC0AF0010E23ECC3
:1002C8000AF067EC0AF0020E23EC0AF067EC0AF079
:1002D800030E23EC0AF067EC0AF01200046E0450D7
:1002E800D8A479EF01F07BEF01F0F4EF01F001C041
:1002F80002F0010E0216023A024602468250021825
:10030800BF0B0218826E01C002F0D8900232010EB3
:10031800021602320232825002187F0B0218826ED5
:1003280001C002F0D8900232D8900232010E0216B3
:10033800023A83500218EF0B0218836E01C002F0D4
:10034800D8900232D8900232D8900232010E0216AA
:10035800023A024683500218DF0B0218836E01C06E
:1003680002F0023A0F0E0216010E0216023A024677
:10037800024683500218BF0B0218836E01C002F0B8
:10038800050E036ED8900232032EC6EF01F0010E5F
:10039800021602320232835002187F0B0218836E53
:1003A80001C002F0060E036ED8900232032ED8EF79
:1003B80001F0010E021681500218FE0B0218816E20
:1003C800026A01AE01D0022A010E021602468150CD
:1003D8000218FD0B0218816E000E056E68EF02F020
:1003E8000428D8A4FAEF01F0FCEF01F068EF02F05E
:1003F80081B201EF02F004EF02F0010E05EF02F006
:10040800000E051281B00BEF02F00FEF02F0026A46
:10041800022A10EF02F0026A055005240210056E48
:1004280083BE19EF02F01DEF02F0026A022A1EEFE6
:1004380002F0026A055005240210056E83BC27EFFE
:1004480002F02BEF02F0026A022A2CEF02F0026A95
:10045800055005240210056E83BA35EF02F039EF16
:1004680002F0026A022A3AEF02F0026A05500524F5
:100478000210056E83B843EF02F047EF02F0026AFC
:10048800022A48EF02F0026A055005240210056EA0
:1004980082BE51EF02F055EF02F0026A022A56EFCF
:1004A80002F0026A055005240210056E82BC5FEF57
:1004B80002F063EF02F0026A022A64EF02F0026AB5
:1004C800055005240210056E05501200000E23EC9D
:1004D8000AF07EEC0BF05AEC0BF01F0EE3EC0AF07E
:1004E8007EEC0BF0280E066E080E95EC0AF07EECFA
:1004F8000BF0000E066E000E95EC0AF07EEC0BF089
:10050800480E066E000E95EC0AF07EEC0BF0010E1C
:10051800066E000E95EC0AF07EEC0BF0D00E066E1F
:10052800FA0E95EC0AF07EEC0BF0010E23EC0AF0C3
:100538007EEC0BF05AEC0BF01F0EE3EC0AF07EECAD
:100548000BF0280E066E080E95EC0AF07EEC0BF008
:10055800000E066E000E95EC0AF07EEC0BF0480ECD
:10056800066E000E95EC0AF07EEC0BF0010E066E9E
:10057800000E95EC0AF07EEC0BF0D00E066EFA0E2B
:1005880095EC0AF07EEC0BF0020E23EC0AF07EEC00
:100598000BF05AEC0BF01F0EE3EC0AF07EEC0BF0BC
:1005A800280E066E080E95EC0AF07EEC0BF0000E95
:1005B800066E000E95EC0AF07EEC0BF0480E066E07
:1005C800000E95EC0AF07EEC0BF0010E066E000EA4
:1005D80095EC0AF07EEC0BF0D00E066EFA0E95EC58
:1005E8000AF07EEC0BF0030E23EC0AF07EEC0BF025
:1005F8005AEC0BF01F0EE3EC0AF07EEC0BF0280E21
:10060800066E080E95EC0AF07EEC0BF0000E066EF6
:10061800000E95EC0AF07EEC0BF0480E066E000E0C
:1006280095EC0AF07EEC0BF0010E066E000E95ECD0
:100638000AF07EEC0BF0D00E066EFA0E95EC0AF07E
:100648007EEC0BF0000E23EC0AF0010EE3EC0AF04E
:100658007EEC0BF0020E23EC0AF0010EE3EC0AF03C
:100668007EEC0BF0010E23EC0AF0010EE3EC0AF02D
:100678007EEC0BF0030E23EC0AF0010EE3EC0AF01B
:100688007EEC0BF01200010E23EC0AF07EEC0BF06E
:100698005AEC0BF01F0EE3EC0AF07EEC0BF0280E80
:1006A800066E180E95EC0AF07EEC0BF0000E066E46
:1006B800000E95EC0AF07EEC0BF0480E066E000E6C
:1006C80095EC0AF07EEC0BF0000E066E000E95EC31
:1006D8000AF07EEC0BF0680E066EFD0E95EC0AF043
:1006E8007EEC0BF0000E23EC0AF07EEC0BF05AECDB
:1006F8000BF01F0EE3EC0AF07EEC0BF0280E066EF2
:10070800080E95EC0AF07EEC0BF0000E066E000E5B
:1007180095EC0AF07EEC0BF0480E066E000E95EC98
:100728000AF07EEC0BF0010E066E000E95EC0AF056
:100738007EEC0BF0D00E066EFA0E95EC0AF07EEC0D
:100748000BF0030E23EC0AF07EEC0BF05AEC0BF0E6
:100758001F0EE3EC0AF07EEC0BF0280E066E080E76
:1007680095EC0AF07EEC0BF0000E066E000E95EC90
:100778000AF07EEC0BF0480E066E000E95EC0AF0BF
:100788007EEC0BF0010E066E000E95EC0AF07EEC86
:100798000BF0D00E066EFA0E95EC0AF07EEC0BF01C
:1007A800020E23EC0AF07EEC0BF05AEC0BF01F0E55
:1007B800E3EC0AF07EEC0BF0280E066E180E95ECB2
:1007C8000AF07EEC0BF0000E066E000E95EC0AF0B7
:1007D8007EEC0BF0480E066E000E95EC0AF07EECEF
:1007E8000BF0000E066E000E95EC0AF07EEC0BF096
:1007F800680E066EFD0E95EC0AF07EEC0BF0000E0E
:1008080023EC0AF0010EE3EC0AF07EEC0BF0020E8A
:1008180023EC0AF0010EE3EC0AF07EEC0BF0010E7B
:1008280023EC0AF0010EE3EC0AF07EEC0BF0030E69
:1008380023EC0AF0010EE3EC0AF07EEC0BF0120058
:10084800010E23EC0AF07EEC0BF05AEC0BF01F0EB5
:10085800E3EC0AF07EEC0BF0280E066E180E95EC11
:100868000AF07EEC0BF0000E066E000E95EC0AF016
:100878007EEC0BF0480E066E000E95EC0AF07EEC4E
:100888000BF0010E066E000E95EC0AF07EEC0BF0F4
:10089800D00E066EFA0E95EC0AF07EEC0BF0000E08
:1008A80023EC0AF07EEC0BF05AEC0BF01F0EE3EC95
:1008B8000AF07EEC0BF0280E066E080E95EC0AF096
:1008C8007EEC0BF0000E066E000E95EC0AF07EEC46
:1008D8000BF0480E066E000E95EC0AF07EEC0BF05D
:1008E800000E066E000E95EC0AF07EEC0BF0680E1A
:1008F800066EFD0E95EC0AF07EEC0BF0030E23EC71
:100908000AF07EEC0BF05AEC0BF01F0EE3EC0AF049
:100918007EEC0BF0280E066E080E95EC0AF07EECC5
:100928000BF0000E066E000E95EC0AF07EEC0BF054
:10093800480E066E000E95EC0AF07EEC0BF0000EE9
:10094800066E000E95EC0AF07EEC0BF0680E066E53
:10095800FD0E95EC0AF07EEC0BF0020E23EC0AF08B
:100968007EEC0BF05AEC0BF01F0EE3EC0AF07EEC79
:100978000BF0280E066E180E95EC0AF07EEC0BF0C4
:10098800000E066E000E95EC0AF07EEC0BF0480E99
:10099800066E000E95EC0AF07EEC0BF0010E066E6A
:1009A800000E95EC0AF07EEC0BF0D00E066EFA0EF7
:1009B80095EC0AF07EEC0BF0000E23EC0AF0010E29
:1009C800E3EC0AF07EEC0BF0020E23EC0AF0010EC9
:1009D800E3EC0AF07EEC0BF0010E23EC0AF0010EBA
:1009E800E3EC0AF07EEC0BF0030E23EC0AF0010EA8
:1009F800E3EC0AF07EEC0BF01200010E23EC0AF097
:100A08007EEC0BF05AEC0BF01F0EE3EC0AF07EECD8
:100A18000BF0280E066E180E95EC0AF07EEC0BF023
:100A2800000E066E000E95EC0AF07EEC0BF0480EF8
:100A3800066E000E95EC0AF07EEC0BF0010E066EC9
:100A4800000E95EC0AF07EEC0BF0D00E066EFA0E56
:100A580095EC0AF07EEC0BF0000E23EC0AF07EEC2D
:100A68000BF05AEC0BF01F0EE3EC0AF07EEC0BF0E7
:100A7800280E066E080E95EC0AF07EEC0BF0000EC0
:100A8800066E000E95EC0AF07EEC0BF0480E066E32
:100A9800000E95EC0AF07EEC0BF0010E066E000ECF
:100AA80095EC0AF07EEC0BF0D00E066EFA0E95EC83
:100AB8000AF07EEC0BF0030E23EC0AF07EEC0BF050
:100AC8005AEC0BF01F0EE3EC0AF07EEC0BF0280E4C
:100AD800066E080E95EC0AF07EEC0BF0000E066E22
:100AE800000E95EC0AF07EEC0BF0480E066E000E38
:100AF80095EC0AF07EEC0BF0010E066E000E95ECFC
:100B08000AF07EEC0BF0D00E066EFA0E95EC0AF0A9
:100B18007EEC0BF0020E23EC0AF07EEC0BF05AECA4
:100B28000BF01F0EE3EC0AF07EEC0BF0280E066EBD
:100B3800180E95EC0AF07EEC0BF0000E066E000E17
:100B480095EC0AF07EEC0BF0480E066E000E95EC64
:100B58000AF07EEC0BF0010E066E000E95EC0AF022
:100B68007EEC0BF0D00E066EFA0E95EC0AF07EECD9
:100B78000BF0000E23EC0AF0010EE3EC0AF07EEC19
:100B88000BF0020E23EC0AF0010EE3EC0AF07EEC07
:100B98000BF0010E23EC0AF0010EE3EC0AF07EECF8
:100BA8000BF0030E23EC0AF0010EE3EC0AF07EECE6
:100BB8000BF01200000E23EC0AF07EEC0BF05AEC5E
:100BC8000BF01F0EE3EC0AF07EEC0BF0280E066E1D
:100BD800180E95EC0AF07EEC0BF0000E066E000E77
:100BE80095EC0AF07EEC0BF0480E066E000E95ECC4
:100BF8000AF07EEC0BF0010E066E000E95EC0AF082
:100C08007EEC0BF0D00E066EFA0E95EC0AF07EEC38
:100C18000BF0010E23EC0AF07EEC0BF05AEC0BF013
:100C28001F0EE3EC0AF07EEC0BF0280E066E180E91
:100C380095EC0AF07EEC0BF0000E066E000E95ECBB
:100C48000AF07EEC0BF0480E066E000E95EC0AF0EA
:100C58007EEC0BF0010E066E000E95EC0AF07EECB1
:100C68000BF0D00E066EFA0E95EC0AF07EEC0BF047
:100C7800020E23EC0AF07EEC0BF05AEC0BF01F0E80
:100C8800E3EC0AF07EEC0BF0280E066E180E95ECDD
:100C98000AF07EEC0BF0000E066E000E95EC0AF0E2
:100CA8007EEC0BF0480E066E000E95EC0AF07EEC1A
:100CB8000BF0010E066E000E95EC0AF07EEC0BF0C0
:100CC800D00E066EFA0E95EC0AF07EEC0BF0030ED1
:100CD80023EC0AF07EEC0BF05AEC0BF01F0EE3EC61
:100CE8000AF07EEC0BF0280E066E180E95EC0AF052
:100CF8007EEC0BF0000E066E000E95EC0AF07EEC12
:100D08000BF0480E066E000E95EC0AF07EEC0BF028
:100D1800010E066E000E95EC0AF07EEC0BF0D00E7C
:100D2800066EFA0E95EC0AF07EEC0BF0000E23EC42
:100D38000AF0010EE3EC0AF07EEC0BF0020E23EC55
:100D48000AF0010EE3EC0AF07EEC0BF0010E23EC46
:100D58000AF0010EE3EC0AF07EEC0BF0030E23EC34
:100D68000AF0010EE3EC0AF07EEC0BF01200000E24
:100D780023EC0AF07EEC0BF05AEC0BF01F0EE3ECC0
:100D88000AF07EEC0BF0280E066E180E95EC0AF0B1
:100D98007EEC0BF0000E066E000E95EC0AF07EEC71
:100DA8000BF0480E066E000E95EC0AF07EEC0BF088
:100DB800000E066E000E95EC0AF07EEC0BF0680E45
:100DC800066EFD0E95EC0AF07EEC0BF0010E23EC9E
:100DD8000AF07EEC0BF05AEC0BF01F0EE3EC0AF075
:100DE8007EEC0BF0280E066E080E95EC0AF07EECF1
:100DF8000BF0000E066E000E95EC0AF07EEC0BF080
:100E0800480E066E000E95EC0AF07EEC0BF0010E13
:100E1800066E000E95EC0AF07EEC0BF0D00E066E16
:100E2800FA0E95EC0AF07EEC0BF0020E23EC0AF0B9
:100E38007EEC0BF05AEC0BF01F0EE3EC0AF07EECA4
:100E48000BF0280E066E080E95EC0AF07EEC0BF0FF
:100E5800000E066E000E95EC0AF07EEC0BF0480EC4
:100E6800066E000E95EC0AF07EEC0BF0010E066E95
:100E7800000E95EC0AF07EEC0BF0D00E066EFA0E22
:100E880095EC0AF07EEC0BF0030E23EC0AF07EECF6
:100E98000BF05AEC0BF01F0EE3EC0AF07EEC0BF0B3
:100EA800280E066E180E95EC0AF07EEC0BF0000E7C
:100EB800066E000E95EC0AF07EEC0BF0480E066EFE
:100EC800000E95EC0AF07EEC0BF0000E066E000E9C
:100ED80095EC0AF07EEC0BF0680E066EFD0E95ECB4
:100EE8000AF07EEC0BF0000E23EC0AF0010EE3ECA6
:100EF8000AF07EEC0BF0020E23EC0AF0010EE3EC94
:100F08000AF07EEC0BF0010E23EC0AF0010EE3EC84
:100F18000AF07EEC0BF0030E23EC0AF0010EE3EC72
:100F28000AF07EEC0BF01200000E23EC0AF07EECC7
:100F38000BF05AEC0BF01F0EE3EC0AF07EEC0BF012
:100F4800280E066E180E95EC0AF07EEC0BF0000EDB
:100F5800066E000E95EC0AF07EEC0BF0480E066E5D
:100F6800000E95EC0AF07EEC0BF0010E066E000EFA
:100F780095EC0AF07EEC0BF0D00E066EFA0E95ECAE
:100F88000AF07EEC0BF0010E23EC0AF07EEC0BF07D
:100F98005AEC0BF01F0EE3EC0AF07EEC0BF0280E77
:100FA800066E080E95EC0AF07EEC0BF0000E066E4D
:100FB800000E95EC0AF07EEC0BF0480E066E000E63
:100FC80095EC0AF07EEC0BF0000E066E000E95EC28
:100FD8000AF07EEC0BF0680E066EFD0E95EC0AF03A
:100FE8007EEC0BF0020E23EC0AF07EEC0BF05AECD0
:100FF8000BF01F0EE3EC0AF07EEC0BF0280E066EE9
:10100800080E95EC0AF07EEC0BF0000E066E000E52
:1010180095EC0AF07EEC0BF0480E066E000E95EC8F
:101028000AF07EEC0BF0000E066E000E95EC0AF04E
:101038007EEC0BF0680E066EFD0E95EC0AF07EEC69
:101048000BF0030E23EC0AF07EEC0BF05AEC0BF0DD
:101058001F0EE3EC0AF07EEC0BF0280E066E180E5D
:1010680095EC0AF07EEC0BF0000E066E000E95EC87
:101078000AF07EEC0BF0480E066E000E95EC0AF0B6
:101088007EEC0BF0010E066E000E95EC0AF07EEC7D
:101098000BF0D00E066EFA0E95EC0AF07EEC0BF013
:1010A800000E23EC0AF0010EE3EC0AF07EEC0BF0E4
:1010B800020E23EC0AF0010EE3EC0AF07EEC0BF0D2
:1010C800010E23EC0AF0010EE3EC0AF07EEC0BF0C3
:1010D800030E23EC0AF0010EE3EC0AF07EEC0BF0B1
:1010E8001200000E23EC0AF07EEC0BF05AEC0BF029
:1010F8001F0EE3EC0AF07EEC0BF0280E066E180EBD
:1011080095EC0AF07EEC0BF0000E066E000E95ECE6
:101118000AF07EEC0BF0480E066E000E95EC0AF015
:101128007EEC0BF0010E066E000E95EC0AF07EECDC
:101138000BF0D00E066EFA0E95EC0AF07EEC0BF072
:10114800010E23EC0AF07EEC0BF05AEC0BF01F0EAC
:10115800E3EC0AF07EEC0BF0280E066E080E95EC18
:101168000AF07EEC0BF0000E066E000E95EC0AF00D
:101178007EEC0BF0480E066E000E95EC0AF07EEC45
:101188000BF0010E066E000E95EC0AF07EEC0BF0EB
:10119800D00E066EFA0E95EC0AF07EEC0BF0020EFD
:1011A80023EC0AF07EEC0BF05AEC0BF01F0EE3EC8C
:1011B8000AF07EEC0BF0280E066E080E95EC0AF08D
:1011C8007EEC0BF0000E066E000E95EC0AF07EEC3D
:1011D8000BF0480E066E000E95EC0AF07EEC0BF054
:1011E800010E066E000E95EC0AF07EEC0BF0D00EA8
:1011F800066EFA0E95EC0AF07EEC0BF0030E23EC6B
:101208000AF07EEC0BF05AEC0BF01F0EE3EC0AF040
:101218007EEC0BF0280E066E180E95EC0AF07EECAC
:101228000BF0000E066E000E95EC0AF07EEC0BF04B
:10123800480E066E000E95EC0AF07EEC0BF0010EDF
:10124800066E000E95EC0AF07EEC0BF0D00E066EE2
:10125800FA0E95EC0AF07EEC0BF0000E23EC0AF087
:10126800010EE3EC0AF07EEC0BF0020E23EC0AF020
:10127800010EE3EC0AF07EEC0BF0010E23EC0AF011
:10128800010EE3EC0AF07EEC0BF0030E23EC0AF0FF
:10129800010EE3EC0AF07EEC0BF01200550E0C6E1A
:1012A800D09E000EF26E000E0F01386F000E396FDF
:1012B800000E3A6F000E3B6F000E3C6F000EC66EBC
:1012C800000E6C6E000E796E000E786E926895684E
:1012D80093689468000E456F000E476F000E426FCA
:1012E800000E416F000E9C6E520E0B6E2B0E0A6E96
:1012F800000EE82EFED70A2EFCD70B2EFAD700D008
:1013080015EC00F01AEC0BF0550E8FEC0BF00EC03C
:101318000DF0770E0D18D8A494EF09F096EF09F0A8
:101328009CEF09F030EC0BF075EC08F08BEF09F04E
:10133800730E0D18D8A4A3EF09F0A5EF09F0ABEFD1
:1013480009F030EC0BF001EC05F08BEF09F0610EC1
:101358000D18D8A4B2EF09F0B4EF09F0BAEF09F00C
:1013680030EC0BF0DEEC05F08BEF09F0640E0D1895
:10137800D8A4C1EF09F0C3EF09F0C9EF09F030ECC8
:101388000BF06AEC02F08BEF09F0620E0D18D8A48E
:10139800D0EF09F0D2EF09F0D6EF09F045EC0BF0E9
:1013A8008BEF09F0300E0D18D8A4DDEF09F0DFEF50
:1013B80009F0E3EF09F030EC0BF08BEF09F0340E95
:1013C8000D18D8A4EAEF09F0ECEF09F0F2EF09F0F4
:1013D80030EC0BF0BBEC06F08BEF09F0310E0D187A
:1013E800D8A4F9EF09F0FBEF09F001EF0AF030ECAF
:1013F8000BF098EC07F08BEF09F0320E0D18D8A41B
:1014080008EF0AF00AEF0AF010EF0AF030EC0BF0E0
:1014180024EC04F08BEF09F0330E0D18D8A417EF65
:101428000AF019EF0AF01FEF0AF030EC0BF047EC66
:1014380003F08BEF09F08BEF09F013EF00F0016E6A
:101448000150D8A42AEF0AF02CEF0AF032EF0AF084
:10145800839681848080818862EF0AF00104D8A491
:1014680038EF0AF03AEF0AF040EF0AF083868194E9
:101478008080818862EF0AF0020E0118D8A447EF35
:101488000AF049EF0AF04FEF0AF0838681848090D2
:10149800818862EF0AF0030E0118D8A456EF0AF00B
:1014A80058EF0AF05EEF0AF0838681848080819885
:1014B80062EF0AF08386818480808188350EE82E69
:1014C800FED700F012001E0EE3EC0AF07EEC0BF0E3
:1014D8000F0E066E000E95EC0AF07EEC0BF00F0E68
:1014E800066E010E95EC0AF07EEC0BF0040E066E0B
:1014F800000E95EC0AF07EEC0BF0FF0E066E7F0EE8
:1015080095EC0AF07EEC0BF0FF0E066E000E95ECE3
:101518000AF07EEC0BF0040EE3EC0AF07EEC0BF024
:101528001200076E050EE82EFED700F0000EC3EC81
:101538000AF0828400D000F0839200D000D000D05E
:1015480000D007C001F0000E72EC01F000D000D00E
:1015580000F08382030EE82EFED700F0839200D0BD
:1015680000D000F006C001F0000E72EC01F000D0CF
:1015780000D000F0838200D000F082841200016E57
:101588000150D8A4CAEF0AF0CCEF0AF0D4EF0AF061
:101598003F0E94160F0E9516FC0E9316E2EF0AF006
:1015A8000128D8A4DAEF0AF0DCEF0AF0E2EF0AF03B
:1015B800C00E9412F00E9512030E93121200066ECE
:1015C800000EC3EC0AF0829400D000F0839200D0A1
:1015D80000D000F006C001F0000E72EC01F000D05F
:1015E80000D000F0838200D000F08284030EE82E41
:1015F800FED700D01200FF0EC3EC0AF08294050E4D
:10160800E82EFED700F08394050EE82EFED700F0F2
:10161800000E016EFF0E72EC01F0066E83841A0E46
:10162800E82EFED700D0828406501200C79EC78CD1
:10163800C698C650F00B0409C66E100ECB6E000E8D
:10164800C26E000EC16E928A9486949A94889D8682
:10165800F28CF28EC68A1200000E23EC0AF05AECC5
:101668000BF0010E23EC0AF05AEC0BF0020E23ECFF
:101678000AF05AEC0BF0030E23EC0AF05AEC0BF0CC
:101688001200000E23EC0AF06CEC0BF0010E23ECB8
:101698000AF06CEC0BF0020E23EC0AF06CEC0BF089
:1016A800030E23EC0AF06CEC0BF012001F0EE3ECB7
:1016B8000AF07EEC0BF0000E066E010E95EC0AF0B7
:1016C8007EEC0BF0010EE3EC0AF07EEC0BF012005E
:1016D8001F0EE3EC0AF07EEC0BF0000E066E020E15
:1016E80095EC0AF07EEC0BF0010EE3EC0AF07EECD0
:1016F8000BF01200FFEC0AF0076E07B086EF0BF054
:1017080088EF0BF07EEF0BF012000E6A0F900F922D
:0E171800000152EF09F0016E01C0C9FF12007E
:020000040020DA
:08000000FFFFFFFFFFFFFFFF00
:020000040030CA
:0E000000FF32193CFF9181FF0FC00FE00F404F
:00000001FF
