:040000006FEF00F0AE
:100008003E82E1CF30F0E2CF31F0D9CF32F0DACF13
:1000180033F09EAA12EF00F014EF00F064EF00F046
:10002800AECF2DF09E9A7A0E2D18D8A41EEF00F0B0
:1000380020EF00F024EF00F0010E2C6E4FEF00F0DF
:10004800790E2D18D8A42BEF00F02DEF00F031EF2A
:1000580000F0000E2C6E4FEF00F04FEF00F0140E82
:100068003C6E000E3D6E64EF00F03CC0D9FF3DC011
:10007800DAFF2DC0DFFF3C4A3D2A64EF00F03CC0A8
:10008800D9FF3DC0DAFF3CC0E1FF3DC0E2FFDFCF52
:10009800E7FF64EF00F02C502E6E2F6A2F50000AF5
:1000A800D8B459EF00F043EF00F02E50000AD8B44E
:1000B80033EF00F0010AD8B439EF00F043EF00F055
:1000C8009E9A33C0DAFF32C0D9FF31C0E2FF30C098
:1000D800E1FF3E9211004BEF02F0140E3C6E000E51
:1000E8003D6ED09E000EF26EAAEC02F092EC02F089
:1000F80078EC02F0F28EF28C6F0E346E030EACECDC
:1001080001F0040E356E000E366E010E4BEC01F058
:100118000A0EE9EC02F00D0EE9EC02F0B70E356EAE
:10012800000E366E010E4BEC01F00A0EE9EC02F0FF
:100138000D0EE9EC02F0900E356E000E366E010ED3
:100148004BEC01F00A0EE9EC02F00D0EE9EC02F0BE
:10015800600E356E000E366E010E4BEC01F00A0E85
:10016800E9EC02F00D0EE9EC02F01550DF0F1C6E01
:100178001650DF0F1D6E1750DF0F1E6E1850DF0F61
:100188001F6E1950DF0F206E1A50DF0F216E000E00
:100198001B6E205014EC03F0140E356E000E366EF4
:1001A800010E4BEC01F00D0EE9EC02F07A0E346E04
:1001B800030EACEC01F01CC034F0030EACEC01F003
:1001C8001DC034F0030EACEC01F01EC034F0030E79
:1001D800ACEC01F01FC034F0030EACEC01F0790E6A
:1001E800346E030EACEC01F02138E8461F0B010B0E
:1001F800226E2140E8423F0B010B236ED89021303C
:10020800010B246E2150010B256E22B002D089907B
:1002180001D0898023B002D0899201D089822550EB
:10022800D8B419EF01F01CEF01F0010E1DEF01F039
:10023800000E24140009D8B424EF01F026EF01F0D1
:100248002AEF01F0C1EC02F045EF01F02450D8B4D8
:1002580030EF01F033EF01F0010E34EF01F0000E42
:100268003A6E3B6A25503A16000E3B163A503B1040
:10027800D8B441EF01F043EF01F045EF01F0D5ECC0
:1002880002F0F8EC02F0B9EF00F06FEF00F0396E11
:1002980093EF01F035C0D9FF36C0DAFFDF50E9EC43
:1002A80002F0354A362A35C0D9FF36C0DAFFDF50AA
:1002B800D8A461EF01F063EF01F04EEF01F0A8EF71
:1002C80001F035C0D9FF36C0DAFFDF5014EC03F077
:1002D800354A362A35C0D9FF36C0DAFFDF50D8A4F0
:1002E80078EF01F07AEF01F065EF01F0A8EF01F087
:1002F80035C0D9FF36C0DAFFDF50E9EC02F0354AE5
:10030800362A35C0D9FF36C0DAFFDF50D8A48FEFC0
:1003180001F091EF01F07CEF01F0A8EF01F0395006
:10032800376E386A3850000AD8B49DEF01F085EF6F
:1003380001F03750010AD8B457EF01F0030AD8B4D6
:100348006EEF01F085EF01F0000EE9EC02F012000B
:10035800366E3650D8A4B3EF01F0B5EF01F0C4EF14
:1003680001F08A9434C0C9FFC7A0BDEF01F0BFEF08
:1003780001F0B8EF01F08A84C9CF35F00BEF02F035
:100388003604D8A4CAEF01F0CCEF01F0DBEF01F09E
:100398008A9634C0C9FFC7A0D4EF01F0D6EF01F0A8
:1003A800CFEF01F08A86C9CF35F00BEF02F0020ECD
:1003B8003618D8A4E2EF01F0E4EF01F0F3EF01F012
:1003C8008A9834C0C9FFC7A0ECEF01F0EEEF01F046
:1003D800E7EF01F08A88C9CF35F00BEF02F0030E82
:1003E8003618D8A4FAEF01F0FCEF01F00BEF02F099
:1003F8008A9A34C0C9FFC7A004EF02F006EF02F0E2
:10040800FFEF01F08A8AC9CF35F00BEF02F03550C3
:10041800120050726573732027712720616E642063
:1004280027652720746F207475726E206C69676861
:1004380074206265616D206F666620616E64206F4E
:100448006E00557365207269676874206A6F7973E6
:100458007469636B20746F206D6F766520726967AD
:10046800687420776865656C00557365206C6566EF
:1004780074206A6F79737469636B20746F206D6F71
:100488007665206C65667420776865656C001A0E61
:10049800F66E040EF76E000EF86E00EE60F010EEC9
:1004A8007CF00900F5CFEEFFE550E150FAE10C0EC3
:1004B800F66E060EF76E000EF86E00EE01F010EE06
:1004C8001BF00900F5CFEEFFE550E150FAE100EE30
:1004D8001CF0120EEE6AE806FDE13E903E92000E18
:1004E800F86E000171EF00F0AC84B88672847086F3
:1004F8008A0EAF6E000EB06E820E756E060E766EA8
:10050800948C948E958C958EAC987298AB8E718ED7
:10051800AC8A728A9D8AAB88718812001F0EC86ED9
:10052800C79EC78CC698C650F00B0A09C66E000E47
:10053800C26E939493969398939A94969488949A67
:100548008A848A868A888A8AC68A1200000E0F01DF
:10055800386F000E396F000E3A6F000E3B6F000EB9
:100568003C6F799E789E929092929294FC0E95168A
:100578001FEC03F0D5EC02F01200020E8C6ED00EC8
:10058800346ECA0EE82EFED7342EFCD7680E346EB1
:10059800E40EE82EFED7342EFCD700D0000E8C6E69
:1005A8001200010E8C6ED00E346ECA0EE82EFED7E5
:1005B800342EFCD7680E346EE40EE82EFED7342EA7
:1005C800FCD700D0000E8C6E1200346E9EA8EFEFA0
:1005D80002F0F1EF02F0EAEF02F034C0ADFF050ED1
:1005E800E82EFED700F01200ABA2FDEF02F0FFEFFD
:1005F80002F005EF03F0AB98150EE82EFED700F0D9
:10060800AB881200E8030148656C6C6F2C205765B5
:0F0618006C636F6D65210068656C6C6F2121004C
:10062800346EA4A81AEF03F01CEF03F015EF03F0E3
:0C06380034C073FF1200F80E8916120087
:020000040020DA
:08000000FFFFFFFFFFFFFFFF00
:020000040030CA
:0E000000FF32193CFF9181FF0FC00FE00F404F
:00000001FF
