:040000001EEF00F0FF
:1000080056829D909E900150451807E1025046186F
:10001800D8A411EF00F013EF00F019EF00F0000E74
:10002800466E000E456E010E036E8974454A462AD7
:100038005692110056EF02F0D09E000EF26ED6ECEA
:1000480002F0BEEC02F0A4EC02F0EA0E4E6E600E76
:100058004D6E080E4F6EDEEC01F06F0E4D6E030E06
:100068007DEC01F0330E4E6E000E4F6E010E04EC67
:1000780001F0600E4E6E000E4F6E010E04EC01F0A2
:10008800040E4E6E000E4F6E010E04EC01F0960E3B
:100098004E6E000E4F6E010E04EC01F0000E4C6E19
:1000A800000E4B6E6F0E556EF8EF00F015EC03F076
:1000B8004C6E4C28D8B463EF00F065EF00F09AEF6F
:1000C80000F04B504C18D8A46CEF00F06EEF00F025
:1000D80085EF00F0474A482A900E475C010E4858C1
:1000E800D8A079EF00F07BEF00F081EF00F06F0E01
:1000F800556EEDEC02F096EF00F04CC055F096EF1F
:1001080000F04B504C18D8B48CEF00F08EEF00F094
:1001180096EF00F04CC055F0000E486E000E476E8A
:1001280001EC03F04CC04BF09CEF00F06F0E556EE5
:1001380055C04DF0030E7DEC01F0555032EC03F044
:10014800C5EF00F048EC03F08980EAEF00F048ECD6
:1001580003F08982EAEF00F048EC03F08984EAEFC3
:1001680000F048EC03F0EAEF00F001EC03F0EAEFEE
:1001780000F0EDEC02F0EAEF00F04BEC03F0EAEFF0
:1001880000F05550536E546A5450000AD8B4CFEF5B
:1001980000F0C1EF00F05350610AD8B4A6EF00F0A8
:1001A800050AD8B4ABEF00F0010AD8B4BDEF00F0EF
:1001B8000A0AD8B4B5EF00F01E0AD8B4B9EF00F0B7
:1001C800060AD8B4B0EF00F0C1EF00F0020E546E8A
:1001D8004D0E536E740EE82EFED7532EFCD7542EB8
:1001E800FAD700D024EC03F00350D8A4FEEF00F0B7
:1001F80000EF01F05AEF00F0F8EF00F01EEF00F00A
:10020800526E67EF01F04EC0D9FF4FC0DAFFDF50E2
:100218003DEC03F04E4A4F2A4EC0D9FF4FC0DAFFDB
:10022800DF50D8A41AEF01F01CEF01F007EF01F03E
:10023800000E3DEC03F00A0E3DEC03F00D0E3DEC14
:1002480003F07CEF01F04EC0D9FF4FC0DAFFDF505A
:1002580032EC03F04E4A4F2A4EC0D9FF4FC0DAFFA6
:10026800DF50D8A43AEF01F03CEF01F027EF01F09E
:10027800000E32EC03F00A0E32EC03F00D0E32ECF5
:1002880003F07CEF01F04EC0D9FF4FC0DAFFDF501A
:100298003DEC03F04E4A4F2A4EC0D9FF4FC0DAFF5B
:1002A800DF50D8A45AEF01F05CEF01F047EF01F0FE
:1002B800000E3DEC03F00A0E3DEC03F00D0E3DEC94
:1002C80003F07CEF01F05250506E516A5150000A11
:1002D800D8B471EF01F050EF01F05050010AD8B4D2
:1002E80010EF01F0030AD8B430EF01F050EF01F03D
:1002F80012004F6E4F50D8A484EF01F086EF01F042
:1003080095EF01F08A944DC0C9FFC7A08EEF01F0A8
:1003180090EF01F089EF01F08A84C9CF4EF0DCEF4D
:1003280001F04F04D8A49BEF01F09DEF01F0ACEF72
:1003380001F08A964DC0C9FFC7A0A5EF01F0A7EF4D
:1003480001F0A0EF01F08A86C9CF4EF0DCEF01F092
:10035800020E4F18D8A4B3EF01F0B5EF01F0C4EFC7
:1003680001F08A984DC0C9FFC7A0BDEF01F0BFEFEB
:1003780001F0B8EF01F08A88C9CF4EF0DCEF01F048
:10038800030E4F18D8A4CBEF01F0CDEF01F0DCEF4E
:1003980001F08A9A4DC0C9FFC7A0D5EF01F0D7EF89
:1003A80001F0D0EF01F08A8AC9CF4EF0DCEF01F0FE
:1003B8004E5012004D1C436E4E1C446E44504A6E03
:1003C80043C049F0CD909D903F0ECD16CD8405EFEA
:1003D80002F0CF0ECD1622EF02F0CD50CF0B100950
:1003E800CD6E22EF02F0CD50CF0B2009CD6E22EF5B
:1003F80002F0300ECD1222EF02F0CF0ECD1622EF12
:1004080002F04F50506E516A5150000AD8B40FEFA5
:1004180002F001EF02F05050010AD8B4EDEF01F0FC
:10042800030AD8B4F1EF01F0060AD8B4F7EF01F0E7
:100438000C0AD8B4FDEF01F001EF02F0120050727F
:100448006573732027772720616E64202773272020
:10045800746F206D6F766520726F626F7420666F9F
:10046800727761726420616E64206261636B776188
:100478007264730050726573732027712720616E50
:10048800642027652720746F207475726E206C694C
:10049800676874206265616D206F666620616E64AE
:1004A800206F6E00460EF66E040EF76E000EF86EA4
:1004B80000EE60F010EE66F00900F5CFEEFFE550B3
:1004C800E150FAE1060EF66E050EF76E000EF86EB4
:1004D80000EE01F010EE42F00900F5CFEEFFE55016
:1004E800E150FAE100EE43F00A0EEE6AE806FDE19B
:1004F80056905692000EF86E000120EF00F0E803C7
:100508000150726573732027612720616E6420276C
:10051800642720746F207370696E20726F626F7425
:10052800206C65667420616E642072696768740067
:1005380048656C6C6F2C2057656C636F6D65210086
:10054800AC84B886728470868A0EAF6E000EB06E68
:10055800820E756E060E766E948C948E958C958EA2
:10056800AC987298AB8E718EAC8A728A9D9AAB8861
:10057800718812001F0EC86EC79EC78CC698C650D9
:10058800F00B0A09C66E000EC26E93949396939868
:10059800939A94969488949A8A848A868A888A8A6E
:1005A800C68A1200000E0F01386F000E396F000E58
:1005B8003A6F000E3B6F000E3C6F799E789E9290CA
:1005C80092929294FC0E951648EC03F001EC03F01D
:1005D8001200020E8C6ED00E4D6ECA0EE82EFED79B
:1005E8004D2EFCD7680E4D6EE40EE82EFED74D2E2C
:1005F800FCD700D0000E8C6E1200010E8C6ED00E4F
:100608004D6ECA0EE82EFED74D2EFCD7680E4D6EE5
:10061800E40EE82EFED74D2EFCD700D0000E8C6ECF
:1006280012009EAA1AEF03F01CEF03F021EF03F06B
:10063800AECF4DF09E9A22EF03F04D684D50120058
:10064800ABA229EF03F02BEF03F031EF03F0AB98E7
:10065800150EE82EFED700F0AB8812004D6EA4A848
:1006680038EF03F03AEF03F033EF03F04DC073FFB8
:1006780012004D6E9EA843EF03F045EF03F03EEFE6
:1006880003F04DC0ADFF1200F80E89161200070ED8
:0406980089121200B1
:020000040020DA
:08000000FFFFFFFFFFFFFFFF00
:020000040030CA
:0E000000FF32193CFF9181FF0FC00FE00F404F
:00000001FF
