:0400000029EF00F0F4
:100008000C829EAA0AEF00F00CEF00F026EF00F039
:10001800AECF06F0000E026E000E016E04500618F8
:10002800D8A419EF00F01BEF00F022EF00F0000E4B
:100038009DEC01F0000E056E26EF00F006C004F0FE
:10004800010E056E9E9A0C9211008EEF01F0799EBA
:10005800789E7AEC01F052EC01F0000E926E000EE0
:10006800956E000E806E010E836ED00E0B6ECA0E5A
:10007800E82EFED70B2EFCD7680E0B6EE40EE82E8A
:10008800FED70B2EFCD700D0000E836E6F0E086EC5
:10009800030EF1EC00F0036E69EF00F0014A022A4A
:1000A800FA0E011806E10228D8A45DEF00F05FEF10
:1000B80000F069EF00F06F0E066E000E026E000E83
:1000C800016E010E056E000E046E0550D8B46FEF78
:1000D80000F071EF00F052EF00F006C008F0030ED8
:1000E800F1EC00F0036E065099EC01F0610E061871
:1000F800D8A481EF00F083EF00F087EF00F0010E45
:10010800806ED9EF00F0640E0618D8A48EEF00F0C8
:1001180090EF00F094EF00F0020E806ED9EF00F03F
:10012800770E0618D8A49BEF00F09DEF00F0A1EF22
:1001380000F0040E806ED9EF00F0710E0618D8A4F6
:10014800A8EF00F0AAEF00F0BFEF00F0010E836EF9
:10015800D00E0B6ECA0EE82EFED70B2EFCD7680EFB
:100168000B6EE40EE82EFED70B2EFCD700D0000E47
:10017800836ED9EF00F0650E0618D8A4C6EF00F01C
:10018800C8EF00F0CCEF00F0020E836EACEF00F089
:100198006F0E0618D8A4D3EF00F0D5EF00F0D9EF12
:1001A80000F0070E806ED9EF00F0014A022ACA0E4D
:1001B800011807E18A0E0218D8A4E5EF00F0E7EF6E
:1001C80000F069EF00F06F0E066E000E026E000E72
:1001D800016E69EF00F029EF00F00A6E0A50D8A40A
:1001E800F8EF00F0FAEF00F009EF01F08A9408C088
:1001F800C9FFC7A002EF01F004EF01F0FDEF00F026
:100208008A84C9CF09F050EF01F00A04D8A40FEF8F
:1002180001F011EF01F020EF01F0819608C0C9FF4D
:10022800C7A019EF01F01BEF01F014EF01F0818670
:10023800C9CF09F050EF01F0020E0A18D8A427EF31
:1002480001F029EF01F038EF01F0819808C0C9FFEB
:10025800C7A031EF01F033EF01F02CEF01F08188F6
:10026800C9CF09F050EF01F0030E0A18D8A43FEFE8
:1002780001F041EF01F050EF01F08A9A08C0C9FF80
:10028800C7A049EF01F04BEF01F044EF01F08A8A73
:10029800C9CF09F050EF01F009501200000E0F010C
:1002A800386F000E396F000E3A6F000E3B6F000E6C
:1002B8003C6FAC84B886728470860A0EAF6E1A0ED4
:1002C800B06E820E756E060E766E948C948E958C3A
:1002D800958EAC987298AB8E718EAC8A728AD09ECD
:1002E8009D8AC00EF212AB8871881200000EC76E8C
:1002F800220EC66E000EC26E0F0EC16E93949396B8
:100308009398939A94969488949A8A8481868188FB
:100318008A8A1200066A056A046A036A026A016A1E
:100328000C900C9200012BEF00F0086E08C073FFD0
:0A0338001200076E07C0ADFF1200AF
:020000040020DA
:08000000FFFFFFFFFFFFFFFF00
:020000040030CA
:0E000000FF32193CFF9181FF0FC00FE00F404F
:00000001FF
