:040000006FEF00F0AE
:100008005782E1CF46F0E2CF47F0D9CF48F0DACFB8
:1000180049F09EAA12EF00F014EF00F064EF00F030
:10002800AECF23F09E9A7A0E2318D8A41EEF00F0C4
:1000380020EF00F024EF00F0010E226E4FEF00F0E9
:10004800790E2318D8A42BEF00F02DEF00F031EF34
:1000580000F0000E226E4FEF00F04FEF00F03A0E66
:10006800556E000E566E64EF00F055C0D9FF56C0AD
:10007800DAFF23C0DFFF554A562A64EF00F055C067
:10008800D9FF56C0DAFF55C0E1FF56C0E2FFDFCF07
:10009800E7FF64EF00F02250446E456A4550000ABD
:1000A800D8B459EF00F043EF00F04450000AD8B438
:1000B80033EF00F0010AD8B439EF00F043EF00F055
:1000C8009E9A49C0DAFF48C0D9FF47C0E2FF46C040
:1000D800E1FF5792110031EF03F03A0E556E000E12
:1000E800566ED09E000EF26E90EC03F078EC03F0A2
:1000F8005EEC03F0F28EF28C6F0E4A6E030E92ECF9
:1001080002F02A0E4B6E000E4C6E010E31EC02F01E
:100118000A0ECFEC03F00D0ECFEC03F0B70E4B6ECA
:10012800000E4C6E010E31EC02F00A0ECFEC03F01B
:100138000D0ECFEC03F0900E4B6E000E4C6E010EC0
:1001480031EC02F00A0ECFEC03F00D0ECFEC03F009
:10015800600E4B6E000E4C6E010E31EC02F00A0E72
:10016800CFEC03F00D0ECFEC03F03B50DF0F016E28
:100178003C50DF0F026E3D50DF0F036E3E50DF0F25
:10018800046E3F50DF0F056E4050DF0F066E415082
:10019800DF0F076E000E426E3A0E4B6E000E4C6E6D
:1001A800010E31EC02F00D0ECFEC03F07A0E4A6E20
:1001B800030E92EC02F07A0E4A6E000E92EC02F0F8
:1001C80001C04AF0030E92EC02F001C04AF0000EA2
:1001D80092EC02F002C04AF0030E92EC02F002C068
:1001E8004AF0000E92EC02F003C04AF0030E92ECC3
:1001F80002F003C04AF0000E92EC02F004C04AF08C
:10020800030E92EC02F004C04AF0000E92EC02F0E9
:10021800790E4A6E030E92EC02F0790E4A6E000EC9
:1002280092EC02F00638E8461F0B010B186E0640E8
:10023800E8423F0B010B196ED8900630010B1A6E7D
:100248000650010B1B6E0538E8461F0B010B146E98
:100258000540E8423F0B010B156ED8900530010BA5
:10026800166E0550010B176E0738E842070B010B95
:100278000E6E07380F0B010B0F6E0738E8461F0B81
:10028800010B106E0740E8423F0B010B116ED8902E
:100298000730010B0C6E0750010B0D6E252A2550F7
:1002A800D8A459EF01F05BEF01F05FEF01F0C00E49
:1002B800436E6BEF01F0000E436E5F0E2518D8A455
:1002C80068EF01F06AEF01F06BEF01F0256819C0E3
:1002D80050F0503AF00E501618C051F0050E526EFC
:1002E800D8905136522E74EF01F00FC053F0060E1D
:1002F800546ED8905336542E7DEF01F00E40800B8B
:100308005310511050100510246EBBEF01F043C07C
:1003180026F0ECEF01F043500109266EECEF01F0F6
:1003280043500209266EECEF01F043500309266E94
:10033800ECEF01F043500409266EECEF01F0435056
:100348000509266EECEF01F043500609266EECEF26
:1003580001F043500709266EECEF01F043500809FD
:10036800266EECEF01F0000E266EECEF01F0245043
:10037800506E516A5150000AD8B4C5EF01F0B7EF7A
:1003880001F05050000AD8B48BEF01F0010AD8B43C
:100398008FEF01F0030AD8B494EF01F0060AD8B43D
:1003A80099EF01F00C0AD8B49EEF01F0180AD8B4FE
:1003B800A3EF01F0300AD8B4A8EF01F0600AD8B46E
:1003C800ADEF01F0C00AD8B4B2EF01F0B7EF01F019
:1003D8002650FBEC03F018B002D0899001D0898038
:1003E80019B002D0899201D089821B50D8B4FFEF8E
:1003F80001F002EF02F0010E03EF02F0000E1A14F2
:100408000009D8B40AEF02F00CEF02F010EF02F086
:10041800A7EC03F02BEF02F01A50D8B416EF02F055
:1004280019EF02F0010E1AEF02F0000E506E516A39
:100438001B505016000E511650505110D8B427EFCB
:1004480002F029EF02F02BEF02F0BBEC03F0EDEC29
:1004580003F0B9EF00F06FEF00F04F6E79EF02F0A4
:100468004BC0D9FF4CC0DAFFDF50CFEC03F04B4A4A
:100478004C2A4BC0D9FF4CC0DAFFDF50D8A447EF55
:1004880002F049EF02F034EF02F08EEF02F04BC0B9
:10049800D9FF4CC0DAFFDF50FBEC03F04B4A4C2A83
:1004A8004BC0D9FF4CC0DAFFDF50D8A45EEF02F092
:1004B80060EF02F04BEF02F08EEF02F04BC0D9FF75
:1004C8004CC0DAFFDF50CFEC03F04B4A4C2A4BC04C
:1004D800D9FF4CC0DAFFDF50D8A475EF02F077EFF0
:1004E80002F062EF02F08EEF02F04F504D6E4E6A4E
:1004F8004E50000AD8B483EF02F06BEF02F04D5073
:10050800010AD8B43DEF02F0030AD8B454EF02F060
:100518006BEF02F0000ECFEC03F012004C6E4C5063
:10052800D8A499EF02F09BEF02F0AAEF02F08A94A8
:100538004AC0C9FFC7A0A3EF02F0A5EF02F09EEFE3
:1005480002F08A84C9CF4BF0F1EF02F04C04D8A432
:10055800B0EF02F0B2EF02F0C1EF02F08A964AC0A3
:10056800C9FFC7A0BAEF02F0BCEF02F0B5EF02F086
:100578008A86C9CF4BF0F1EF02F0020E4C18D8A4CE
:10058800C8EF02F0CAEF02F0D9EF02F08A984AC029
:10059800C9FFC7A0D2EF02F0D4EF02F0CDEF02F00E
:1005A8008A88C9CF4BF0F1EF02F0030E4C18D8A49B
:1005B800E0EF02F0E2EF02F0F1EF02F08A9A4AC0AF
:1005C800C9FFC7A0EAEF02F0ECEF02F0E5EF02F096
:1005D8008A8AC9CF4BF0F1EF02F04B5012005072EB
:1005E8006573732027712720616E64202765272093
:1005F800746F207475726E206C6967687420626508
:10060800616D206F666620616E64206F6E005573A1
:1006180065207269676874206A6F79737469636B9F
:1006280020746F206D6F7665207269676874207713
:100638006865656C00557365206C656674206A6F23
:1006480079737469636B20746F206D6F7665206CA5
:1006580065667420776865656C00E60EF66E050EB3
:10066800F76E000EF86E00EE60F010EE7CF00900F8
:10067800F5CFEEFFE550E150FAE1BC0EF66E070E3D
:10068800F76E000EF86E00EE27F010EE1DF0090070
:10069800F5CFEEFFE550E150FAE100EE01F0260E4D
:1006A800EE6AE806FDE157905792000EF86E0001D9
:1006B80071EF00F0AC84B886728470868A0EAF6ED3
:1006C800000EB06E8A0E756E000E766E948C948E47
:1006D800958C958EAC987298AB8E718EAC8A728A16
:1006E8009D8AAB88718812001F0EC86EC79EC78C82
:1006F800C698C650F00B0A09C66E000EC26E9394D7
:1007080093969398939A94969488949A8A848A86CE
:100718008A888A8AC68A1200000E0F01386F000E76
:10072800396F000E3A6F000E3B6F000E3C6F799EDA
:10073800789E929092929294FC0E951606EC04F094
:10074800BBEC03F01200020E8C6ED00E4A6ECA0E7D
:10075800E82EFED74A2EFCD7680E4A6EE40EE82E25
:10076800FED74A2EFCD700D0000E8C6E1200010E68
:100778008C6ED00E4A6ECA0EE82EFED74A2EFCD7D3
:10078800680E4A6EE40EE82EFED74A2EFCD700D03B
:10079800000E8C6E12004A6E9EA8D5EF03F0D7EFBC
:1007A80003F0D0EF03F04AC0ADFF050EE82EFED7E8
:1007B80000F01200E8030148656C6C6F2C20576547
:1007C8006C636F6D65210068656C6C6F2121210079
:0107D800011F
:1007DA00ABA2F2EF03F0F4EF03F0FAEF03F0AB98F9
:1007EA00150EE82EFED700F0AB8812004A6EA4A8B8
:1007FA0001EF04F003EF04F0FCEF03F04AC073FFCB
:08080A001200F80E891612001D
:020000040020DA
:08000000FFFFFFFFFFFFFFFF00
:020000040030CA
:0E000000FF32193CFF9181FF0FC00FE00F404F
:00000001FF
