:040000001EEF00F0FF
:1000080056829D909E900150451807E1025046186F
:10001800D8A411EF00F013EF00F019EF00F0000E74
:10002800466E000E456E010E036E8974454A462AD7
:10003800569211004FEF02F0D09E000EF26EB7EC10
:1000480002F0F6EC02F09DEC02F0EA0E4E6E600E45
:100058004D6E080E4F6ED7EC01F06F0E4D6E030E0D
:1000680076EC01F0330E4E6E000E4F6E010EFDEC75
:1000780000F0600E4E6E000E4F6E010EFDEC00F0AB
:10008800040E4E6E000E4F6E010EFDEC00F0960E43
:100098004E6E000E4F6E010EFDEC00F0000E4C6E21
:1000A800000E4B6E6F0E556EEAEF00F008EC03F091
:1000B8004C6E4C28D8B463EF00F065EF00F09AEF6F
:1000C80000F04B504C18D8A46CEF00F06EEF00F025
:1000D80085EF00F0474A482A485009E1C80E475CB6
:1000E800D8A079EF00F07BEF00F081EF00F06F0E01
:1000F800556ECEEC02F096EF00F04CC055F096EF3E
:1001080000F04B504C18D8B48CEF00F08EEF00F094
:1001180096EF00F04CC055F0000E486E000E476E8A
:10012800E2EC02F04CC04BF09CEF00F06F0E556E05
:1001380055C04DF0030E76EC01F0555017EC03F066
:10014800C5EF00F02DEC03F08980EAEF00F02DEC0C
:1001580003F08982EAEF00F02DEC03F08984EAEFDE
:1001680000F02DEC03F0EAEF00F0E2EC02F0EAEF29
:1001780000F0CEEC02F0EAEF00F030EC03F0EAEF2A
:1001880000F05550536E546A5450000AD8B4CFEF5B
:1001980000F0C1EF00F05350610AD8B4A6EF00F0A8
:1001A800050AD8B4ABEF00F0010AD8B4BDEF00F0EF
:1001B8000A0AD8B4B5EF00F01E0AD8B4B9EF00F0B7
:1001C800060AD8B4B0EF00F0C1EF00F00350D8A48D
:1001D800F0EF00F0F2EF00F05AEF00F02A0E536E45
:1001E8008E0EE82EFED7532EFCD7EAEF00F01EEF56
:1001F80000F0526E60EF01F04EC0D9FF4FC0DAFF39
:10020800DF5022EC03F04E4A4F2A4EC0D9FF4FC0B0
:10021800DAFFDF50D8A413EF01F015EF01F000EF7B
:1002280001F0000E22EC03F00A0E22EC03F00D0E92
:1002380022EC03F075EF01F04EC0D9FF4FC0DAFF92
:10024800DF5017EC03F04E4A4F2A4EC0D9FF4FC07B
:10025800DAFFDF50D8A433EF01F035EF01F020EFDB
:1002680001F0000E17EC03F00A0E17EC03F00D0E68
:1002780017EC03F075EF01F04EC0D9FF4FC0DAFF5D
:10028800DF5022EC03F04E4A4F2A4EC0D9FF4FC030
:10029800DAFFDF50D8A453EF01F055EF01F040EF3B
:1002A80001F0000E22EC03F00A0E22EC03F00D0E12
:1002B80022EC03F075EF01F05250506E516A515024
:1002C800000AD8B46AEF01F049EF01F05050010A72
:1002D800D8B409EF01F0030AD8B429EF01F049EFC7
:1002E80001F012004F6E4F50D8A47DEF01F07FEF60
:1002F80001F08EEF01F08A944DC0C9FFC7A087EFC7
:1003080001F089EF01F082EF01F08A84C9CF4EF045
:10031800D5EF01F04F04D8A494EF01F096EF01F067
:10032800A5EF01F08A964DC0C9FFC7A09EEF01F066
:10033800A0EF01F099EF01F08A86C9CF4EF0D5EF12
:1003480001F0020E4F18D8A4ACEF01F0AEEF01F0A7
:10035800BDEF01F08A984DC0C9FFC7A0B6EF01F004
:10036800B8EF01F0B1EF01F08A88C9CF4EF0D5EFB0
:1003780001F0030E4F18D8A4C4EF01F0C6EF01F046
:10038800D5EF01F08A9A4DC0C9FFC7A0CEEF01F0A2
:10039800D0EF01F0C9EF01F08A8AC9CF4EF0D5EF4E
:1003A80001F04E5012004D1C436E4E1C446E4450DA
:1003B8004A6E43C049F0CD909D903F0ECD16CD8436
:1003C800FEEF01F0CF0ECD161BEF02F0CD50CF0B94
:1003D8001009CD6E1BEF02F0CD50CF0B2009CD6E6A
:1003E8001BEF02F0300ECD121BEF02F0CF0ECD1630
:1003F8001BEF02F04F50506E516A5150000AD8B4AA
:1004080008EF02F0FAEF01F05050010AD8B4E6EF15
:1004180001F0030AD8B4EAEF01F0060AD8B4F0EF05
:1004280001F00C0AD8B4F6EF01F0FAEF01F012006F
:1004380050726573732027772720616E64202773B5
:100448002720746F206D6F766520726F626F74203D
:10045800666F727761726420616E64206261636B9B
:100468007761726473005072657373202771272057
:10047800616E642027652720746F207475726E2062
:100488006C69676874206265616D206F66662061BB
:100498006E64206F6E00380EF66E040EF76E000E56
:1004A800F86E00EE60F010EE66F00900F5CFEEFF92
:1004B800E550E150FAE1F80EF66E040EF76E000E04
:1004C800F86E00EE01F010EE42F00900F5CFEEFFF5
:1004D800E550E150FAE100EE43F00A0EEE6AE80654
:1004E800FDE156905692000EF86E000120EF00F0E4
:1004F800E8030150726573732027612720616E64D9
:100508002027642720746F207370696E20726F62D1
:100518006F74206C65667420616E64207269676808
:10052800740048656C6C6F2C2057656C636F6D6543
:100538002100AC84B886728470868A0EAF6E000E75
:10054800B06E820E756E060E766E948C948E958CB7
:10055800958EAC987298AB8E718EAC8A728A9D9A81
:10056800AB8871881200000E0F01386F000E396FCA
:10057800000E3A6F000E3B6F000E3C6F799E789E1E
:10058800929092929294FC0E95162DEC03F0E2EC68
:1005980002F01200020E8C6ED00E4D6ECA0EE82EBE
:1005A800FED74D2EFCD7680E4D6EE40EE82EFED712
:1005B8004D2EFCD700D0000E8C6E1200010E8C6EF2
:1005C800D00E4D6ECA0EE82EFED74D2EFCD7680E03
:1005D8004D6EE40EE82EFED74D2EFCD700D0000E4F
:1005E8008C6E1200000EC76E220EC66E000EC26E12
:1005F800939493969398939A94969488949A8A84C9
:100608008A868A888A8A12009EAA0DEF03F00FEF65
:1006180003F014EF03F0AECF4DF09E9A15EF03F000
:100628004D684D5012004D6EA4A81DEF03F01FEF4A
:1006380003F018EF03F04DC073FF12004D6E9EA833
:1006480028EF03F02AEF03F023EF03F04DC0ADFFCE
:0E0658001200F80E89161200070E8912120009
:020000040020DA
:08000000FFFFFFFFFFFFFFFF00
:020000040030CA
:0E000000FF32193CFF9181FF0FC00FE00F404F
:00000001FF
