:0400000026EF00F0F7
:100008000A829EAA0AEF00F00CEF00F023EF00F03E
:10001800AECF05F0000E026E000E016E03500518FB
:10002800D8A419EF00F01BEF00F01FEF00F0000E4E
:10003800046E23EF00F005C003F0010E046E9E9AD3
:100048000A92110089EF01F0799E789E75EC01F013
:100058004DEC01F0000E926E000E956E000E896E4A
:10006800010E8C6ED00E096ECA0EE82EFED7092E30
:10007800FCD7680E096EE40EE82EFED7092EFCD7D1
:1000880000D0000E8C6E6F0E066E030EECEC00F0C6
:1000980065EF00F0014A022AFA0E011806E102286B
:1000A800D8A459EF00F05BEF00F065EF00F06F0E99
:1000B800056E000E026E000E016E010E046E000E3B
:1000C800036E0450D8B46BEF00F06DEF00F04EEF04
:1000D80000F005C006F0030EECEC00F0055093ECC0
:1000E80001F0610E0518D8A47CEF00F07EEF00F057
:1000F80082EF00F0010E896ED4EF00F0640E05184F
:10010800D8A489EF00F08BEF00F08FEF00F0020E1B
:10011800896ED4EF00F0770E0518D8A496EF00F09A
:1001280098EF00F09CEF00F0040E896ED4EF00F019
:100138006F0E0518D8A4A3EF00F0A5EF00F0A9EF03
:1001480000F0070E896ED4EF00F0710E0518D8A4E0
:10015800B0EF00F0B2EF00F0C7EF00F0010E8C6EC8
:10016800D00E096ECA0EE82EFED7092EFCD7680EEF
:10017800096EE40EE82EFED7092EFCD700D0000E3B
:100188008C6ED4EF00F0650E0518D8A4CEEF00F001
:10019800D0EF00F0D4EF00F0020E8C6EB4EF00F058
:1001A800014A022ACA0E011807E18A0E0218D8A4C9
:1001B800E0EF00F0E2EF00F065EF00F06F0E056E83
:1001C800000E026E000E016E65EF00F026EF00F0E3
:1001D800086E0850D8A4F3EF00F0F5EF00F004EF34
:1001E80001F08A9406C0C9FFC7A0FDEF00F0FFEF39
:1001F80000F0F8EF00F08A84C9CF07F04BEF01F068
:100208000804D8A40AEF01F00CEF01F01BEF01F08D
:100218008A9606C0C9FFC7A014EF01F016EF01F0D7
:100228000FEF01F08A86C9CF07F04BEF01F0020EFD
:100238000818D8A422EF01F024EF01F033EF01F001
:100248008A9806C0C9FFC7A02CEF01F02EEF01F075
:1002580027EF01F08A88C9CF07F04BEF01F0030EB2
:100268000818D8A43AEF01F03CEF01F04BEF01F089
:100278008A9A06C0C9FFC7A044EF01F046EF01F013
:100288003FEF01F08A8AC9CF07F04BEF01F0075022
:100298001200000E0F01386F000E396F000E3A6F12
:1002A800000E3B6F000E3C6FAC84B886728470867B
:1002B8000A0EAF6E1A0EB06E820E756E060E766E50
:1002C800948C948E958C958EAC987298AB8E718E1A
:1002D800AC8A728AD09E9D8AC00EF212AB88718851
:1002E8001200000EC76E220EC66E000EC26E0F0EF2
:1002F800C16E939493969398939A94969488949AAB
:100308008A848A868A888A8A1200056A046A036A45
:10031800026A016A0A900A92000128EF00F0066E4C
:0603280006C073FF120085
:020000040020DA
:08000000FFFFFFFFFFFFFFFF00
:020000040030CA
:0E000000FF32193CFF9181FF0FC00FE00F404F
:00000001FF
