:040000006FEF00F0AE
:100008004582E1CF37F0E2CF38F0D9CF39F0DACFF7
:100018003AF09EAA12EF00F014EF00F064EF00F03F
:10002800AECF32F09E9A7A0E3218D8A41EEF00F0A6
:1000380020EF00F024EF00F0010E316E4FEF00F0DA
:10004800790E3218D8A42BEF00F02DEF00F031EF25
:1000580000F0000E316E4FEF00F04FEF00F0150E7C
:10006800436E000E446E64EF00F043C0D9FF44C0F5
:10007800DAFF32C0DFFF434A442A64EF00F043C08E
:10008800D9FF44C0DAFF43C0E1FF44C0E2FFDFCF3D
:10009800E7FF64EF00F03150356E366A3650000ADB
:1000A800D8B459EF00F043EF00F03550000AD8B447
:1000B80033EF00F0010AD8B439EF00F043EF00F055
:1000C8009E9A3AC0DAFF39C0D9FF38C0E2FF37C07C
:1000D800E1FF459211009FEF02F0150E436E000EEE
:1000E800446ED09E000EF26EFEEC02F0E6EC02F0DA
:1000F800CCEC02F0F28EF28C6F0E3B6E030E00EC2D
:1001080002F0050E3C6E000E3D6E010E9FEC01F0F4
:100118000A0E3DEC03F00D0E3DEC03F0B70E3C6EFD
:10012800000E3D6E010E9FEC01F00A0E3DEC03F04F
:100138000D0E3DEC03F0900E3C6E000E3D6E010E70
:100148009FEC01F00A0E3DEC03F00D0E3DEC03F0C0
:10015800600E3C6E000E3D6E010E9FEC01F00A0E23
:100168003DEC03F00D0E3DEC03F01650DF0F1D6E55
:100178001750DF0F1E6E1850DF0F1F6E1950DF0F5C
:10018800206E1A50DF0F216E1B50DF0F226E000EFB
:100198001C6E150E3C6E000E3D6E010E9FEC01F0BC
:1001A8000D0E3DEC03F07A0E3B6E030E00EC02F0F0
:1001B8007A0E3B6E000E00EC02F01DC03BF0030E01
:1001C80000EC02F01DC03BF0000E00EC02F01EC077
:1001D8003BF0030E00EC02F01EC03BF0000E00ECFA
:1001E80002F01FC03BF0030E00EC02F01FC03BF012
:1001F800000E00EC02F020C03BF0030E00EC02F011
:1002080020C03BF0000E00EC02F0790E3B6E030EAE
:1002180000EC02F0790E3B6E000E00EC02F0223882
:10022800E8461F0B010B276E2240E8423F0B010BEB
:10023800286ED8902230010B296E2250010B2A6EAD
:100248002138E8461F0B010B236E2140E8423F0B83
:10025800010B246ED8902130010B256E2150010B23
:10026800266E332A3350D8A43CEF01F03EEF01F05C
:1002780042EF01F0C00E046E4EEF01F0000E046E66
:100288006F0E3318D8A44BEF01F04DEF01F04EEF8D
:1002980001F0336828C041F0413AF00E4116273882
:1002A800E846E00B411021100410346E345068EC1D
:1002B80003F027B002D0899001D0898028B002D0FD
:1002C800899201D089822A50D8B46DEF01F070EF7D
:1002D80001F0010E71EF01F0000E29140009D8B4E5
:1002E80078EF01F07AEF01F07EEF01F015EC03F002
:1002F80099EF01F02950D8B484EF01F087EF01F0AD
:10030800010E88EF01F0000E416E426A2A50411634
:10031800000E421641504210D8B495EF01F097EF05
:1003280001F099EF01F029EC03F05AEC03F0B9EF72
:1003380000F06FEF00F0406EE7EF01F03CC0D9FF2E
:100348003DC0DAFFDF503DEC03F03C4A3D2A3CC09B
:10035800D9FF3DC0DAFFDF50D8A4B5EF01F0B7EF01
:1003680001F0A2EF01F0FCEF01F03CC0D9FF3DC065
:10037800DAFFDF5068EC03F03C4A3D2A3CC0D9FF65
:100388003DC0DAFFDF50D8A4CCEF01F0CEEF01F08A
:10039800B9EF01F0FCEF01F03CC0D9FF3DC0DAFF36
:1003A800DF503DEC03F03C4A3D2A3CC0D9FF3DC03C
:1003B800DAFFDF50D8A4E3EF01F0E5EF01F0D0EF6A
:1003C80001F0FCEF01F040503E6E3F6A3F50000ADA
:1003D800D8B4F1EF01F0D9EF01F03E50010AD8B4DA
:1003E800ABEF01F0030AD8B4C2EF01F0D9EF01F086
:1003F800000E3DEC03F012003D6E3D50D8A407EF0F
:1004080002F009EF02F018EF02F08A943BC0C9FF2E
:10041800C7A011EF02F013EF02F00CEF02F08A848C
:10042800C9CF3CF05FEF02F03D04D8A41EEF02F004
:1004380020EF02F02FEF02F08A963BC0C9FFC7A059
:1004480028EF02F02AEF02F023EF02F08A86C9CFE4
:100458003CF05FEF02F0020E3D18D8A436EF02F030
:1004680038EF02F047EF02F08A983BC0C9FFC7A0F7
:1004780040EF02F042EF02F03BEF02F08A88C9CF6A
:100488003CF05FEF02F0030E3D18D8A44EEF02F0E7
:1004980050EF02F05FEF02F08A9A3BC0C9FFC7A095
:1004A80058EF02F05AEF02F053EF02F08A8AC9CFF0
:1004B8003CF05FEF02F03C501200507265737320FD
:1004C80027712720616E642027652720746F2074A8
:1004D80075726E206C69676874206265616D206F43
:1004E800666620616E64206F6E00557365207269C0
:1004F800676874206A6F79737469636B20746F20FE
:100508006D6F766520726967687420776865656CB9
:1005180000557365206C656674206A6F7973746919
:10052800636B20746F206D6F7665206C6566742030
:10053800776865656C00C20EF66E040EF76E000EE5
:10054800F86E00EE60F010EE7CF00900F5CFEEFFDB
:10055800E550E150FAE1980EF66E060EF76E000EC1
:10056800F86E00EE01F010EE1CF00900F5CFEEFF7A
:10057800E550E150FAE100EE1DF0180EEE6AE806CB
:10058800FDE145904592000EF86E000171EF00F014
:10059800AC84B886728470868A0EAF6E000EB06E18
:1005A8008A0E756E000E766E948C948E958C958E50
:1005B800AC987298AB8E718EAC8A728A9D8AAB8821
:1005C800718812001F0EC86EC79EC78CC698C65089
:1005D800F00B0A09C66E000EC26E93949396939818
:1005E800939A94969488949A8A848A868A888A8A1E
:1005F800C68A1200000E0F01386F000E396F000E08
:100608003A6F000E3B6F000E3C6F799E789E929079
:1006180092929294FC0E951673EC03F029EC03F079
:100628001200020E8C6ED00E3B6ECA0EE82EFED75C
:100638003B2EFCD7680E3B6EE40EE82EFED73B2E11
:10064800FCD700D0000E8C6E1200010E8C6ED00EFE
:100658003B6ECA0EE82EFED73B2EFCD7680E3B6ECB
:10066800E40EE82EFED73B2EFCD700D0000E8C6E91
:1006780012003B6E9EA843EF03F045EF03F03EEFF8
:1006880003F03BC0ADFF050EE82EFED700F01200C8
:10069800E803010148656C6C6F2C2057656C636F2B
:1006A8006D65210068656C6C6F212100ABA25FEF5E
:1006B80003F061EF03F067EF03F0AB98150EE82E37
:1006C800FED700F0AB8812003B6EA4A86EEF03F0D3
:1006D80070EF03F069EF03F03BC073FF1200F80EF0
:0406E800891612005D
:020000040020DA
:08000000FFFFFFFFFFFFFFFF00
:020000040030CA
:0E000000FF32193CFF9181FF0FC00FE00F404F
:00000001FF
