:0400000073EF00F0AA
:100008004282E1CF2BF0E2CF2CF0D9CF2DF0DACF1E
:100018002EF089809EAA13EF00F015EF00F068EF2C
:1000280000F0AECF3FF089829E9A7A0E3F18D8A48E
:1000380020EF00F022EF00F026EF00F0010E3E6EF8
:1000480053EF00F0790E3F18D8A42DEF00F02FEFF2
:1000580000F033EF00F0000E3E6E53EF00F053EF68
:1000680000F0210E406E000E416E899268EF00F09C
:1000780040C0D9FF41C0DAFF3FC0DFFF404A412AF4
:10008800899068EF00F040C0D9FF41C0DAFF40C056
:10009800E1FF41C0E2FFDFCFE7FF68EF00F03E502D
:1000A800296E2A6A2A50000AD8B45DEF00F047EF9B
:1000B80000F02950000AD8B435EF00F0010AD8B48E
:1000C8003CEF00F047EF00F09E9A2EC0DAFF2DC0FB
:1000D800D9FF2CC0E2FF2BC0E1FF4292110030EFA4
:1000E80002F0210E406E000E416ED09E000EF26EA0
:1000F8008FEC02F077EC02F05DEC02F0F28EF28CFD
:100108006F0E2F6E030E84EC01F0110E306E000E90
:10011800316E010E0BEC01F0600E306E000E316E88
:10012800010E0BEC01F0C60E306E000E316E010EA2
:100138000BEC01F0960E306E000E316E010E0BECDA
:1001480001F022C037F06F0E2F6E030E84EC01F021
:100158006F0EFFEC02F0000E286E210E306E000EBE
:10016800316E010E0BEC01F0D8EF00F00AEC03F051
:100178008980FDEF00F00AEC03F08982FDEF00F0C2
:100188000AEC03F08984FDEF00F00AEC03F0FDEFC0
:1001980000F0CEEC02F0FDEF00F0BAEC02F0FDEF5B
:1001A80000F08984FDEF00F03750356E366A36501E
:1001B800000AD8B4E2EF00F0D5EF00F03550310A6C
:1001C800D8B4CDEF00F0710AD8B4D1EF00F0210A0D
:1001D800D8B4BAEF00F0050AD8B4BFEF00F00B0AA4
:1001E800D8B4C9EF00F0180AD8B4C4EF00F0D5EFBE
:1001F80000F0150E356EC60EE82EFED7352EFCD74C
:1002080000D0F1EC02F0A5EF00F073EF00F0346ECF
:100218006EEF01F030C0D9FF31C0DAFFDF50E2ECF9
:1002280002F0304A312A30C0D9FF31C0DAFFDF503E
:10023800D8A421EF01F023EF01F00EEF01F0000E3A
:10024800E2EC02F00A0EE2EC02F00D0EE2EC02F033
:1002580083EF01F030C0D9FF31C0DAFFDF50FFEC87
:1002680002F0304A312A30C0D9FF31C0DAFFDF50FE
:10027800D8A441EF01F043EF01F02EEF01F0000E9A
:10028800FFEC02F00A0EFFEC02F00D0EFFEC02F09C
:1002980083EF01F030C0D9FF31C0DAFFDF50E2EC64
:1002A80002F0304A312A30C0D9FF31C0DAFFDF50BE
:1002B800D8A461EF01F063EF01F04EEF01F0000EFA
:1002C800E2EC02F00A0EE2EC02F00D0EE2EC02F0B3
:1002D80083EF01F03450326E336A3350000AD8B4D9
:1002E80078EF01F057EF01F03250010AD8B417EF58
:1002F80001F0030AD8B437EF01F057EF01F012000C
:10030800316E3150D8A48BEF01F08DEF01F09CEFE6
:1003180001F08A942FC0C9FFC7A095EF01F097EFAD
:1003280001F090EF01F08A84C9CF30F0E3EF01F0DB
:100338003104D8A4A2EF01F0A4EF01F0B3EF01F06B
:100348008A962FC0C9FFC7A0ACEF01F0AEEF01F04D
:10035800A7EF01F08A86C9CF30F0E3EF01F0020E73
:100368003118D8A4BAEF01F0BCEF01F0CBEF01F0DF
:100378008A982FC0C9FFC7A0C4EF01F0C6EF01F0EB
:10038800BFEF01F08A88C9CF30F0E3EF01F0030E28
:100398003118D8A4D2EF01F0D4EF01F0E3EF01F067
:1003A8008A9A2FC0C9FFC7A0DCEF01F0DEEF01F089
:1003B800D7EF01F08A8AC9CF30F0E3EF01F030506F
:1003C800120050726573732027772720616E6420AE
:1003D80027732720746F206D6F766520726F626FA8
:1003E8007420666F727761726420616E6420626146
:1003F800636B776172647300507265737320277141
:100408002720616E642027652720746F2074757219
:100418006E206C69676874206265616D206F66661E
:1004280020616E64206F6E005072657373202761BF
:100438002720616E642027642720746F20737069F9
:100448006E20726F626F74206C65667420616E64D2
:07045800207269676874005F
:10046000CA0EF66E030EF76E000EF86E00EE60F028
:1004700010EE95F00900F5CFEEFFE550E150FAE1FE
:100480004C0EF66E050EF76E000EF86E00EE01F0E3
:1004900010EE28F00900F5CFEEFFE550E150FAE14B
:1004A00000EE38F0080EEE6AE806FDE14290429256
:1004B000000EF86E000175EF00F0AC84B88672840F
:1004C00070868A0EAF6E000EB06E820E756E060ECE
:1004D000766E948C948E958C958EAC987298AB8E2B
:1004E000718EAC8A728A9D8AAB88718812001F0E49
:1004F000C86EC79EC78CC698C650F00B0A09C66E58
:10050000000EC26E939493969398939A94969488BF
:10051000949A8A848A868A888A8AC68A1200000EF9
:100520000F01386F000E396F000E3A6F000E3B6FEF
:10053000000E3C6F799E789E929092929294FC0E5F
:1005400095160AEC03F0CEEC02F0120073756363AB
:10055000657373006661696C00E8030148656C6C43
:100560006F2C2057656C636F6D65210068656C6C3E
:100570006F212100020E8C6ED00E2F6ECA0EE82E57
:10058000FED72F2EFCD7680E2F6EE40EE82EFED776
:100590002F2EFCD700D0000E8C6E1200010E8C6E38
:1005A000D00E2F6ECA0EE82EFED72F2EFCD7680E67
:1005B0002F6EE40EE82EFED72F2EFCD700D0000EB3
:1005C0008C6E12002F6E9EA8E8EF02F0EAEF02F0A8
:1005D000E3EF02F02FC0ADFF6A0EE82EFED700D089
:1005E0001200ABA2F6EF02F0F8EF02F0FEEF02F01D
:1005F000AB98150EE82EFED700F0AB8812002F6ED8
:10060000A4A805EF03F007EF03F000EF03F02FC0FD
:0A06100073FF1200F80E89161200A5
:020000040020DA
:08000000FFFFFFFFFFFFFFFF00
:020000040030CA
:0E000000FF32193CFF9181FF0FC00FE00F404F
:00000001FF
