:040000001BEF00F002
:1000080058824050511807E141505218D8A40FEFB8
:1000180000F011EF00F017EF00F0000E526E000E26
:10002800516E010E556E514A522A58921100C1EF75
:1000380001F02CEC02F06BEC02F00FEC02F0070E72
:10004800436ED00E426E080E446EC2EC00F06F0E86
:10005800426E030E2DEC01F0000E576E000E566E28
:100068006F0E506EB5EF00F07DEC02F0576E5650F3
:100078005718D8A442EF00F044EF00F058EF00F012
:10008800534A542A780E53185410D8A44EEF00F04F
:1000980050EF00F054EF00F06F0E506E63EF00F079
:1000A80057C050F063EF00F056505718D8B45FEFC0
:1000B80000F061EF00F063EF00F054EF00F057C07C
:1000C80056F050C042F0030E2DEC01F0505089EC70
:1000D80002F08EEF00F094EC02F08980B3EF00F0AC
:1000E80094EC02F08982B3EF00F094EC02F089847A
:1000F800B3EF00F094EC02F0B3EF00F057EC02F02D
:10010800B3EF00F043EC02F0B3EF00F097EC02F02D
:10011800B3EF00F057504E6E4F6A4F50000AD8B4F4
:1001280098EF00F08AEF00F04E50610AD8B46FEFF4
:1001380000F0050AD8B474EF00F0010AD8B486EFCD
:1001480000F00A0AD8B47EEF00F01E0AD8B482EF95
:1001580000F0060AD8B479EF00F08AEF00F0000E3C
:10016800556E5550D8A4BBEF00F0BDEF00F038EF46
:1001780000F00300B5EF00F01BEF00F0000E4A6E30
:10018800000E4D6E421C4B6E431C4C6E4C504A6E1A
:100198004BC04DF0CD909D903F0ECD16CD84EDEF28
:1001A80000F0CF0ECD160AEF01F0CD50CF0B10099D
:1001B800CD6E0AEF01F0CD50CF0B2009CD6E0AEFBE
:1001C80001F0300ECD120AEF01F0CF0ECD160AEF76
:1001D80001F04450456E466A4650000AD8B4F7EF1D
:1001E80000F0E9EF00F04550010AD8B4D5EF00F06F
:1001F800030AD8B4D9EF00F0060AD8B4DFEF00F04C
:100208000C0AD8B4E5EF00F0E9EF00F04AC0CFFFE0
:100218004DC0CEFFCD804D50456E466A020E452634
:10022800000E4622CE50476E486A4550475C4850FB
:10023800800A496E4650800A4958D8A026EF01F036
:1002480028EF01F00FEF01F000F000F09E909D8084
:100258001200446E4450D8A434EF01F036EF01F098
:1002680045EF01F08A9442C0C9FFC7A03EEF01F0F4
:1002780040EF01F039EF01F08A84C9CF43F08CEFE9
:1002880001F04404D8A44BEF01F04DEF01F05CEF0E
:1002980001F08A9642C0C9FFC7A055EF01F057EF99
:1002A80001F050EF01F08A86C9CF43F08CEF01F0DE
:1002B800020E4418D8A463EF01F065EF01F074EF63
:1002C80001F08A9842C0C9FFC7A06DEF01F06FEF37
:1002D80001F068EF01F08A88C9CF43F08CEF01F094
:1002E800030E4418D8A47BEF01F07DEF01F08CEFEA
:1002F80001F08A9A42C0C9FFC7A085EF01F087EFD5
:1003080001F080EF01F08A8AC9CF43F08CEF01F049
:100318004350120050726573732027772720616E4F
:10032800642027732720746F206D6F766520726FA5
:10033800626F7420666F727761726420616E6420E8
:100348006261636B776172647300507265737320C6
:1003580027712720616E642027652720746F207419
:1003680075726E206C69676874206265616D206FB4
:10037800666620616E64206F6E001C0EF66E030EBA
:10038800F76E000EF86E00EE60F010EE66F00900F1
:10039800F5CFEEFFE550E150FAE1DC0EF66E030E04
:1003A800F76E000EF86E00EE01F010EE41F0090055
:1003B800F5CFEEFFE550E150FAE100EE51F0070EFF
:1003C800EE6AE806FDE158905892000EF86E0001BA
:1003D8001DEF00F050726573732027612720616E4E
:1003E800642027642720746F207370696E20726FF1
:1003F800626F74206C65667420616E642072696730
:1004080068740048656C6C6F2C2057656C636F6D61
:05041800652100E8036E
:10041E00AC84B886728470860A0EAF6E1A0EB06EF9
:10042E00820E756E060E766E948C948E958C958ECD
:10043E00AC987298AB8E718EAC8A728AD09E9D9A51
:10044E00C00EF212AB8871881200000E0F01386FC9
:10045E00000E396F000E3A6F000E3B6F000E3C6FB0
:10046E00799E789E929092929294030E951294ECAD
:10047E0002F057EC02F01200020E8C6ED00E426E9D
:10048E00CA0EE82EFED7422EFCD7680E426EE40E40
:10049E00E82EFED7422EFCD700D0000E8C6E120036
:1004AE00010E8C6ED00E426ECA0EE82EFED7422E74
:1004BE00FCD7680E426EE40EE82EFED7422EFCD715
:1004CE0000D0000E8C6E1200000EC76E220EC66E8D
:1004DE00000EC26E939493969398939A94969488E2
:1004EE00949A8A848A868A888A8A12009EAA82EFC1
:1004FE0002F084EF02F07DEF02F0AECF42F09E9A52
:10050E0042501200426EA4A88FEF02F091EF02F05B
:10051E008AEF02F042C073FF1200F80E8916120025
:06052E00070E8912120005
:020000040020DA
:08000000FFFFFFFFFFFFFFFF00
:020000040030CA
:0E000000FF32193CFF9181FF0FC00FE00F404F
:00000001FF
