:040000002BEF7EF074
:10FC4800F80E89161200016E01C073FF1200126AC5
:10FC5800116A106A0F6A0E6A000EF86E00015AEFF8
:10FC68007FF0799E789E929092929294030E9512CC
:10FC780024EC7EF053EC7EF01200000EC76E220ECC
:10FC8800C66E000EC26E939493969398939A949628
:10FC98009488949A8A848A868A888A8A1200010EAD
:10FCA8008C6ED00E016ECA0EE82EFED7012EFCD740
:10FCB800680E016EE40EE82EFED7012EFCD700D0A8
:10FCC800000E8C6E1200000E0F01386F000E396F97
:10FCD800000E3A6F000E3B6F000E3C6FAC84B88686
:10FCE800728470860A0EAF6E1A0EB06E820E756E32
:10FCF800060E766E948C948E958C958EAC98729830
:10FD0800AB8E718EAC8A728AD09E9D8AC00EF2121A
:10FD1800AB8871881200036E0350D8A496EF7EF06A
:10FD280098EF7EF0A7EF7EF08A9401C0C9FFC7A0C4
:10FD3800A0EF7EF0A2EF7EF09BEF7EF08A84C9CF21
:10FD480002F0EEEF7EF00304D8A4ADEF7EF0AFEF43
:10FD58007EF0BEEF7EF08A9601C0C9FFC7A0B7EF5C
:10FD68007EF0B9EF7EF0B2EF7EF08A86C9CF02F05E
:10FD7800EEEF7EF0020E0318D8A4C5EF7EF0C7EFB1
:10FD88007EF0D6EF7EF08A9801C0C9FFC7A0CFEFFA
:10FD98007EF0D1EF7EF0CAEF7EF08A88C9CF02F0FC
:10FDA800EEEF7EF0030E0318D8A4DDEF7EF0DFEF50
:10FDB8007EF0EEEF7EF08A9A01C0C9FFC7A0E7EF98
:10FDC8007EF0E9EF7EF0E2EF7EF08A8AC9CF02F09A
:10FDD800EEEF7EF002501200000E096E000E0C6E5F
:10FDE800011C0A6E021C0B6E0B50096E0AC00CF047
:10FDF800CD909D903F0ECD16CD841BEF7FF0CF0E9A
:10FE0800CD1638EF7FF0CD50CF0B1009CD6E38EFFF
:10FE18007FF0CD50CF0B2009CD6E38EF7FF0300E3C
:10FE2800CD1238EF7FF0CF0ECD1638EF7FF00350AC
:10FE3800046E056A0550000AD8B425EF7FF017EF65
:10FE48007FF00450010AD8B403EF7FF0030AD8B456
:10FE580007EF7FF0060AD8B40DEF7FF00C0AD8B48C
:10FE680013EF7FF017EF7FF009C0CFFF0CC0CEFF74
:10FE78000C50046E056A020E0426000E0522CE50B0
:10FE8800066E076A0450065C0750800A086E055023
:10FE9800800A0858D8A053EF7FF055EF7FF03CEF69
:10FEA8007FF000F000F09E909D80120035EC7EF00F
:10FEB80041EC7EF067EC7EF0070E026ED00E016E0C
:10FEC800080E036EF0EC7EF06F0E016E030E8FECE1
:10FED8007EF086EF7FF00E4A0F2AFA0E0E1806E122
:10FEE8000F28D8A47AEF7FF07CEF7FF086EF7FF0C1
:10FEF8006F0E126E000E0F6E000E0E6E010E116E5A
:10FF0800000E106E1150D8B48CEF7FF08EEF7FF09A
:10FF18006FEF7FF012C001F0030E8FEC7EF01250ED
:10FF280027EC7EF0610E1218D8A49DEF7FF09FEFAA
:10FF38007FF0A3EF7FF0010E896EE8EF7FF0640E8B
:10FF48001218D8A4AAEF7FF0ACEF7FF0B0EF7FF0E3
:10FF5800020E896EE8EF7FF0770E1218D8A4B7EF7B
:10FF68007FF0B9EF7FF0BDEF7FF0040E896EE8EF08
:10FF78007FF06F0E1218D8A4C4EF7FF0C6EF7FF0A1
:10FF8800CAEF7FF0070E896EE8EF7FF0710E121846
:10FF9800D8A4D1EF7FF0D3EF7FF0E8EF7FF0010E28
:10FFA8008C6ED00E0D6ECA0EE82EFED70D2EFCD725
:10FFB800680E0D6EE40EE82EFED70D2EFCD700D08D
:10FFC800000E8C6EE8EF7FF00E4A0F2ACA0E0E184C
:10FFD80007E18A0E0F18D8A4F4EF7FF0F6EF7FF050
:10FFE80086EF7FF06F0E126E000E0F6E000E0E6E13
:08FFF80086EF7FF000EF00F03E
:020000040020DA
:08000000FFFFFFFFFFFFFFFF00
:020000040030CA
:0E000000FF32193CFF9181FF0FC00FE00F404F
:00000001FF
