:040000001EEF00F0FF
:1000080056829D909E900150451807E1025046186F
:10001800D8A411EF00F013EF00F019EF00F0000E74
:10002800466E000E456E010E036E8974454A462AD7
:100038005692110054EF02F0D09E000EF26EBCEC06
:1000480002F0FBEC02F0A2EC02F0EA0E4E6E600E3B
:100058004D6E080E4F6EDCEC01F06F0E4D6E030E08
:100068007BEC01F0330E4E6E000E4F6E010E02EC6B
:1000780001F0600E4E6E000E4F6E010E02EC01F0A4
:10008800040E4E6E000E4F6E010E02EC01F0960E3D
:100098004E6E000E4F6E010E02EC01F0000E4C6E1B
:1000A800000E4B6E6F0E556EF6EF00F00DEC03F080
:1000B8004C6E4C28D8B463EF00F065EF00F09AEF6F
:1000C80000F04B504C18D8A46CEF00F06EEF00F025
:1000D80085EF00F0474A482A900E475C010E4858C1
:1000E800D8A079EF00F07BEF00F081EF00F06F0E01
:1000F800556ED3EC02F096EF00F04CC055F096EF39
:1001080000F04B504C18D8B48CEF00F08EEF00F094
:1001180096EF00F04CC055F0000E486E000E476E8A
:10012800E7EC02F04CC04BF09CEF00F06F0E556E00
:1001380055C04DF0030E7BEC01F055501CEC03F05C
:10014800C5EF00F032EC03F08980EAEF00F032EC02
:1001580003F08982EAEF00F032EC03F08984EAEFD9
:1001680000F032EC03F0EAEF00F0E7EC02F0EAEF1F
:1001780000F0D3EC02F0EAEF00F035EC03F0EAEF20
:1001880000F05550536E546A5450000AD8B4CFEF5B
:1001980000F0C1EF00F05350610AD8B4A6EF00F0A8
:1001A800050AD8B4ABEF00F0010AD8B4BDEF00F0EF
:1001B8000A0AD8B4B5EF00F01E0AD8B4B9EF00F0B7
:1001C800060AD8B4B0EF00F0C1EF00F0020E546E8A
:1001D8004D0E536E740EE82EFED7532EFCD7542EB8
:1001E800FAD700D00350D8A4FCEF00F0FEEF00F0DF
:1001F8005AEF00F0F6EF00F01EEF00F0526E65EFD8
:1002080001F04EC0D9FF4FC0DAFFDF5027EC03F0F2
:100218004E4A4F2A4EC0D9FF4FC0DAFFDF50D8A44C
:1002280018EF01F01AEF01F005EF01F0000E27ECCE
:1002380003F00A0E27EC03F00D0E27EC03F07AEF1B
:1002480001F04EC0D9FF4FC0DAFFDF501CEC03F0BD
:100258004E4A4F2A4EC0D9FF4FC0DAFFDF50D8A40C
:1002680038EF01F03AEF01F025EF01F0000E1CEC39
:1002780003F00A0E1CEC03F00D0E1CEC03F07AEFF1
:1002880001F04EC0D9FF4FC0DAFFDF5027EC03F072
:100298004E4A4F2A4EC0D9FF4FC0DAFFDF50D8A4CC
:1002A80058EF01F05AEF01F045EF01F0000E27EC8E
:1002B80003F00A0E27EC03F00D0E27EC03F07AEF9B
:1002C80001F05250506E516A5150000AD8B46FEF85
:1002D80001F04EEF01F05050010AD8B40EEF01F0D2
:1002E800030AD8B42EEF01F04EEF01F012004F6E62
:1002F8004F50D8A482EF01F084EF01F093EF01F0A2
:100308008A944DC0C9FFC7A08CEF01F08EEF01F0B1
:1003180087EF01F08A84C9CF4EF0DAEF01F04F047D
:10032800D8A499EF01F09BEF01F0AAEF01F08A96AB
:100338004DC0C9FFC7A0A3EF01F0A5EF01F09EEFE4
:1003480001F08A86C9CF4EF0DAEF01F0020E4F189D
:10035800D8A4B1EF01F0B3EF01F0C2EF01F08A9831
:100368004DC0C9FFC7A0BBEF01F0BDEF01F0B6EF6C
:1003780001F08A88C9CF4EF0DAEF01F0030E4F186A
:10038800D8A4C9EF01F0CBEF01F0DAEF01F08A9AB7
:100398004DC0C9FFC7A0D3EF01F0D5EF01F0CEEFF4
:1003A80001F08A8AC9CF4EF0DAEF01F04E50120000
:1003B8004D1C436E4E1C446E44504A6E43C049F077
:1003C800CD909D903F0ECD16CD8403EF02F0CF0E59
:1003D800CD1620EF02F0CD50CF0B1009CD6E20EFD7
:1003E80002F0CD50CF0B2009CD6E20EF02F0300E79
:1003F800CD1220EF02F0CF0ECD1620EF02F04F50B5
:10040800506E516A5150000AD8B40DEF02F0FFEF58
:1004180001F05050010AD8B4EBEF01F0030AD8B448
:10042800EFEF01F0060AD8B4F5EF01F00C0AD8B4E2
:10043800FBEF01F0FFEF01F01200507265737320BB
:1004480027772720616E642027732720746F206D1B
:100458006F766520726F626F7420666F7277617253
:100468006420616E64206261636B776172647300FB
:1004780050726573732027712720616E6420276589
:100488002720746F207475726E206C6967687420F9
:100498006265616D206F666620616E64206F6E0014
:1004A800420EF66E040EF76E000EF86E00EE60F067
:1004B80010EE66F00900F5CFEEFFE550E150FAE1E5
:1004C800020EF66E050EF76E000EF86E00EE01F0E5
:1004D80010EE42F00900F5CFEEFFE550E150FAE1E9
:1004E80000EE43F00A0EEE6AE806FDE156905692D9
:1004F800000EF86E000120EF00F0E803015072656D
:1005080073732027612720616E6420276427207475
:100518006F207370696E20726F626F74206C6566ED
:100528007420616E642072696768740048656C6C39
:100538006F2C2057656C636F6D652100AC84B8869D
:10054800728470868A0EAF6E000EB06E820E756E63
:10055800060E766E948C948E958C958EAC987298C7
:10056800AB8E718EAC8A728A9D9AAB8871881200A4
:10057800000E0F01386F000E396F000E3A6F000E33
:100588003B6F000E3C6F799E789E92909292929467
:10059800FC0E951632EC03F0E7EC02F01200020EA6
:1005A8008C6ED00E4D6ECA0EE82EFED74D2EFCD79F
:1005B800680E4D6EE40EE82EFED74D2EFCD700D007
:1005C800000E8C6E1200010E8C6ED00E4D6ECA0E8F
:1005D800E82EFED74D2EFCD7680E4D6EE40EE82EA1
:1005E800FED74D2EFCD700D0000E8C6E1200000EE8
:1005F800C76E220EC66E000EC26E939493969398A1
:10060800939A94969488949A8A848A868A888A8AFD
:1006180012009EAA12EF03F014EF03F019EF03F093
:10062800AECF4DF09E9A1AEF03F04D684D50120070
:100638004D6EA4A822EF03F024EF03F01DEF03F0A2
:100648004DC073FF12004D6E9EA82DEF03F02FEFE3
:1006580003F028EF03F04DC0ADFF1200F80E891625
:080668001200070E89121200B6
:020000040020DA
:08000000FFFFFFFFFFFFFFFF00
:020000040030CA
:0E000000FF32193CFF9181FF0FC00FE00F404F
:00000001FF
