:040000003EEF7EF061
:10FC5A00F80E89161200016E01C073FF1200799E18
:10FC6A00789E929092929294030E95122DEC7EF0C9
:10FC7A001200126A116A106A0F6A0E6A000EF86E92
:10FC8A0000014DEF7FF0000EC76E220EC66E000E09
:10FC9A00C26E939493969398939A94969488949A0E
:10FCAA008A848A868A888A8A1200000E0F01386F2F
:10FCBA00000E396F000E3A6F000E3B6F000E3C6F5C
:10FCCA00AC84B886728470860A0EAF6E1A0EB06E55
:10FCDA00820E756E060E766E948C948E958C958E29
:10FCEA00AC987298AB8E718EAC8A728AD09E9D8ABD
:10FCFA00C00EF212AB8871881200036E0350D8A4AA
:10FD0A0089EF7EF08BEF7EF09AEF7EF08A9401C045
:10FD1A00C9FFC7A093EF7EF095EF7EF08EEF7EF0DD
:10FD2A008A84C9CF02F0E1EF7EF00304D8A4A0EFE1
:10FD3A007EF0A2EF7EF0B1EF7EF08A9601C0C9FF95
:10FD4A00C7A0AAEF7EF0ACEF7EF0A5EF7EF08A8620
:10FD5A00C9CF02F0E1EF7EF0020E0318D8A4B8EF83
:10FD6A007EF0BAEF7EF0C9EF7EF08A9801C0C9FF33
:10FD7A00C7A0C2EF7EF0C4EF7EF0BDEF7EF08A88A6
:10FD8A00C9CF02F0E1EF7EF0030E0318D8A4D0EF3A
:10FD9A007EF0D2EF7EF0E1EF7EF08A9A01C0C9FFD1
:10FDAA00C7A0DAEF7EF0DCEF7EF0D5EF7EF08A8A2C
:10FDBA00C9CF02F0E1EF7EF002501200000E096E88
:10FDCA00000E0C6E011C0A6E021C0B6E0B50096EA3
:10FDDA000AC00CF0CD909D903F0ECD16CD840EEF4B
:10FDEA007FF0CF0ECD162BEF7FF0CD50CF0B100941
:10FDFA00CD6E2BEF7FF0CD50CF0B2009CD6E2BEFC0
:10FE0A007FF0300ECD122BEF7FF0CF0ECD162BEFF9
:10FE1A007FF00350046E056A0550000AD8B418EF43
:10FE2A007FF00AEF7FF00450010AD8B4F6EF7EF0B3
:10FE3A00030AD8B4FAEF7EF0060AD8B400EF7FF0CE
:10FE4A000C0AD8B406EF7FF00AEF7FF009C0CFFFA3
:10FE5A000CC0CEFF0C50046E056A020E0426000E7A
:10FE6A000522CE50066E076A0450065C0750800AC7
:10FE7A00086E0550800A0858D8A046EF7FF048EF70
:10FE8A007FF02FEF7FF000F000F09E909D8012002F
:10FE9A0034EC7EF048EC7EF05AEC7EF0070E026EEF
:10FEAA00D00E016E080E036EE3EC7EF06F0E016E4B
:10FEBA00030E82EC7EF079EF7FF00E4A0F2AFA0EDB
:10FECA000E1806E10F28D8A46DEF7FF06FEF7FF0D0
:10FEDA0079EF7FF06F0E126E000E0F6E000E0E6E2F
:10FEEA00010E116E000E106E1150D8B47FEF7FF024
:10FEFA0081EF7FF062EF7FF012C001F0030E82EC17
:10FF0A007EF0125030EC7EF0610E1218D8A490EFF9
:10FF1A007FF092EF7FF096EF7FF0010E896EE8EFA7
:10FF2A007FF0640E1218D8A49DEF7FF09FEF7FF048
:10FF3A00A3EF7FF0020E896EE8EF7FF0770E1218BA
:10FF4A00D8A4AAEF7FF0ACEF7FF0B0EF7FF0040EF9
:10FF5A00896EE8EF7FF06F0E1218D8A4B7EF7FF022
:10FF6A00B9EF7FF0BDEF7FF0070E896EE8EF7FF003
:10FF7A00710E1218D8A4C4EF7FF0C6EF7FF0DBEF42
:10FF8A007FF0010E8C6ED00E0D6ECA0EE82EFED7D3
:10FF9A000D2EFCD7680E0D6EE40EE82EFED70D2E40
:10FFAA00FCD700D0000E8C6EE8EF7FF0650E1218B9
:10FFBA00D8A4E2EF7FF0E4EF7FF0E8EF7FF0020EE3
:10FFCA008C6EC8EF7FF00E4A0F2ACA0E0E1807E190
:10FFDA008A0E0F18D8A4F4EF7FF0F6EF7FF079EFCE
:10FFEA007FF06F0E126E000E0F6E000E0E6E79EF1E
:06FFFA007FF000EF00F0B3
:020000040020DA
:08000000FFFFFFFFFFFFFFFF00
:020000040030CA
:0E000000FF32193CFF9181FF0FC00FE00F404F
:00000001FF
