:040000006FEF00F0AE
:100008003E82E1CF30F0E2CF31F0D9CF32F0DACF13
:1000180033F09EAA12EF00F014EF00F064EF00F046
:10002800AECF2DF09E9A7A0E2D18D8A41EEF00F0B0
:1000380020EF00F024EF00F0010E2C6E4FEF00F0DF
:10004800790E2D18D8A42BEF00F02DEF00F031EF2A
:1000580000F0000E2C6E4FEF00F04FEF00F0140E82
:100068003C6E000E3D6E64EF00F03CC0D9FF3DC011
:10007800DAFF2DC0DFFF3C4A3D2A64EF00F03CC0A8
:10008800D9FF3DC0DAFF3CC0E1FF3DC0E2FFDFCF52
:10009800E7FF64EF00F02C502E6E2F6A2F50000AF5
:1000A800D8B459EF00F043EF00F02E50000AD8B44E
:1000B80033EF00F0010AD8B439EF00F043EF00F055
:1000C8009E9A33C0DAFF32C0D9FF31C0E2FF30C098
:1000D800E1FF3E92110069EF02F0140E3C6E000E33
:1000E8003D6ED09E000EF26EC8EC02F0B0EC02F04D
:1000F80096EC02F0F28EF28C6F0E346E030ECAECA0
:1001080001F0040E356E000E366E010E69EC01F03A
:100118000A0E07EC03F00D0E07EC03F0B70E356E70
:10012800000E366E010E69EC01F00A0E07EC03F0C2
:100138000D0E07EC03F0900E356E000E366E010EB4
:1001480069EC01F00A0E07EC03F00D0E07EC03F062
:10015800600E356E000E366E010E69EC01F00A0E67
:1001680007EC03F00D0E07EC03F01550DF0F1C6EC3
:100178001650DF0F1D6E1750DF0F1E6E1850DF0F61
:100188001F6E1950DF0F206E1A50DF0F216E000E00
:100198001B6E205032EC03F0140E356E000E366ED6
:1001A800010E69EC01F00D0E07EC03F07A0E346EC7
:1001B800030ECAEC01F07A0E346E000ECAEC01F0A0
:1001C8001CC034F0030ECAEC01F01CC034F0000E61
:1001D800CAEC01F01DC034F0030ECAEC01F01DC0DA
:1001E80034F0000ECAEC01F01EC034F0030ECAEC65
:1001F80001F01EC034F0000ECAEC01F01FC034F04C
:10020800030ECAEC01F01FC034F0000ECAEC01F076
:10021800790E346E030ECAEC01F0790E346E000EBE
:10022800CAEC01F02138E8461F0B010B226E214071
:10023800E8423F0B010B236ED8902130010B246E4E
:100248002150010B256E22B002D0899001D08980FF
:1002580023B002D0899201D089822550D8B437EFD3
:1002680001F03AEF01F0010E3BEF01F0000E24140B
:100278000009D8B442EF01F044EF01F048EF01F073
:10028800DFEC02F063EF01F02450D8B44EEF01F038
:1002980051EF01F0010E52EF01F0000E3A6E3B6A89
:1002A80025503A16000E3B163A503B10D8B45FEF73
:1002B80001F061EF01F063EF01F0F3EC02F016ECEE
:1002C80003F0B9EF00F06FEF00F0396EB1EF01F015
:1002D80035C0D9FF36C0DAFFDF5007EC03F0354AE6
:1002E800362A35C0D9FF36C0DAFFDF50D8A47FEFF1
:1002F80001F081EF01F06CEF01F0C6EF01F035C0BD
:10030800D9FF36C0DAFFDF5032EC03F0354A362A1F
:1003180035C0D9FF36C0DAFFDF50D8A496EF01F018
:1003280098EF01F083EF01F0C6EF01F035C0D9FF77
:1003380036C0DAFFDF5007EC03F0354A362A35C0FD
:10034800D9FF36C0DAFFDF50D8A4ADEF01F0AFEF28
:1003580001F09AEF01F0C6EF01F03950376E386AB4
:100368003850000AD8B4BBEF01F0A3EF01F03750C2
:10037800010AD8B475EF01F0030AD8B48CEF01F084
:10038800A3EF01F0000E07EC03F01200366E3650B2
:10039800D8A4D1EF01F0D3EF01F0E2EF01F08A9495
:1003A80034C0C9FFC7A0DBEF01F0DDEF01F0D6EFE5
:1003B80001F08A84C9CF35F029EF02F03604D8A4B9
:1003C800E8EF01F0EAEF01F0F9EF01F08A9634C0A6
:1003D800C9FFC7A0F2EF01F0F4EF01F0EDEF01F073
:1003E8008A86C9CF35F029EF02F0020E3618D8A454
:1003F80000EF02F002EF02F011EF02F08A9834C029
:10040800C9FFC7A00AEF02F00CEF02F005EF02F0F7
:100418008A88C9CF35F029EF02F0030E3618D8A420
:1004280018EF02F01AEF02F029EF02F08A9A34C0AE
:10043800C9FFC7A022EF02F024EF02F01DEF02F07F
:100448008A8AC9CF35F029EF02F035501200507270
:100458006573732027712720616E64202765272024
:10046800746F207475726E206C6967687420626599
:10047800616D206F666620616E64206F6E00557333
:1004880065207269676874206A6F79737469636B31
:1004980020746F206D6F76652072696768742077A5
:1004A8006865656C00557365206C656674206A6FB5
:1004B80079737469636B20746F206D6F7665206C37
:1004C80065667420776865656C00560EF66E040ED6
:1004D800F76E000EF86E00EE60F010EE7CF009008A
:1004E800F5CFEEFFE550E150FAE1480EF66E060E44
:1004F800F76E000EF86E00EE01F010EE1BF009002A
:10050800F5CFEEFFE550E150FAE100EE1CF0120ED7
:10051800EE6AE806FDE13E903E92000EF86E00019C
:1005280071EF00F0AC84B886728470868A0EAF6E64
:10053800000EB06E8A0E756E000E766E948C948ED8
:10054800958C958EAC987298AB8E718EAC8A728AA7
:100558009D8AAB88718812001F0EC86EC79EC78C13
:10056800C698C650F00B0A09C66E000EC26E939468
:1005780093969398939A94969488949A8A848A8660
:100588008A888A8AC68A1200000E0F01386F000E08
:10059800396F000E3A6F000E3B6F000E3C6F799E6C
:1005A800789E929092929294FC0E95163DEC03F0F0
:1005B800F3EC02F01200020E8C6ED00E346ECA0EEE
:1005C800E82EFED7342EFCD7680E346EE40EE82EE3
:1005D800FED7342EFCD700D0000E8C6E1200010E10
:1005E8008C6ED00E346ECA0EE82EFED7342EFCD791
:1005F800680E346EE40EE82EFED7342EFCD700D0F9
:10060800000E8C6E1200346E9EA80DEF03F00FEFF3
:1006180003F008EF03F034C0ADFF050EE82EFED757
:1006280000F01200ABA21BEF03F01DEF03F023EF65
:1006380003F0AB98150EE82EFED700F0AB88120039
:10064800E8030148656C6C6F2C2057656C636F6D0F
:0B06580065210068656C6C6F212100BB
:10066400346EA4A838EF03F03AEF03F033EF03F04D
:0C06740034C073FF1200F80E891612004B
:020000040020DA
:08000000FFFFFFFFFFFFFFFF00
:020000040030CA
:0E000000FF32193CFF9181FF0FC00FE00F404F
:00000001FF
